{
  "contractName": "BDDCMint",
  "abi": [
    {
      "inputs": [
        {
          "internalType": "address",
          "name": "_payments",
          "type": "address"
        }
      ],
      "stateMutability": "nonpayable",
      "type": "constructor"
    },
    {
      "anonymous": false,
      "inputs": [
        {
          "indexed": true,
          "internalType": "address",
          "name": "owner",
          "type": "address"
        },
        {
          "indexed": true,
          "internalType": "address",
          "name": "approved",
          "type": "address"
        },
        {
          "indexed": true,
          "internalType": "uint256",
          "name": "tokenId",
          "type": "uint256"
        }
      ],
      "name": "Approval",
      "type": "event"
    },
    {
      "anonymous": false,
      "inputs": [
        {
          "indexed": true,
          "internalType": "address",
          "name": "owner",
          "type": "address"
        },
        {
          "indexed": true,
          "internalType": "address",
          "name": "operator",
          "type": "address"
        },
        {
          "indexed": false,
          "internalType": "bool",
          "name": "approved",
          "type": "bool"
        }
      ],
      "name": "ApprovalForAll",
      "type": "event"
    },
    {
      "anonymous": false,
      "inputs": [
        {
          "indexed": true,
          "internalType": "address",
          "name": "previousOwner",
          "type": "address"
        },
        {
          "indexed": true,
          "internalType": "address",
          "name": "newOwner",
          "type": "address"
        }
      ],
      "name": "OwnershipTransferred",
      "type": "event"
    },
    {
      "anonymous": false,
      "inputs": [
        {
          "indexed": false,
          "internalType": "address",
          "name": "user",
          "type": "address"
        },
        {
          "indexed": false,
          "internalType": "bool",
          "name": "status",
          "type": "bool"
        }
      ],
      "name": "SetBlacklist",
      "type": "event"
    },
    {
      "anonymous": false,
      "inputs": [
        {
          "indexed": true,
          "internalType": "address",
          "name": "from",
          "type": "address"
        },
        {
          "indexed": true,
          "internalType": "address",
          "name": "to",
          "type": "address"
        },
        {
          "indexed": true,
          "internalType": "uint256",
          "name": "tokenId",
          "type": "uint256"
        }
      ],
      "name": "Transfer",
      "type": "event"
    },
    {
      "inputs": [],
      "name": "Price",
      "outputs": [
        {
          "internalType": "uint256",
          "name": "",
          "type": "uint256"
        }
      ],
      "stateMutability": "view",
      "type": "function"
    },
    {
      "inputs": [],
      "name": "TOTAL_NFT",
      "outputs": [
        {
          "internalType": "uint256",
          "name": "",
          "type": "uint256"
        }
      ],
      "stateMutability": "view",
      "type": "function"
    },
    {
      "inputs": [
        {
          "internalType": "address",
          "name": "to",
          "type": "address"
        },
        {
          "internalType": "uint256",
          "name": "tokenId",
          "type": "uint256"
        }
      ],
      "name": "approve",
      "outputs": [],
      "stateMutability": "nonpayable",
      "type": "function"
    },
    {
      "inputs": [
        {
          "internalType": "address",
          "name": "owner",
          "type": "address"
        }
      ],
      "name": "balanceOf",
      "outputs": [
        {
          "internalType": "uint256",
          "name": "",
          "type": "uint256"
        }
      ],
      "stateMutability": "view",
      "type": "function"
    },
    {
      "inputs": [
        {
          "internalType": "address",
          "name": "",
          "type": "address"
        }
      ],
      "name": "blacklist",
      "outputs": [
        {
          "internalType": "bool",
          "name": "",
          "type": "bool"
        }
      ],
      "stateMutability": "view",
      "type": "function"
    },
    {
      "inputs": [
        {
          "internalType": "uint256",
          "name": "tokenId",
          "type": "uint256"
        }
      ],
      "name": "getApproved",
      "outputs": [
        {
          "internalType": "address",
          "name": "",
          "type": "address"
        }
      ],
      "stateMutability": "view",
      "type": "function"
    },
    {
      "inputs": [
        {
          "internalType": "address",
          "name": "owner",
          "type": "address"
        },
        {
          "internalType": "address",
          "name": "operator",
          "type": "address"
        }
      ],
      "name": "isApprovedForAll",
      "outputs": [
        {
          "internalType": "bool",
          "name": "",
          "type": "bool"
        }
      ],
      "stateMutability": "view",
      "type": "function"
    },
    {
      "inputs": [],
      "name": "metadataURI",
      "outputs": [
        {
          "internalType": "string",
          "name": "",
          "type": "string"
        }
      ],
      "stateMutability": "view",
      "type": "function"
    },
    {
      "inputs": [],
      "name": "name",
      "outputs": [
        {
          "internalType": "string",
          "name": "",
          "type": "string"
        }
      ],
      "stateMutability": "view",
      "type": "function"
    },
    {
      "inputs": [],
      "name": "owner",
      "outputs": [
        {
          "internalType": "address",
          "name": "",
          "type": "address"
        }
      ],
      "stateMutability": "view",
      "type": "function"
    },
    {
      "inputs": [
        {
          "internalType": "uint256",
          "name": "tokenId",
          "type": "uint256"
        }
      ],
      "name": "ownerOf",
      "outputs": [
        {
          "internalType": "address",
          "name": "",
          "type": "address"
        }
      ],
      "stateMutability": "view",
      "type": "function"
    },
    {
      "inputs": [],
      "name": "renounceOwnership",
      "outputs": [],
      "stateMutability": "nonpayable",
      "type": "function"
    },
    {
      "inputs": [
        {
          "internalType": "address",
          "name": "from",
          "type": "address"
        },
        {
          "internalType": "address",
          "name": "to",
          "type": "address"
        },
        {
          "internalType": "uint256",
          "name": "tokenId",
          "type": "uint256"
        }
      ],
      "name": "safeTransferFrom",
      "outputs": [],
      "stateMutability": "nonpayable",
      "type": "function"
    },
    {
      "inputs": [
        {
          "internalType": "address",
          "name": "from",
          "type": "address"
        },
        {
          "internalType": "address",
          "name": "to",
          "type": "address"
        },
        {
          "internalType": "uint256",
          "name": "tokenId",
          "type": "uint256"
        },
        {
          "internalType": "bytes",
          "name": "data",
          "type": "bytes"
        }
      ],
      "name": "safeTransferFrom",
      "outputs": [],
      "stateMutability": "nonpayable",
      "type": "function"
    },
    {
      "inputs": [
        {
          "internalType": "address",
          "name": "operator",
          "type": "address"
        },
        {
          "internalType": "bool",
          "name": "approved",
          "type": "bool"
        }
      ],
      "name": "setApprovalForAll",
      "outputs": [],
      "stateMutability": "nonpayable",
      "type": "function"
    },
    {
      "inputs": [
        {
          "internalType": "bytes4",
          "name": "interfaceId",
          "type": "bytes4"
        }
      ],
      "name": "supportsInterface",
      "outputs": [
        {
          "internalType": "bool",
          "name": "",
          "type": "bool"
        }
      ],
      "stateMutability": "view",
      "type": "function"
    },
    {
      "inputs": [],
      "name": "symbol",
      "outputs": [
        {
          "internalType": "string",
          "name": "",
          "type": "string"
        }
      ],
      "stateMutability": "view",
      "type": "function"
    },
    {
      "inputs": [
        {
          "internalType": "uint256",
          "name": "index",
          "type": "uint256"
        }
      ],
      "name": "tokenByIndex",
      "outputs": [
        {
          "internalType": "uint256",
          "name": "",
          "type": "uint256"
        }
      ],
      "stateMutability": "view",
      "type": "function"
    },
    {
      "inputs": [
        {
          "internalType": "address",
          "name": "owner",
          "type": "address"
        },
        {
          "internalType": "uint256",
          "name": "index",
          "type": "uint256"
        }
      ],
      "name": "tokenOfOwnerByIndex",
      "outputs": [
        {
          "internalType": "uint256",
          "name": "",
          "type": "uint256"
        }
      ],
      "stateMutability": "view",
      "type": "function"
    },
    {
      "inputs": [],
      "name": "totalSupply",
      "outputs": [
        {
          "internalType": "uint256",
          "name": "",
          "type": "uint256"
        }
      ],
      "stateMutability": "view",
      "type": "function"
    },
    {
      "inputs": [
        {
          "internalType": "address",
          "name": "newOwner",
          "type": "address"
        }
      ],
      "name": "transferOwnership",
      "outputs": [],
      "stateMutability": "nonpayable",
      "type": "function"
    },
    {
      "inputs": [
        {
          "internalType": "uint16",
          "name": "amount",
          "type": "uint16"
        }
      ],
      "name": "mintNFT",
      "outputs": [],
      "stateMutability": "payable",
      "type": "function"
    },
    {
      "inputs": [],
      "name": "mintableAmount",
      "outputs": [
        {
          "internalType": "string",
          "name": "text",
          "type": "string"
        }
      ],
      "stateMutability": "view",
      "type": "function"
    },
    {
      "inputs": [
        {
          "internalType": "uint256",
          "name": "_tokenId",
          "type": "uint256"
        }
      ],
      "name": "tokenURI",
      "outputs": [
        {
          "internalType": "string",
          "name": "",
          "type": "string"
        }
      ],
      "stateMutability": "view",
      "type": "function"
    },
    {
      "inputs": [
        {
          "internalType": "address",
          "name": "_owner",
          "type": "address"
        }
      ],
      "name": "getNFTs",
      "outputs": [
        {
          "internalType": "uint256[]",
          "name": "",
          "type": "uint256[]"
        }
      ],
      "stateMutability": "view",
      "type": "function"
    },
    {
      "inputs": [
        {
          "internalType": "address",
          "name": "user",
          "type": "address"
        },
        {
          "internalType": "bool",
          "name": "status",
          "type": "bool"
        }
      ],
      "name": "setBlacklist",
      "outputs": [],
      "stateMutability": "nonpayable",
      "type": "function"
    },
    {
      "inputs": [
        {
          "internalType": "address",
          "name": "from",
          "type": "address"
        },
        {
          "internalType": "address",
          "name": "to",
          "type": "address"
        },
        {
          "internalType": "uint256",
          "name": "tokenId",
          "type": "uint256"
        }
      ],
      "name": "transferFrom",
      "outputs": [],
      "stateMutability": "nonpayable",
      "type": "function"
    }
  ],
  "bytecode": "0x60806040523480156200001157600080fd5b506040516200448538038062004485833981810160405281019062000037919062000357565b6040518060400160405280601981526020017f424e4220436861696e204465666920446567656e20436c7562000000000000008152506040518060400160405280600481526020017f4244444300000000000000000000000000000000000000000000000000000000815250620000c3620000b76200017160201b60201c565b6200017960201b60201c565b8160019080519060200190620000db9291906200023d565b508060029080519060200190620000f49291906200023d565b5050506040518060800160405280605181526020016200443460519139600b9080519060200190620001289291906200023d565b5080600c60006101000a81548173ffffffffffffffffffffffffffffffffffffffff021916908373ffffffffffffffffffffffffffffffffffffffff16021790555050620003ee565b600033905090565b60008060009054906101000a900473ffffffffffffffffffffffffffffffffffffffff169050816000806101000a81548173ffffffffffffffffffffffffffffffffffffffff021916908373ffffffffffffffffffffffffffffffffffffffff1602179055508173ffffffffffffffffffffffffffffffffffffffff168173ffffffffffffffffffffffffffffffffffffffff167f8be0079c531659141344cd1fd0a4f28419497f9722a3daafe3b4186f6b6457e060405160405180910390a35050565b8280546200024b90620003b8565b90600052602060002090601f0160209004810192826200026f5760008555620002bb565b82601f106200028a57805160ff1916838001178555620002bb565b82800160010185558215620002bb579182015b82811115620002ba5782518255916020019190600101906200029d565b5b509050620002ca9190620002ce565b5090565b5b80821115620002e9576000816000905550600101620002cf565b5090565b600080fd5b600073ffffffffffffffffffffffffffffffffffffffff82169050919050565b60006200031f82620002f2565b9050919050565b620003318162000312565b81146200033d57600080fd5b50565b600081519050620003518162000326565b92915050565b60006020828403121562000370576200036f620002ed565b5b6000620003808482850162000340565b91505092915050565b7f4e487b7100000000000000000000000000000000000000000000000000000000600052602260045260246000fd5b60006002820490506001821680620003d157607f821691505b60208210811415620003e857620003e762000389565b5b50919050565b61403680620003fe6000396000f3fe60806040526004361061019c5760003560e01c806370a08231116100ec578063a39e9a2f1161008a578063c87b56dd11610064578063c87b56dd146105cd578063e985e9c51461060a578063f2fde38b14610647578063f9f92be4146106705761019c565b8063a39e9a2f1461055d578063ae3baf4d14610579578063b88d4fde146105a45761019c565b80638da5cb5b116100c65780638da5cb5b146104b357806395d89b41146104de5780639dfde20114610509578063a22cb465146105345761019c565b806370a0823114610422578063715018a61461045f57806382183fb0146104765761019c565b806318160ddd1161015957806340de9f8d1161013357806340de9f8d1461035457806342842e0e1461037f5780634f6ccce7146103a85780636352211e146103e55761019c565b806318160ddd146102c357806323b872dd146102ee5780632f745c59146103175761019c565b806301ffc9a7146101a157806303ee438c146101de57806306fdde0314610209578063081812fc14610234578063095ea7b314610271578063153b0d1e1461029a575b600080fd5b3480156101ad57600080fd5b506101c860048036038101906101c39190612973565b6106ad565b6040516101d591906129bb565b60405180910390f35b3480156101ea57600080fd5b506101f3610727565b6040516102009190612a6f565b60405180910390f35b34801561021557600080fd5b5061021e6107b5565b60405161022b9190612a6f565b60405180910390f35b34801561024057600080fd5b5061025b60048036038101906102569190612ac7565b610847565b6040516102689190612b35565b60405180910390f35b34801561027d57600080fd5b5061029860048036038101906102939190612b7c565b61088d565b005b3480156102a657600080fd5b506102c160048036038101906102bc9190612be8565b6109a5565b005b3480156102cf57600080fd5b506102d8610a41565b6040516102e59190612c37565b60405180910390f35b3480156102fa57600080fd5b5061031560048036038101906103109190612c52565b610a4e565b005b34801561032357600080fd5b5061033e60048036038101906103399190612b7c565b610b97565b60405161034b9190612c37565b60405180910390f35b34801561036057600080fd5b50610369610c3c565b6040516103769190612c37565b60405180910390f35b34801561038b57600080fd5b506103a660048036038101906103a19190612c52565b610c41565b005b3480156103b457600080fd5b506103cf60048036038101906103ca9190612ac7565b610c61565b6040516103dc9190612c37565b60405180910390f35b3480156103f157600080fd5b5061040c60048036038101906104079190612ac7565b610cd2565b6040516104199190612b35565b60405180910390f35b34801561042e57600080fd5b5061044960048036038101906104449190612ca5565b610d59565b6040516104569190612c37565b60405180910390f35b34801561046b57600080fd5b50610474610e11565b005b34801561048257600080fd5b5061049d60048036038101906104989190612ca5565b610e25565b6040516104aa9190612d90565b60405180910390f35b3480156104bf57600080fd5b506104c8610f20565b6040516104d59190612b35565b60405180910390f35b3480156104ea57600080fd5b506104f3610f49565b6040516105009190612a6f565b60405180910390f35b34801561051557600080fd5b5061051e610fdb565b60405161052b9190612c37565b60405180910390f35b34801561054057600080fd5b5061055b60048036038101906105569190612be8565b610fe6565b005b61057760048036038101906105729190612dec565b610ffc565b005b34801561058557600080fd5b5061058e61118f565b60405161059b9190612a6f565b60405180910390f35b3480156105b057600080fd5b506105cb60048036038101906105c69190612f4e565b6111d7565b005b3480156105d957600080fd5b506105f460048036038101906105ef9190612ac7565b611239565b6040516106019190612a6f565b60405180910390f35b34801561061657600080fd5b50610631600480360381019061062c9190612fd1565b611279565b60405161063e91906129bb565b60405180910390f35b34801561065357600080fd5b5061066e60048036038101906106699190612ca5565b61130d565b005b34801561067c57600080fd5b5061069760048036038101906106929190612ca5565b611391565b6040516106a491906129bb565b60405180910390f35b60007f780e9d63000000000000000000000000000000000000000000000000000000007bffffffffffffffffffffffffffffffffffffffffffffffffffffffff1916827bffffffffffffffffffffffffffffffffffffffffffffffffffffffff19161480610720575061071f826113b1565b5b9050919050565b600b805461073490613040565b80601f016020809104026020016040519081016040528092919081815260200182805461076090613040565b80156107ad5780601f10610782576101008083540402835291602001916107ad565b820191906000526020600020905b81548152906001019060200180831161079057829003601f168201915b505050505081565b6060600180546107c490613040565b80601f01602080910402602001604051908101604052809291908181526020018280546107f090613040565b801561083d5780601f106108125761010080835404028352916020019161083d565b820191906000526020600020905b81548152906001019060200180831161082057829003601f168201915b5050505050905090565b600061085282611493565b6005600083815260200190815260200160002060009054906101000a900473ffffffffffffffffffffffffffffffffffffffff169050919050565b600061089882610cd2565b90508073ffffffffffffffffffffffffffffffffffffffff168373ffffffffffffffffffffffffffffffffffffffff161415610909576040517f08c379a0000000000000000000000000000000000000000000000000000000008152600401610900906130e4565b60405180910390fd5b8073ffffffffffffffffffffffffffffffffffffffff166109286114de565b73ffffffffffffffffffffffffffffffffffffffff1614806109575750610956816109516114de565b611279565b5b610996576040517f08c379a000000000000000000000000000000000000000000000000000000000815260040161098d90613176565b60405180910390fd5b6109a083836114e6565b505050565b6109ad61159f565b80600d60008473ffffffffffffffffffffffffffffffffffffffff1673ffffffffffffffffffffffffffffffffffffffff16815260200190815260200160002060006101000a81548160ff0219169083151502179055507ffed07c88bd5d31bfd0ce77ed7ffdc74a163a61cfc5edcec801e3a7954e33d6e78282604051610a35929190613196565b60405180910390a15050565b6000600980549050905090565b600d60003373ffffffffffffffffffffffffffffffffffffffff1673ffffffffffffffffffffffffffffffffffffffff16815260200190815260200160002060009054906101000a900460ff16158015610af25750600d60008473ffffffffffffffffffffffffffffffffffffffff1673ffffffffffffffffffffffffffffffffffffffff16815260200190815260200160002060009054906101000a900460ff16155b8015610b485750600d60008373ffffffffffffffffffffffffffffffffffffffff1673ffffffffffffffffffffffffffffffffffffffff16815260200190815260200160002060009054906101000a900460ff16155b610b87576040517f08c379a0000000000000000000000000000000000000000000000000000000008152600401610b7e9061320b565b60405180910390fd5b610b9283838361161d565b505050565b6000610ba283610d59565b8210610be3576040517f08c379a0000000000000000000000000000000000000000000000000000000008152600401610bda9061329d565b60405180910390fd5b600760008473ffffffffffffffffffffffffffffffffffffffff1673ffffffffffffffffffffffffffffffffffffffff168152602001908152602001600020600083815260200190815260200160002054905092915050565b606481565b610c5c838383604051806020016040528060008152506111d7565b505050565b6000610c6b610a41565b8210610cac576040517f08c379a0000000000000000000000000000000000000000000000000000000008152600401610ca39061332f565b60405180910390fd5b60098281548110610cc057610cbf61334f565b5b90600052602060002001549050919050565b600080610cde8361167d565b9050600073ffffffffffffffffffffffffffffffffffffffff168173ffffffffffffffffffffffffffffffffffffffff161415610d50576040517f08c379a0000000000000000000000000000000000000000000000000000000008152600401610d47906133ca565b60405180910390fd5b80915050919050565b60008073ffffffffffffffffffffffffffffffffffffffff168273ffffffffffffffffffffffffffffffffffffffff161415610dca576040517f08c379a0000000000000000000000000000000000000000000000000000000008152600401610dc19061345c565b60405180910390fd5b600460008373ffffffffffffffffffffffffffffffffffffffff1673ffffffffffffffffffffffffffffffffffffffff168152602001908152602001600020549050919050565b610e1961159f565b610e2360006116ba565b565b60606000610e3283610d59565b11610e72576040517f08c379a0000000000000000000000000000000000000000000000000000000008152600401610e69906134c8565b60405180910390fd5b6000610e7d83610d59565b67ffffffffffffffff811115610e9657610e95612e23565b5b604051908082528060200260200182016040528015610ec45781602001602082028036833780820191505090505b50905060005b610ed384610d59565b811015610f1657610ee48482610b97565b828281518110610ef757610ef661334f565b5b6020026020010181815250508080610f0e90613517565b915050610eca565b5080915050919050565b60008060009054906101000a900473ffffffffffffffffffffffffffffffffffffffff16905090565b606060028054610f5890613040565b80601f0160208091040260200160405190810160405280929190818152602001828054610f8490613040565b8015610fd15780601f10610fa657610100808354040283529160200191610fd1565b820191906000526020600020905b815481529060010190602001808311610fb457829003601f168201915b5050505050905090565b66038d7ea4c6800081565b610ff8610ff16114de565b838361177e565b5050565b8061ffff168061100a610a41565b6110149190613560565b60641015611057576040517f08c379a000000000000000000000000000000000000000000000000000000000815260040161104e90613602565b60405180910390fd5b8066038d7ea4c6800061106a9190613622565b3410156110ac576040517f08c379a00000000000000000000000000000000000000000000000000000000081526004016110a3906136c8565b60405180910390fd5b6000600c60009054906101000a900473ffffffffffffffffffffffffffffffffffffffff1673ffffffffffffffffffffffffffffffffffffffff16346040516110f490613719565b60006040518083038185875af1925050503d8060008114611131576040519150601f19603f3d011682016040523d82523d6000602084013e611136565b606091505b505090508061114457600080fd5b60005b8361ffff16811015611189576000600161115f610a41565b6111699190613560565b905061117533826118eb565b50808061118190613517565b915050611147565b50505050565b6060600061119b610a41565b60646111a7919061372e565b90506111b281611b09565b6040516020016111c291906137ea565b60405160208183030381529060405291505090565b6111e86111e26114de565b83611be1565b611227576040517f08c379a000000000000000000000000000000000000000000000000000000000815260040161121e9061387e565b60405180910390fd5b61123384848484611c76565b50505050565b6060600b611252600a8461124d91906138cd565b611b09565b604051602001611263929190613a2a565b6040516020818303038152906040529050919050565b6000600660008473ffffffffffffffffffffffffffffffffffffffff1673ffffffffffffffffffffffffffffffffffffffff16815260200190815260200160002060008373ffffffffffffffffffffffffffffffffffffffff1673ffffffffffffffffffffffffffffffffffffffff16815260200190815260200160002060009054906101000a900460ff16905092915050565b61131561159f565b600073ffffffffffffffffffffffffffffffffffffffff168173ffffffffffffffffffffffffffffffffffffffff161415611385576040517f08c379a000000000000000000000000000000000000000000000000000000000815260040161137c90613ad6565b60405180910390fd5b61138e816116ba565b50565b600d6020528060005260406000206000915054906101000a900460ff1681565b60007f80ac58cd000000000000000000000000000000000000000000000000000000007bffffffffffffffffffffffffffffffffffffffffffffffffffffffff1916827bffffffffffffffffffffffffffffffffffffffffffffffffffffffff1916148061147c57507f5b5e139f000000000000000000000000000000000000000000000000000000007bffffffffffffffffffffffffffffffffffffffffffffffffffffffff1916827bffffffffffffffffffffffffffffffffffffffffffffffffffffffff1916145b8061148c575061148b82611cd2565b5b9050919050565b61149c81611d3c565b6114db576040517f08c379a00000000000000000000000000000000000000000000000000000000081526004016114d2906133ca565b60405180910390fd5b50565b600033905090565b816005600083815260200190815260200160002060006101000a81548173ffffffffffffffffffffffffffffffffffffffff021916908373ffffffffffffffffffffffffffffffffffffffff160217905550808273ffffffffffffffffffffffffffffffffffffffff1661155983610cd2565b73ffffffffffffffffffffffffffffffffffffffff167f8c5be1e5ebec7d5bd14f71427d1e84f3dd0314c0f7b2291e5b200ac8c7c3b92560405160405180910390a45050565b6115a76114de565b73ffffffffffffffffffffffffffffffffffffffff166115c5610f20565b73ffffffffffffffffffffffffffffffffffffffff161461161b576040517f08c379a000000000000000000000000000000000000000000000000000000000815260040161161290613b42565b60405180910390fd5b565b61162e6116286114de565b82611be1565b61166d576040517f08c379a00000000000000000000000000000000000000000000000000000000081526004016116649061387e565b60405180910390fd5b611678838383611d7d565b505050565b60006003600083815260200190815260200160002060009054906101000a900473ffffffffffffffffffffffffffffffffffffffff169050919050565b60008060009054906101000a900473ffffffffffffffffffffffffffffffffffffffff169050816000806101000a81548173ffffffffffffffffffffffffffffffffffffffff021916908373ffffffffffffffffffffffffffffffffffffffff1602179055508173ffffffffffffffffffffffffffffffffffffffff168173ffffffffffffffffffffffffffffffffffffffff167f8be0079c531659141344cd1fd0a4f28419497f9722a3daafe3b4186f6b6457e060405160405180910390a35050565b8173ffffffffffffffffffffffffffffffffffffffff168373ffffffffffffffffffffffffffffffffffffffff1614156117ed576040517f08c379a00000000000000000000000000000000000000000000000000000000081526004016117e490613bae565b60405180910390fd5b80600660008573ffffffffffffffffffffffffffffffffffffffff1673ffffffffffffffffffffffffffffffffffffffff16815260200190815260200160002060008473ffffffffffffffffffffffffffffffffffffffff1673ffffffffffffffffffffffffffffffffffffffff16815260200190815260200160002060006101000a81548160ff0219169083151502179055508173ffffffffffffffffffffffffffffffffffffffff168373ffffffffffffffffffffffffffffffffffffffff167f17307eab39ab6107e8899845ad3d59bd9653f200f220920489ca2b5937696c31836040516118de91906129bb565b60405180910390a3505050565b600073ffffffffffffffffffffffffffffffffffffffff168273ffffffffffffffffffffffffffffffffffffffff16141561195b576040517f08c379a000000000000000000000000000000000000000000000000000000000815260040161195290613c1a565b60405180910390fd5b61196481611d3c565b156119a4576040517f08c379a000000000000000000000000000000000000000000000000000000000815260040161199b90613c86565b60405180910390fd5b6119b2600083836001612077565b6119bb81611d3c565b156119fb576040517f08c379a00000000000000000000000000000000000000000000000000000000081526004016119f290613c86565b60405180910390fd5b6001600460008473ffffffffffffffffffffffffffffffffffffffff1673ffffffffffffffffffffffffffffffffffffffff16815260200190815260200160002060008282540192505081905550816003600083815260200190815260200160002060006101000a81548173ffffffffffffffffffffffffffffffffffffffff021916908373ffffffffffffffffffffffffffffffffffffffff160217905550808273ffffffffffffffffffffffffffffffffffffffff16600073ffffffffffffffffffffffffffffffffffffffff167fddf252ad1be2c89b69c2b068fc378daa952ba7f163c4a11628f55a4df523b3ef60405160405180910390a4611b056000838360016121d7565b5050565b606060006001611b18846121dd565b01905060008167ffffffffffffffff811115611b3757611b36612e23565b5b6040519080825280601f01601f191660200182016040528015611b695781602001600182028036833780820191505090505b509050600082602001820190505b600115611bd6578080600190039150507f3031323334353637383961626364656600000000000000000000000000000000600a86061a8153600a8581611bc057611bbf61389e565b5b0494506000851415611bd157611bd6565b611b77565b819350505050919050565b600080611bed83610cd2565b90508073ffffffffffffffffffffffffffffffffffffffff168473ffffffffffffffffffffffffffffffffffffffff161480611c2f5750611c2e8185611279565b5b80611c6d57508373ffffffffffffffffffffffffffffffffffffffff16611c5584610847565b73ffffffffffffffffffffffffffffffffffffffff16145b91505092915050565b611c81848484611d7d565b611c8d84848484612330565b611ccc576040517f08c379a0000000000000000000000000000000000000000000000000000000008152600401611cc390613d18565b60405180910390fd5b50505050565b60007f01ffc9a7000000000000000000000000000000000000000000000000000000007bffffffffffffffffffffffffffffffffffffffffffffffffffffffff1916827bffffffffffffffffffffffffffffffffffffffffffffffffffffffff1916149050919050565b60008073ffffffffffffffffffffffffffffffffffffffff16611d5e8361167d565b73ffffffffffffffffffffffffffffffffffffffff1614159050919050565b8273ffffffffffffffffffffffffffffffffffffffff16611d9d82610cd2565b73ffffffffffffffffffffffffffffffffffffffff1614611df3576040517f08c379a0000000000000000000000000000000000000000000000000000000008152600401611dea90613daa565b60405180910390fd5b600073ffffffffffffffffffffffffffffffffffffffff168273ffffffffffffffffffffffffffffffffffffffff161415611e63576040517f08c379a0000000000000000000000000000000000000000000000000000000008152600401611e5a90613e3c565b60405180910390fd5b611e708383836001612077565b8273ffffffffffffffffffffffffffffffffffffffff16611e9082610cd2565b73ffffffffffffffffffffffffffffffffffffffff1614611ee6576040517f08c379a0000000000000000000000000000000000000000000000000000000008152600401611edd90613daa565b60405180910390fd5b6005600082815260200190815260200160002060006101000a81549073ffffffffffffffffffffffffffffffffffffffff02191690556001600460008573ffffffffffffffffffffffffffffffffffffffff1673ffffffffffffffffffffffffffffffffffffffff168152602001908152602001600020600082825403925050819055506001600460008473ffffffffffffffffffffffffffffffffffffffff1673ffffffffffffffffffffffffffffffffffffffff16815260200190815260200160002060008282540192505081905550816003600083815260200190815260200160002060006101000a81548173ffffffffffffffffffffffffffffffffffffffff021916908373ffffffffffffffffffffffffffffffffffffffff160217905550808273ffffffffffffffffffffffffffffffffffffffff168473ffffffffffffffffffffffffffffffffffffffff167fddf252ad1be2c89b69c2b068fc378daa952ba7f163c4a11628f55a4df523b3ef60405160405180910390a461207283838360016121d7565b505050565b612083848484846124b8565b60018111156120c7576040517f08c379a00000000000000000000000000000000000000000000000000000000081526004016120be90613ece565b60405180910390fd5b6000829050600073ffffffffffffffffffffffffffffffffffffffff168573ffffffffffffffffffffffffffffffffffffffff16141561210f5761210a816125de565b61214e565b8373ffffffffffffffffffffffffffffffffffffffff168573ffffffffffffffffffffffffffffffffffffffff161461214d5761214c8582612627565b5b5b600073ffffffffffffffffffffffffffffffffffffffff168473ffffffffffffffffffffffffffffffffffffffff1614156121915761218c81612794565b6121d0565b8473ffffffffffffffffffffffffffffffffffffffff168473ffffffffffffffffffffffffffffffffffffffff16146121cf576121ce8482612865565b5b5b5050505050565b50505050565b600080600090507a184f03e93ff9f4daa797ed6e38ed64bf6a1f010000000000000000831061223b577a184f03e93ff9f4daa797ed6e38ed64bf6a1f01000000000000000083816122315761223061389e565b5b0492506040810190505b6d04ee2d6d415b85acef81000000008310612278576d04ee2d6d415b85acef8100000000838161226e5761226d61389e565b5b0492506020810190505b662386f26fc1000083106122a757662386f26fc10000838161229d5761229c61389e565b5b0492506010810190505b6305f5e10083106122d0576305f5e10083816122c6576122c561389e565b5b0492506008810190505b61271083106122f55761271083816122eb576122ea61389e565b5b0492506004810190505b60648310612318576064838161230e5761230d61389e565b5b0492506002810190505b600a8310612327576001810190505b80915050919050565b60006123518473ffffffffffffffffffffffffffffffffffffffff166128e4565b156124ab578373ffffffffffffffffffffffffffffffffffffffff1663150b7a0261237a6114de565b8786866040518563ffffffff1660e01b815260040161239c9493929190613f43565b6020604051808303816000875af19250505080156123d857506040513d601f19601f820116820180604052508101906123d59190613fa4565b60015b61245b573d8060008114612408576040519150601f19603f3d011682016040523d82523d6000602084013e61240d565b606091505b50600081511415612453576040517f08c379a000000000000000000000000000000000000000000000000000000000815260040161244a90613d18565b60405180910390fd5b805181602001fd5b63150b7a0260e01b7bffffffffffffffffffffffffffffffffffffffffffffffffffffffff1916817bffffffffffffffffffffffffffffffffffffffffffffffffffffffff1916149150506124b0565b600190505b949350505050565b60018111156125d857600073ffffffffffffffffffffffffffffffffffffffff168473ffffffffffffffffffffffffffffffffffffffff161461254c5780600460008673ffffffffffffffffffffffffffffffffffffffff1673ffffffffffffffffffffffffffffffffffffffff1681526020019081526020016000206000828254612544919061372e565b925050819055505b600073ffffffffffffffffffffffffffffffffffffffff168373ffffffffffffffffffffffffffffffffffffffff16146125d75780600460008573ffffffffffffffffffffffffffffffffffffffff1673ffffffffffffffffffffffffffffffffffffffff16815260200190815260200160002060008282546125cf9190613560565b925050819055505b5b50505050565b600980549050600a600083815260200190815260200160002081905550600981908060018154018082558091505060019003906000526020600020016000909190919091505550565b6000600161263484610d59565b61263e919061372e565b9050600060086000848152602001908152602001600020549050818114612723576000600760008673ffffffffffffffffffffffffffffffffffffffff1673ffffffffffffffffffffffffffffffffffffffff168152602001908152602001600020600084815260200190815260200160002054905080600760008773ffffffffffffffffffffffffffffffffffffffff1673ffffffffffffffffffffffffffffffffffffffff168152602001908152602001600020600084815260200190815260200160002081905550816008600083815260200190815260200160002081905550505b6008600084815260200190815260200160002060009055600760008573ffffffffffffffffffffffffffffffffffffffff1673ffffffffffffffffffffffffffffffffffffffff16815260200190815260200160002060008381526020019081526020016000206000905550505050565b600060016009805490506127a8919061372e565b90506000600a60008481526020019081526020016000205490506000600983815481106127d8576127d761334f565b5b9060005260206000200154905080600983815481106127fa576127f961334f565b5b906000526020600020018190555081600a600083815260200190815260200160002081905550600a600085815260200190815260200160002060009055600980548061284957612848613fd1565b5b6001900381819060005260206000200160009055905550505050565b600061287083610d59565b905081600760008573ffffffffffffffffffffffffffffffffffffffff1673ffffffffffffffffffffffffffffffffffffffff168152602001908152602001600020600083815260200190815260200160002081905550806008600084815260200190815260200160002081905550505050565b6000808273ffffffffffffffffffffffffffffffffffffffff163b119050919050565b6000604051905090565b600080fd5b600080fd5b60007fffffffff0000000000000000000000000000000000000000000000000000000082169050919050565b6129508161291b565b811461295b57600080fd5b50565b60008135905061296d81612947565b92915050565b60006020828403121561298957612988612911565b5b60006129978482850161295e565b91505092915050565b60008115159050919050565b6129b5816129a0565b82525050565b60006020820190506129d060008301846129ac565b92915050565b600081519050919050565b600082825260208201905092915050565b60005b83811015612a105780820151818401526020810190506129f5565b83811115612a1f576000848401525b50505050565b6000601f19601f8301169050919050565b6000612a41826129d6565b612a4b81856129e1565b9350612a5b8185602086016129f2565b612a6481612a25565b840191505092915050565b60006020820190508181036000830152612a898184612a36565b905092915050565b6000819050919050565b612aa481612a91565b8114612aaf57600080fd5b50565b600081359050612ac181612a9b565b92915050565b600060208284031215612add57612adc612911565b5b6000612aeb84828501612ab2565b91505092915050565b600073ffffffffffffffffffffffffffffffffffffffff82169050919050565b6000612b1f82612af4565b9050919050565b612b2f81612b14565b82525050565b6000602082019050612b4a6000830184612b26565b92915050565b612b5981612b14565b8114612b6457600080fd5b50565b600081359050612b7681612b50565b92915050565b60008060408385031215612b9357612b92612911565b5b6000612ba185828601612b67565b9250506020612bb285828601612ab2565b9150509250929050565b612bc5816129a0565b8114612bd057600080fd5b50565b600081359050612be281612bbc565b92915050565b60008060408385031215612bff57612bfe612911565b5b6000612c0d85828601612b67565b9250506020612c1e85828601612bd3565b9150509250929050565b612c3181612a91565b82525050565b6000602082019050612c4c6000830184612c28565b92915050565b600080600060608486031215612c6b57612c6a612911565b5b6000612c7986828701612b67565b9350506020612c8a86828701612b67565b9250506040612c9b86828701612ab2565b9150509250925092565b600060208284031215612cbb57612cba612911565b5b6000612cc984828501612b67565b91505092915050565b600081519050919050565b600082825260208201905092915050565b6000819050602082019050919050565b612d0781612a91565b82525050565b6000612d198383612cfe565b60208301905092915050565b6000602082019050919050565b6000612d3d82612cd2565b612d478185612cdd565b9350612d5283612cee565b8060005b83811015612d83578151612d6a8882612d0d565b9750612d7583612d25565b925050600181019050612d56565b5085935050505092915050565b60006020820190508181036000830152612daa8184612d32565b905092915050565b600061ffff82169050919050565b612dc981612db2565b8114612dd457600080fd5b50565b600081359050612de681612dc0565b92915050565b600060208284031215612e0257612e01612911565b5b6000612e1084828501612dd7565b91505092915050565b600080fd5b600080fd5b7f4e487b7100000000000000000000000000000000000000000000000000000000600052604160045260246000fd5b612e5b82612a25565b810181811067ffffffffffffffff82111715612e7a57612e79612e23565b5b80604052505050565b6000612e8d612907565b9050612e998282612e52565b919050565b600067ffffffffffffffff821115612eb957612eb8612e23565b5b612ec282612a25565b9050602081019050919050565b82818337600083830152505050565b6000612ef1612eec84612e9e565b612e83565b905082815260208101848484011115612f0d57612f0c612e1e565b5b612f18848285612ecf565b509392505050565b600082601f830112612f3557612f34612e19565b5b8135612f45848260208601612ede565b91505092915050565b60008060008060808587031215612f6857612f67612911565b5b6000612f7687828801612b67565b9450506020612f8787828801612b67565b9350506040612f9887828801612ab2565b925050606085013567ffffffffffffffff811115612fb957612fb8612916565b5b612fc587828801612f20565b91505092959194509250565b60008060408385031215612fe857612fe7612911565b5b6000612ff685828601612b67565b925050602061300785828601612b67565b9150509250929050565b7f4e487b7100000000000000000000000000000000000000000000000000000000600052602260045260246000fd5b6000600282049050600182168061305857607f821691505b6020821081141561306c5761306b613011565b5b50919050565b7f4552433732313a20617070726f76616c20746f2063757272656e74206f776e6560008201527f7200000000000000000000000000000000000000000000000000000000000000602082015250565b60006130ce6021836129e1565b91506130d982613072565b604082019050919050565b600060208201905081810360008301526130fd816130c1565b9050919050565b7f4552433732313a20617070726f76652063616c6c6572206973206e6f7420746f60008201527f6b656e206f776e6572206f7220617070726f76656420666f7220616c6c000000602082015250565b6000613160603d836129e1565b915061316b82613104565b604082019050919050565b6000602082019050818103600083015261318f81613153565b9050919050565b60006040820190506131ab6000830185612b26565b6131b860208301846129ac565b9392505050565b7f424c41434b4c4953540000000000000000000000000000000000000000000000600082015250565b60006131f56009836129e1565b9150613200826131bf565b602082019050919050565b60006020820190508181036000830152613224816131e8565b9050919050565b7f455243373231456e756d657261626c653a206f776e657220696e646578206f7560008201527f74206f6620626f756e6473000000000000000000000000000000000000000000602082015250565b6000613287602b836129e1565b91506132928261322b565b604082019050919050565b600060208201905081810360008301526132b68161327a565b9050919050565b7f455243373231456e756d657261626c653a20676c6f62616c20696e646578206f60008201527f7574206f6620626f756e64730000000000000000000000000000000000000000602082015250565b6000613319602c836129e1565b9150613324826132bd565b604082019050919050565b600060208201905081810360008301526133488161330c565b9050919050565b7f4e487b7100000000000000000000000000000000000000000000000000000000600052603260045260246000fd5b7f4552433732313a20696e76616c696420746f6b656e2049440000000000000000600082015250565b60006133b46018836129e1565b91506133bf8261337e565b602082019050919050565b600060208201905081810360008301526133e3816133a7565b9050919050565b7f4552433732313a2061646472657373207a65726f206973206e6f74206120766160008201527f6c6964206f776e65720000000000000000000000000000000000000000000000602082015250565b60006134466029836129e1565b9150613451826133ea565b604082019050919050565b6000602082019050818103600083015261347581613439565b9050919050565b7f4f776e657220646f6573206e6f742068617665204e46542e0000000000000000600082015250565b60006134b26018836129e1565b91506134bd8261347c565b602082019050919050565b600060208201905081810360008301526134e1816134a5565b9050919050565b7f4e487b7100000000000000000000000000000000000000000000000000000000600052601160045260246000fd5b600061352282612a91565b91507fffffffffffffffffffffffffffffffffffffffffffffffffffffffffffffffff821415613555576135546134e8565b5b600182019050919050565b600061356b82612a91565b915061357683612a91565b9250827fffffffffffffffffffffffffffffffffffffffffffffffffffffffffffffffff038211156135ab576135aa6134e8565b5b828201905092915050565b7f4e6f206d6f7265206d696e742e00000000000000000000000000000000000000600082015250565b60006135ec600d836129e1565b91506135f7826135b6565b602082019050919050565b6000602082019050818103600083015261361b816135df565b9050919050565b600061362d82612a91565b915061363883612a91565b9250817fffffffffffffffffffffffffffffffffffffffffffffffffffffffffffffffff0483118215151615613671576136706134e8565b5b828202905092915050565b7f4e6f7420656e6f75676820424e422070726f76696465642e0000000000000000600082015250565b60006136b26018836129e1565b91506136bd8261367c565b602082019050919050565b600060208201905081810360008301526136e1816136a5565b9050919050565b600081905092915050565b50565b60006137036000836136e8565b915061370e826136f3565b600082019050919050565b6000613724826136f6565b9150819050919050565b600061373982612a91565b915061374483612a91565b925082821015613757576137566134e8565b5b828203905092915050565b600081905092915050565b7f416d6f756e74206f66206d696e7461626c652069732000000000000000000000600082015250565b60006137a3601683613762565b91506137ae8261376d565b601682019050919050565b60006137c4826129d6565b6137ce8185613762565b93506137de8185602086016129f2565b80840191505092915050565b60006137f582613796565b915061380182846137b9565b915081905092915050565b7f4552433732313a2063616c6c6572206973206e6f7420746f6b656e206f776e6560008201527f72206f7220617070726f76656400000000000000000000000000000000000000602082015250565b6000613868602d836129e1565b91506138738261380c565b604082019050919050565b600060208201905081810360008301526138978161385b565b9050919050565b7f4e487b7100000000000000000000000000000000000000000000000000000000600052601260045260246000fd5b60006138d882612a91565b91506138e383612a91565b9250826138f3576138f261389e565b5b828206905092915050565b60008190508160005260206000209050919050565b6000815461392081613040565b61392a8186613762565b94506001821660008114613945576001811461395657613989565b60ff19831686528186019350613989565b61395f856138fe565b60005b8381101561398157815481890152600182019150602081019050613962565b838801955050505b50505092915050565b7f2f00000000000000000000000000000000000000000000000000000000000000600082015250565b60006139c8600183613762565b91506139d382613992565b600182019050919050565b7f2e6a736f6e000000000000000000000000000000000000000000000000000000600082015250565b6000613a14600583613762565b9150613a1f826139de565b600582019050919050565b6000613a368285613913565b9150613a41826139bb565b9150613a4d82846137b9565b9150613a5882613a07565b91508190509392505050565b7f4f776e61626c653a206e6577206f776e657220697320746865207a65726f206160008201527f6464726573730000000000000000000000000000000000000000000000000000602082015250565b6000613ac06026836129e1565b9150613acb82613a64565b604082019050919050565b60006020820190508181036000830152613aef81613ab3565b9050919050565b7f4f776e61626c653a2063616c6c6572206973206e6f7420746865206f776e6572600082015250565b6000613b2c6020836129e1565b9150613b3782613af6565b602082019050919050565b60006020820190508181036000830152613b5b81613b1f565b9050919050565b7f4552433732313a20617070726f766520746f2063616c6c657200000000000000600082015250565b6000613b986019836129e1565b9150613ba382613b62565b602082019050919050565b60006020820190508181036000830152613bc781613b8b565b9050919050565b7f4552433732313a206d696e7420746f20746865207a65726f2061646472657373600082015250565b6000613c046020836129e1565b9150613c0f82613bce565b602082019050919050565b60006020820190508181036000830152613c3381613bf7565b9050919050565b7f4552433732313a20746f6b656e20616c7265616479206d696e74656400000000600082015250565b6000613c70601c836129e1565b9150613c7b82613c3a565b602082019050919050565b60006020820190508181036000830152613c9f81613c63565b9050919050565b7f4552433732313a207472616e7366657220746f206e6f6e20455243373231526560008201527f63656976657220696d706c656d656e7465720000000000000000000000000000602082015250565b6000613d026032836129e1565b9150613d0d82613ca6565b604082019050919050565b60006020820190508181036000830152613d3181613cf5565b9050919050565b7f4552433732313a207472616e736665722066726f6d20696e636f72726563742060008201527f6f776e6572000000000000000000000000000000000000000000000000000000602082015250565b6000613d946025836129e1565b9150613d9f82613d38565b604082019050919050565b60006020820190508181036000830152613dc381613d87565b9050919050565b7f4552433732313a207472616e7366657220746f20746865207a65726f2061646460008201527f7265737300000000000000000000000000000000000000000000000000000000602082015250565b6000613e266024836129e1565b9150613e3182613dca565b604082019050919050565b60006020820190508181036000830152613e5581613e19565b9050919050565b7f455243373231456e756d657261626c653a20636f6e736563757469766520747260008201527f616e7366657273206e6f7420737570706f727465640000000000000000000000602082015250565b6000613eb86035836129e1565b9150613ec382613e5c565b604082019050919050565b60006020820190508181036000830152613ee781613eab565b9050919050565b600081519050919050565b600082825260208201905092915050565b6000613f1582613eee565b613f1f8185613ef9565b9350613f2f8185602086016129f2565b613f3881612a25565b840191505092915050565b6000608082019050613f586000830187612b26565b613f656020830186612b26565b613f726040830185612c28565b8181036060830152613f848184613f0a565b905095945050505050565b600081519050613f9e81612947565b92915050565b600060208284031215613fba57613fb9612911565b5b6000613fc884828501613f8f565b91505092915050565b7f4e487b7100000000000000000000000000000000000000000000000000000000600052603160045260246000fdfea2646970667358221220881beb64484eb14ba4d7309d729e3783dcdb266ef2f1933ba33df5e64782120f64736f6c634300080a003368747470733a2f2f676174657761792e70696e6174612e636c6f75642f697066732f516d576439337934327965347a4b4143313951546344486b787a6f6542666353756d4c4464464550764a4a6b646b2f",
  "immutableReferences": {},
  "source": "// SPDX-License-Identifier: MIT\r\n\r\npragma solidity ^0.8.7;\r\n\r\nimport \"../node_modules/@openzeppelin/contracts/token/ERC721/extensions/ERC721Enumerable.sol\";\r\nimport \"../node_modules/@openzeppelin/contracts/token/ERC721/ERC721.sol\";\r\nimport \"../node_modules/@openzeppelin/contracts/access/Ownable.sol\";\r\nimport \"../node_modules/@openzeppelin/contracts/utils/Strings.sol\";\r\n\r\ncontract BDDCMint is Ownable, ERC721Enumerable {\r\n    string public metadataURI;\r\n    uint constant public TOTAL_NFT = 100;\r\n    uint constant public Price = 0.001 ether;\r\n    address payable payments;\r\n    event SetBlacklist(address user, bool status);\r\n    mapping(address => bool) public blacklist;\r\n\r\n    constructor(address _payments) ERC721(\"BNB Chain Defi Degen Club\", \"BDDC\"){\r\n        // metadataURI = _metadataURI;\r\n        metadataURI = \"https://gateway.pinata.cloud/ipfs/QmWd93y42ye4zKAC19QTcDHkxzoeBfcSumLDdFEPvJJkdk/\";\r\n        payments = payable(_payments);\r\n    }\r\n    \r\n    modifier costs (uint amount) {\r\n        require(TOTAL_NFT >= totalSupply() + amount, \"No more mint.\");\r\n        require(msg.value >= Price*amount, \"Not enough BNB provided.\");\r\n        _;\r\n    }\r\n\r\n    function mintNFT(uint16 amount) public payable costs(amount) {\r\n        (bool success, ) = payable(payments).call{value: msg.value}(\"\");\r\n        require(success);\r\n        for(uint i = 0; i < amount; i++) {\r\n            uint tokenId = totalSupply() + 1;\r\n            _mint(msg.sender, tokenId);\r\n        }\r\n    }\r\n\r\n    function mintableAmount() public view returns(string memory text) {\r\n        uint mintable = TOTAL_NFT - totalSupply();\r\n        text = string(abi.encodePacked(\"Amount of mintable is \", Strings.toString(mintable)));\r\n    }\r\n    \r\n    function tokenURI(uint _tokenId) public override view returns(string memory) {\r\n        return string(abi.encodePacked(metadataURI, '/', Strings.toString(_tokenId%10), '.json'));\r\n    }\r\n\r\n    function getNFTs(address _owner) public view returns(uint[] memory) {\r\n        require(balanceOf(_owner) > 0, \"Owner does not have NFT.\");\r\n        uint[] memory myNFTs = new uint[](balanceOf(_owner));\r\n        \r\n        for(uint i = 0; i < balanceOf(_owner); i++) {\r\n            myNFTs[i] = tokenOfOwnerByIndex(_owner, i); \r\n        }\r\n \r\n        return myNFTs;\r\n    }\r\n\r\n    function setBlacklist(address user, bool status) external onlyOwner {\r\n        blacklist[user] = status;\r\n        emit SetBlacklist(user, status);\r\n    }\r\n\r\n    function transferFrom(\r\n        address from,\r\n        address to,\r\n        uint256 tokenId\r\n    ) public override(ERC721) {\r\n        require(!blacklist[msg.sender] && !blacklist[from] && !blacklist[to], \"BLACKLIST\");\r\n        super.transferFrom(from, to, tokenId);\r\n    }\r\n}",
  "sourcePath": "C:\\Users\\IkSu\\Desktop\\study\\study\\workspace\\BDDC_Project\\contracts\\BDDCMint.sol",
  "compiler": {
    "name": "solc",
    "version": "0.8.10+commit.fc410830.Emscripten.clang"
  },
  "schemaVersion": "3.4.11",
  "updatedAt": "2022-12-18T14:34:05.928Z",
  "devdoc": {
    "kind": "dev",
    "methods": {
      "approve(address,uint256)": {
        "details": "See {IERC721-approve}."
      },
      "balanceOf(address)": {
        "details": "See {IERC721-balanceOf}."
      },
      "getApproved(uint256)": {
        "details": "See {IERC721-getApproved}."
      },
      "isApprovedForAll(address,address)": {
        "details": "See {IERC721-isApprovedForAll}."
      },
      "name()": {
        "details": "See {IERC721Metadata-name}."
      },
      "owner()": {
        "details": "Returns the address of the current owner."
      },
      "ownerOf(uint256)": {
        "details": "See {IERC721-ownerOf}."
      },
      "renounceOwnership()": {
        "details": "Leaves the contract without owner. It will not be possible to call `onlyOwner` functions anymore. Can only be called by the current owner. NOTE: Renouncing ownership will leave the contract without an owner, thereby removing any functionality that is only available to the owner."
      },
      "safeTransferFrom(address,address,uint256)": {
        "details": "See {IERC721-safeTransferFrom}."
      },
      "safeTransferFrom(address,address,uint256,bytes)": {
        "details": "See {IERC721-safeTransferFrom}."
      },
      "setApprovalForAll(address,bool)": {
        "details": "See {IERC721-setApprovalForAll}."
      },
      "supportsInterface(bytes4)": {
        "details": "See {IERC165-supportsInterface}."
      },
      "symbol()": {
        "details": "See {IERC721Metadata-symbol}."
      },
      "tokenByIndex(uint256)": {
        "details": "See {IERC721Enumerable-tokenByIndex}."
      },
      "tokenOfOwnerByIndex(address,uint256)": {
        "details": "See {IERC721Enumerable-tokenOfOwnerByIndex}."
      },
      "totalSupply()": {
        "details": "See {IERC721Enumerable-totalSupply}."
      },
      "transferFrom(address,address,uint256)": {
        "details": "See {IERC721-transferFrom}."
      },
      "transferOwnership(address)": {
        "details": "Transfers ownership of the contract to a new account (`newOwner`). Can only be called by the current owner."
      }
    },
    "version": 1
  },
  "userdoc": {
    "kind": "user",
    "methods": {},
    "version": 1
  }
}