{
  "contractName": "BDDCGame",
  "abi": [
    {
      "inputs": [
        {
          "internalType": "address",
          "name": "_payments",
          "type": "address"
        }
      ],
      "stateMutability": "nonpayable",
      "type": "constructor"
    },
    {
      "inputs": [],
      "name": "insertCoin",
      "outputs": [],
      "stateMutability": "payable",
      "type": "function"
    }
  ],
  "bytecode": "0x608060405266038d7ea4c6800060015534801561001b57600080fd5b50604051610327380380610327833981810160405281019061003d91906100e6565b806000806101000a81548173ffffffffffffffffffffffffffffffffffffffff021916908373ffffffffffffffffffffffffffffffffffffffff16021790555050610113565b600080fd5b600073ffffffffffffffffffffffffffffffffffffffff82169050919050565b60006100b382610088565b9050919050565b6100c3816100a8565b81146100ce57600080fd5b50565b6000815190506100e0816100ba565b92915050565b6000602082840312156100fc576100fb610083565b5b600061010a848285016100d1565b91505092915050565b610205806101226000396000f3fe60806040526004361061001e5760003560e01c806390696af914610023575b600080fd5b61002b61002d565b005b600154341015610072576040517f08c379a000000000000000000000000000000000000000000000000000000000815260040161006990610169565b60405180910390fd5b60008060009054906101000a900473ffffffffffffffffffffffffffffffffffffffff1673ffffffffffffffffffffffffffffffffffffffff16346040516100b9906101ba565b60006040518083038185875af1925050503d80600081146100f6576040519150601f19603f3d011682016040523d82523d6000602084013e6100fb565b606091505b505090508061010957600080fd5b50565b600082825260208201905092915050565b7f4e6f7420656e6f75676820424e422070726f76696465642e0000000000000000600082015250565b600061015360188361010c565b915061015e8261011d565b602082019050919050565b6000602082019050818103600083015261018281610146565b9050919050565b600081905092915050565b50565b60006101a4600083610189565b91506101af82610194565b600082019050919050565b60006101c582610197565b915081905091905056fea2646970667358221220c9b0d6ec9d2f373a99263153b8e0586a9bfec569abbc76c67a2d54bf8a250da364736f6c634300080a0033",
  "immutableReferences": {},
  "source": "// SPDX-License-Identifier: MIT\r\n\r\npragma solidity ^0.8.7;\r\n\r\nimport \"../node_modules/@openzeppelin/contracts/token/ERC721/extensions/ERC721Enumerable.sol\";\r\nimport \"../node_modules/@openzeppelin/contracts/access/Ownable.sol\";\r\n\r\ncontract BDDCGame {\r\n    address payable payments;\r\n    uint gamePee = 0.001 ether;\r\n\r\n    constructor(address _payments) {\r\n        payments = payable(_payments);\r\n    }\r\n    \r\n    modifier costs () {\r\n        require(msg.value >= gamePee, \"Not enough BNB provided.\");\r\n        _;\r\n    }\r\n\r\n    function insertCoin() public payable costs(){\r\n        (bool success, ) = payable(payments).call{value: msg.value}(\"\");\r\n        require(success);\r\n    }\r\n}",
  "sourcePath": "C:\\Users\\IkSu\\Desktop\\study\\study\\workspace\\BDDC_Project\\contracts\\BDDCGame.sol",
  "compiler": {
    "name": "solc",
    "version": "0.8.10+commit.fc410830.Emscripten.clang"
  },
  "schemaVersion": "3.4.11",
  "updatedAt": "2022-12-18T14:34:05.923Z",
  "devdoc": {
    "kind": "dev",
    "methods": {},
    "version": 1
  },
  "userdoc": {
    "kind": "user",
    "methods": {},
    "version": 1
  }
}