{
  "contractName": "DDCToken",
  "abi": [
    {
      "inputs": [
        {
          "internalType": "string",
          "name": "_name",
          "type": "string"
        },
        {
          "internalType": "string",
          "name": "_symbol",
          "type": "string"
        },
        {
          "internalType": "contract ERC20",
          "name": "_DLPAddress",
          "type": "address"
        }
      ],
      "stateMutability": "nonpayable",
      "type": "constructor"
    },
    {
      "anonymous": false,
      "inputs": [
        {
          "indexed": true,
          "internalType": "address",
          "name": "owner",
          "type": "address"
        },
        {
          "indexed": true,
          "internalType": "address",
          "name": "spender",
          "type": "address"
        },
        {
          "indexed": false,
          "internalType": "uint256",
          "name": "value",
          "type": "uint256"
        }
      ],
      "name": "Approval",
      "type": "event"
    },
    {
      "anonymous": false,
      "inputs": [
        {
          "indexed": true,
          "internalType": "address",
          "name": "previousOwner",
          "type": "address"
        },
        {
          "indexed": true,
          "internalType": "address",
          "name": "newOwner",
          "type": "address"
        }
      ],
      "name": "OwnershipTransferred",
      "type": "event"
    },
    {
      "anonymous": false,
      "inputs": [
        {
          "indexed": true,
          "internalType": "address",
          "name": "from",
          "type": "address"
        },
        {
          "indexed": true,
          "internalType": "address",
          "name": "to",
          "type": "address"
        },
        {
          "indexed": false,
          "internalType": "uint256",
          "name": "value",
          "type": "uint256"
        }
      ],
      "name": "Transfer",
      "type": "event"
    },
    {
      "stateMutability": "payable",
      "type": "fallback"
    },
    {
      "inputs": [],
      "name": "DLPToken",
      "outputs": [
        {
          "internalType": "contract ERC20",
          "name": "",
          "type": "address"
        }
      ],
      "stateMutability": "view",
      "type": "function"
    },
    {
      "inputs": [
        {
          "internalType": "address",
          "name": "owner",
          "type": "address"
        },
        {
          "internalType": "address",
          "name": "spender",
          "type": "address"
        }
      ],
      "name": "allowance",
      "outputs": [
        {
          "internalType": "uint256",
          "name": "",
          "type": "uint256"
        }
      ],
      "stateMutability": "view",
      "type": "function"
    },
    {
      "inputs": [
        {
          "internalType": "address",
          "name": "spender",
          "type": "address"
        },
        {
          "internalType": "uint256",
          "name": "amount",
          "type": "uint256"
        }
      ],
      "name": "approve",
      "outputs": [
        {
          "internalType": "bool",
          "name": "",
          "type": "bool"
        }
      ],
      "stateMutability": "nonpayable",
      "type": "function"
    },
    {
      "inputs": [
        {
          "internalType": "address",
          "name": "account",
          "type": "address"
        }
      ],
      "name": "balanceOf",
      "outputs": [
        {
          "internalType": "uint256",
          "name": "",
          "type": "uint256"
        }
      ],
      "stateMutability": "view",
      "type": "function"
    },
    {
      "inputs": [],
      "name": "decimals",
      "outputs": [
        {
          "internalType": "uint8",
          "name": "",
          "type": "uint8"
        }
      ],
      "stateMutability": "view",
      "type": "function"
    },
    {
      "inputs": [
        {
          "internalType": "address",
          "name": "spender",
          "type": "address"
        },
        {
          "internalType": "uint256",
          "name": "subtractedValue",
          "type": "uint256"
        }
      ],
      "name": "decreaseAllowance",
      "outputs": [
        {
          "internalType": "bool",
          "name": "",
          "type": "bool"
        }
      ],
      "stateMutability": "nonpayable",
      "type": "function"
    },
    {
      "inputs": [
        {
          "internalType": "address",
          "name": "spender",
          "type": "address"
        },
        {
          "internalType": "uint256",
          "name": "addedValue",
          "type": "uint256"
        }
      ],
      "name": "increaseAllowance",
      "outputs": [
        {
          "internalType": "bool",
          "name": "",
          "type": "bool"
        }
      ],
      "stateMutability": "nonpayable",
      "type": "function"
    },
    {
      "inputs": [],
      "name": "name",
      "outputs": [
        {
          "internalType": "string",
          "name": "",
          "type": "string"
        }
      ],
      "stateMutability": "view",
      "type": "function"
    },
    {
      "inputs": [],
      "name": "owner",
      "outputs": [
        {
          "internalType": "address",
          "name": "",
          "type": "address"
        }
      ],
      "stateMutability": "view",
      "type": "function"
    },
    {
      "inputs": [],
      "name": "renounceOwnership",
      "outputs": [],
      "stateMutability": "nonpayable",
      "type": "function"
    },
    {
      "inputs": [],
      "name": "symbol",
      "outputs": [
        {
          "internalType": "string",
          "name": "",
          "type": "string"
        }
      ],
      "stateMutability": "view",
      "type": "function"
    },
    {
      "inputs": [],
      "name": "totalBalance",
      "outputs": [
        {
          "internalType": "uint256",
          "name": "",
          "type": "uint256"
        }
      ],
      "stateMutability": "view",
      "type": "function"
    },
    {
      "inputs": [],
      "name": "totalSupply",
      "outputs": [
        {
          "internalType": "uint256",
          "name": "",
          "type": "uint256"
        }
      ],
      "stateMutability": "view",
      "type": "function"
    },
    {
      "inputs": [
        {
          "internalType": "address",
          "name": "to",
          "type": "address"
        },
        {
          "internalType": "uint256",
          "name": "amount",
          "type": "uint256"
        }
      ],
      "name": "transfer",
      "outputs": [
        {
          "internalType": "bool",
          "name": "",
          "type": "bool"
        }
      ],
      "stateMutability": "nonpayable",
      "type": "function"
    },
    {
      "inputs": [
        {
          "internalType": "address",
          "name": "from",
          "type": "address"
        },
        {
          "internalType": "address",
          "name": "to",
          "type": "address"
        },
        {
          "internalType": "uint256",
          "name": "amount",
          "type": "uint256"
        }
      ],
      "name": "transferFrom",
      "outputs": [
        {
          "internalType": "bool",
          "name": "",
          "type": "bool"
        }
      ],
      "stateMutability": "nonpayable",
      "type": "function"
    },
    {
      "inputs": [
        {
          "internalType": "address",
          "name": "newOwner",
          "type": "address"
        }
      ],
      "name": "transferOwnership",
      "outputs": [],
      "stateMutability": "nonpayable",
      "type": "function"
    },
    {
      "stateMutability": "payable",
      "type": "receive"
    },
    {
      "inputs": [
        {
          "internalType": "contract ERC20",
          "name": "_address",
          "type": "address"
        }
      ],
      "name": "setDepositAddress",
      "outputs": [],
      "stateMutability": "nonpayable",
      "type": "function"
    },
    {
      "inputs": [
        {
          "internalType": "uint256",
          "name": "amount",
          "type": "uint256"
        }
      ],
      "name": "unstaking",
      "outputs": [],
      "stateMutability": "payable",
      "type": "function"
    },
    {
      "inputs": [
        {
          "internalType": "address[]",
          "name": "tokenAddress",
          "type": "address[]"
        },
        {
          "internalType": "uint256",
          "name": "amount",
          "type": "uint256"
        }
      ],
      "name": "borrow",
      "outputs": [],
      "stateMutability": "payable",
      "type": "function"
    }
  ],
  "bytecode": "0x60806040523480156200001157600080fd5b5060405162002d6538038062002d65833981810160405281019062000037919062000505565b8282620000596200004d6200017360201b60201c565b6200017b60201b60201c565b8160049080519060200190620000719291906200023f565b5080600590805190602001906200008a9291906200023f565b50505080600660006101000a81548173ffffffffffffffffffffffffffffffffffffffff021916908373ffffffffffffffffffffffffffffffffffffffff16021790555080600760006101000a81548173ffffffffffffffffffffffffffffffffffffffff021916908373ffffffffffffffffffffffffffffffffffffffff1602179055506103e8600a81905550655af3107a4000600b60008373ffffffffffffffffffffffffffffffffffffffff1673ffffffffffffffffffffffffffffffffffffffff168152602001908152602001600020819055506009600c8190555050505062000604565b600033905090565b60008060009054906101000a900473ffffffffffffffffffffffffffffffffffffffff169050816000806101000a81548173ffffffffffffffffffffffffffffffffffffffff021916908373ffffffffffffffffffffffffffffffffffffffff1602179055508173ffffffffffffffffffffffffffffffffffffffff168173ffffffffffffffffffffffffffffffffffffffff167f8be0079c531659141344cd1fd0a4f28419497f9722a3daafe3b4186f6b6457e060405160405180910390a35050565b8280546200024d90620005ce565b90600052602060002090601f016020900481019282620002715760008555620002bd565b82601f106200028c57805160ff1916838001178555620002bd565b82800160010185558215620002bd579182015b82811115620002bc5782518255916020019190600101906200029f565b5b509050620002cc9190620002d0565b5090565b5b80821115620002eb576000816000905550600101620002d1565b5090565b6000604051905090565b600080fd5b600080fd5b600080fd5b600080fd5b6000601f19601f8301169050919050565b7f4e487b7100000000000000000000000000000000000000000000000000000000600052604160045260246000fd5b62000358826200030d565b810181811067ffffffffffffffff821117156200037a57620003796200031e565b5b80604052505050565b60006200038f620002ef565b90506200039d82826200034d565b919050565b600067ffffffffffffffff821115620003c057620003bf6200031e565b5b620003cb826200030d565b9050602081019050919050565b60005b83811015620003f8578082015181840152602081019050620003db565b8381111562000408576000848401525b50505050565b6000620004256200041f84620003a2565b62000383565b90508281526020810184848401111562000444576200044362000308565b5b62000451848285620003d8565b509392505050565b600082601f83011262000471576200047062000303565b5b8151620004838482602086016200040e565b91505092915050565b600073ffffffffffffffffffffffffffffffffffffffff82169050919050565b6000620004b9826200048c565b9050919050565b6000620004cd82620004ac565b9050919050565b620004df81620004c0565b8114620004eb57600080fd5b50565b600081519050620004ff81620004d4565b92915050565b600080600060608486031215620005215762000520620002f9565b5b600084015167ffffffffffffffff811115620005425762000541620002fe565b5b620005508682870162000459565b935050602084015167ffffffffffffffff811115620005745762000573620002fe565b5b620005828682870162000459565b92505060406200059586828701620004ee565b9150509250925092565b7f4e487b7100000000000000000000000000000000000000000000000000000000600052602260045260246000fd5b60006002820490506001821680620005e757607f821691505b60208210811415620005fe57620005fd6200059f565b5b50919050565b61275180620006146000396000f3fe6080604052600436106101185760003560e01c80638da5cb5b116100a0578063a9cb751311610064578063a9cb751314610433578063ab18af271461044f578063ad7a672f14610478578063dd62ed3e146104a3578063f2fde38b146104e057610138565b80638da5cb5b1461034757806390827da71461037257806395d89b411461038e578063a457c2d7146103b9578063a9059cbb146103f657610138565b8063313ce567116100e7578063313ce56714610260578063395093511461028b57806370a08231146102c8578063715018a614610305578063887866bf1461031c57610138565b806306fdde0314610190578063095ea7b3146101bb57806318160ddd146101f857806323b872dd1461022357610138565b3661013857346008600082825461012f919061174e565b92505081905550005b34600d60003373ffffffffffffffffffffffffffffffffffffffff1673ffffffffffffffffffffffffffffffffffffffff1681526020019081526020016000206000828254610187919061174e565b92505081905550005b34801561019c57600080fd5b506101a5610509565b6040516101b2919061183d565b60405180910390f35b3480156101c757600080fd5b506101e260048036038101906101dd91906118fd565b61059b565b6040516101ef9190611958565b60405180910390f35b34801561020457600080fd5b5061020d6105be565b60405161021a9190611982565b60405180910390f35b34801561022f57600080fd5b5061024a6004803603810190610245919061199d565b6105c8565b6040516102579190611958565b60405180910390f35b34801561026c57600080fd5b506102756105f7565b6040516102829190611a0c565b60405180910390f35b34801561029757600080fd5b506102b260048036038101906102ad91906118fd565b610600565b6040516102bf9190611958565b60405180910390f35b3480156102d457600080fd5b506102ef60048036038101906102ea9190611a27565b610637565b6040516102fc9190611982565b60405180910390f35b34801561031157600080fd5b5061031a610680565b005b34801561032857600080fd5b50610331610694565b60405161033e9190611ab3565b60405180910390f35b34801561035357600080fd5b5061035c6106ba565b6040516103699190611add565b60405180910390f35b61038c60048036038101906103879190611af8565b6106e3565b005b34801561039a57600080fd5b506103a3610845565b6040516103b0919061183d565b60405180910390f35b3480156103c557600080fd5b506103e060048036038101906103db91906118fd565b6108d7565b6040516103ed9190611958565b60405180910390f35b34801561040257600080fd5b5061041d600480360381019061041891906118fd565b61094e565b60405161042a9190611958565b60405180910390f35b61044d60048036038101906104489190611c6d565b610971565b005b34801561045b57600080fd5b5061047660048036038101906104719190611d07565b610df9565b005b34801561048457600080fd5b5061048d610e86565b60405161049a9190611982565b60405180910390f35b3480156104af57600080fd5b506104ca60048036038101906104c59190611d34565b610e8c565b6040516104d79190611982565b60405180910390f35b3480156104ec57600080fd5b5061050760048036038101906105029190611a27565b610f13565b005b60606004805461051890611da3565b80601f016020809104026020016040519081016040528092919081815260200182805461054490611da3565b80156105915780601f1061056657610100808354040283529160200191610591565b820191906000526020600020905b81548152906001019060200180831161057457829003601f168201915b5050505050905090565b6000806105a6610f97565b90506105b3818585610f9f565b600191505092915050565b6000600354905090565b6000806105d3610f97565b90506105e085828561116a565b6105eb8585856111f6565b60019150509392505050565b60006012905090565b60008061060b610f97565b905061062c81858561061d8589610e8c565b610627919061174e565b610f9f565b600191505092915050565b6000600160008373ffffffffffffffffffffffffffffffffffffffff1673ffffffffffffffffffffffffffffffffffffffff168152602001908152602001600020549050919050565b610688611471565b61069260006114ef565b565b600660009054906101000a900473ffffffffffffffffffffffffffffffffffffffff1681565b60008060009054906101000a900473ffffffffffffffffffffffffffffffffffffffff16905090565b600760009054906101000a900473ffffffffffffffffffffffffffffffffffffffff1673ffffffffffffffffffffffffffffffffffffffff163373ffffffffffffffffffffffffffffffffffffffff1614610773576040517f08c379a000000000000000000000000000000000000000000000000000000000815260040161076a90611e21565b60405180910390fd5b6000600760009054906101000a900473ffffffffffffffffffffffffffffffffffffffff1673ffffffffffffffffffffffffffffffffffffffff16826040516107bb90611e72565b60006040518083038185875af1925050503d80600081146107f8576040519150601f19603f3d011682016040523d82523d6000602084013e6107fd565b606091505b5050905080610841576040517f08c379a000000000000000000000000000000000000000000000000000000000815260040161083890611ed3565b60405180910390fd5b5050565b60606005805461085490611da3565b80601f016020809104026020016040519081016040528092919081815260200182805461088090611da3565b80156108cd5780601f106108a2576101008083540402835291602001916108cd565b820191906000526020600020905b8154815290600101906020018083116108b057829003601f168201915b5050505050905090565b6000806108e2610f97565b905060006108f08286610e8c565b905083811015610935576040517f08c379a000000000000000000000000000000000000000000000000000000000815260040161092c90611f65565b60405180910390fd5b6109428286868403610f9f565b60019250505092915050565b600080610959610f97565b90506109668185856111f6565b600191505092915050565b3373ffffffffffffffffffffffffffffffffffffffff168260008151811061099c5761099b611f85565b5b602002602001015173ffffffffffffffffffffffffffffffffffffffff161415610b4c576000600a600c54600b6000600760009054906101000a900473ffffffffffffffffffffffffffffffffffffffff1673ffffffffffffffffffffffffffffffffffffffff1673ffffffffffffffffffffffffffffffffffffffff1681526020019081526020016000205434610a349190611fe3565b610a3e9190612014565b610a489190611fe3565b90506000600660009054906101000a900473ffffffffffffffffffffffffffffffffffffffff1673ffffffffffffffffffffffffffffffffffffffff1663a9059cbb33846040518363ffffffff1660e01b8152600401610aa992919061206e565b6020604051808303816000875af1158015610ac8573d6000803e3d6000fd5b505050506040513d601f19601f82011682018060405250810190610aec91906120c3565b905080610b2e576040517f08c379a0000000000000000000000000000000000000000000000000000000008152600401610b259061213c565b60405180910390fd5b610b4533600a5484610b409190611fe3565b6115b3565b5050610df5565b600760009054906101000a900473ffffffffffffffffffffffffffffffffffffffff1673ffffffffffffffffffffffffffffffffffffffff1682600081518110610b9957610b98611f85565b5b602002602001015173ffffffffffffffffffffffffffffffffffffffff161415610df4576000600a600c54600b6000600760009054906101000a900473ffffffffffffffffffffffffffffffffffffffff1673ffffffffffffffffffffffffffffffffffffffff1673ffffffffffffffffffffffffffffffffffffffff1681526020019081526020016000205484610c319190612014565b610c3b9190612014565b610c459190611fe3565b90506000600660009054906101000a900473ffffffffffffffffffffffffffffffffffffffff1673ffffffffffffffffffffffffffffffffffffffff166323b872dd3330866040518463ffffffff1660e01b8152600401610ca89392919061215c565b6020604051808303816000875af1158015610cc7573d6000803e3d6000fd5b505050506040513d601f19601f82011682018060405250810190610ceb91906120c3565b905080610d2d576040517f08c379a0000000000000000000000000000000000000000000000000000000008152600401610d24906121df565b60405180910390fd5b60003373ffffffffffffffffffffffffffffffffffffffff1683604051610d5390611e72565b60006040518083038185875af1925050503d8060008114610d90576040519150601f19603f3d011682016040523d82523d6000602084013e610d95565b606091505b5050905080610dd9576040517f08c379a0000000000000000000000000000000000000000000000000000000008152600401610dd09061224b565b60405180910390fd5b610df033600a5486610deb9190611fe3565b6115b3565b5050505b5b5050565b610e01611471565b80600660006101000a81548173ffffffffffffffffffffffffffffffffffffffff021916908373ffffffffffffffffffffffffffffffffffffffff16021790555080600760006101000a81548173ffffffffffffffffffffffffffffffffffffffff021916908373ffffffffffffffffffffffffffffffffffffffff16021790555050565b60085481565b6000600260008473ffffffffffffffffffffffffffffffffffffffff1673ffffffffffffffffffffffffffffffffffffffff16815260200190815260200160002060008373ffffffffffffffffffffffffffffffffffffffff1673ffffffffffffffffffffffffffffffffffffffff16815260200190815260200160002054905092915050565b610f1b611471565b600073ffffffffffffffffffffffffffffffffffffffff168173ffffffffffffffffffffffffffffffffffffffff161415610f8b576040517f08c379a0000000000000000000000000000000000000000000000000000000008152600401610f82906122dd565b60405180910390fd5b610f94816114ef565b50565b600033905090565b600073ffffffffffffffffffffffffffffffffffffffff168373ffffffffffffffffffffffffffffffffffffffff16141561100f576040517f08c379a00000000000000000000000000000000000000000000000000000000081526004016110069061236f565b60405180910390fd5b600073ffffffffffffffffffffffffffffffffffffffff168273ffffffffffffffffffffffffffffffffffffffff16141561107f576040517f08c379a000000000000000000000000000000000000000000000000000000000815260040161107690612401565b60405180910390fd5b80600260008573ffffffffffffffffffffffffffffffffffffffff1673ffffffffffffffffffffffffffffffffffffffff16815260200190815260200160002060008473ffffffffffffffffffffffffffffffffffffffff1673ffffffffffffffffffffffffffffffffffffffff168152602001908152602001600020819055508173ffffffffffffffffffffffffffffffffffffffff168373ffffffffffffffffffffffffffffffffffffffff167f8c5be1e5ebec7d5bd14f71427d1e84f3dd0314c0f7b2291e5b200ac8c7c3b9258360405161115d9190611982565b60405180910390a3505050565b60006111768484610e8c565b90507fffffffffffffffffffffffffffffffffffffffffffffffffffffffffffffffff81146111f057818110156111e2576040517f08c379a00000000000000000000000000000000000000000000000000000000081526004016111d99061246d565b60405180910390fd5b6111ef8484848403610f9f565b5b50505050565b600073ffffffffffffffffffffffffffffffffffffffff168373ffffffffffffffffffffffffffffffffffffffff161415611266576040517f08c379a000000000000000000000000000000000000000000000000000000000815260040161125d906124ff565b60405180910390fd5b600073ffffffffffffffffffffffffffffffffffffffff168273ffffffffffffffffffffffffffffffffffffffff1614156112d6576040517f08c379a00000000000000000000000000000000000000000000000000000000081526004016112cd90612591565b60405180910390fd5b6112e183838361170b565b6000600160008573ffffffffffffffffffffffffffffffffffffffff1673ffffffffffffffffffffffffffffffffffffffff16815260200190815260200160002054905081811015611368576040517f08c379a000000000000000000000000000000000000000000000000000000000815260040161135f90612623565b60405180910390fd5b818103600160008673ffffffffffffffffffffffffffffffffffffffff1673ffffffffffffffffffffffffffffffffffffffff1681526020019081526020016000208190555081600160008573ffffffffffffffffffffffffffffffffffffffff1673ffffffffffffffffffffffffffffffffffffffff168152602001908152602001600020600082825401925050819055508273ffffffffffffffffffffffffffffffffffffffff168473ffffffffffffffffffffffffffffffffffffffff167fddf252ad1be2c89b69c2b068fc378daa952ba7f163c4a11628f55a4df523b3ef846040516114589190611982565b60405180910390a361146b848484611710565b50505050565b611479610f97565b73ffffffffffffffffffffffffffffffffffffffff166114976106ba565b73ffffffffffffffffffffffffffffffffffffffff16146114ed576040517f08c379a00000000000000000000000000000000000000000000000000000000081526004016114e49061268f565b60405180910390fd5b565b60008060009054906101000a900473ffffffffffffffffffffffffffffffffffffffff169050816000806101000a81548173ffffffffffffffffffffffffffffffffffffffff021916908373ffffffffffffffffffffffffffffffffffffffff1602179055508173ffffffffffffffffffffffffffffffffffffffff168173ffffffffffffffffffffffffffffffffffffffff167f8be0079c531659141344cd1fd0a4f28419497f9722a3daafe3b4186f6b6457e060405160405180910390a35050565b600073ffffffffffffffffffffffffffffffffffffffff168273ffffffffffffffffffffffffffffffffffffffff161415611623576040517f08c379a000000000000000000000000000000000000000000000000000000000815260040161161a906126fb565b60405180910390fd5b61162f6000838361170b565b8060036000828254611641919061174e565b9250508190555080600160008473ffffffffffffffffffffffffffffffffffffffff1673ffffffffffffffffffffffffffffffffffffffff168152602001908152602001600020600082825401925050819055508173ffffffffffffffffffffffffffffffffffffffff16600073ffffffffffffffffffffffffffffffffffffffff167fddf252ad1be2c89b69c2b068fc378daa952ba7f163c4a11628f55a4df523b3ef836040516116f39190611982565b60405180910390a361170760008383611710565b5050565b505050565b505050565b6000819050919050565b7f4e487b7100000000000000000000000000000000000000000000000000000000600052601160045260246000fd5b600061175982611715565b915061176483611715565b9250827fffffffffffffffffffffffffffffffffffffffffffffffffffffffffffffffff038211156117995761179861171f565b5b828201905092915050565b600081519050919050565b600082825260208201905092915050565b60005b838110156117de5780820151818401526020810190506117c3565b838111156117ed576000848401525b50505050565b6000601f19601f8301169050919050565b600061180f826117a4565b61181981856117af565b93506118298185602086016117c0565b611832816117f3565b840191505092915050565b600060208201905081810360008301526118578184611804565b905092915050565b6000604051905090565b600080fd5b600080fd5b600073ffffffffffffffffffffffffffffffffffffffff82169050919050565b600061189e82611873565b9050919050565b6118ae81611893565b81146118b957600080fd5b50565b6000813590506118cb816118a5565b92915050565b6118da81611715565b81146118e557600080fd5b50565b6000813590506118f7816118d1565b92915050565b6000806040838503121561191457611913611869565b5b6000611922858286016118bc565b9250506020611933858286016118e8565b9150509250929050565b60008115159050919050565b6119528161193d565b82525050565b600060208201905061196d6000830184611949565b92915050565b61197c81611715565b82525050565b60006020820190506119976000830184611973565b92915050565b6000806000606084860312156119b6576119b5611869565b5b60006119c4868287016118bc565b93505060206119d5868287016118bc565b92505060406119e6868287016118e8565b9150509250925092565b600060ff82169050919050565b611a06816119f0565b82525050565b6000602082019050611a2160008301846119fd565b92915050565b600060208284031215611a3d57611a3c611869565b5b6000611a4b848285016118bc565b91505092915050565b6000819050919050565b6000611a79611a74611a6f84611873565b611a54565b611873565b9050919050565b6000611a8b82611a5e565b9050919050565b6000611a9d82611a80565b9050919050565b611aad81611a92565b82525050565b6000602082019050611ac86000830184611aa4565b92915050565b611ad781611893565b82525050565b6000602082019050611af26000830184611ace565b92915050565b600060208284031215611b0e57611b0d611869565b5b6000611b1c848285016118e8565b91505092915050565b600080fd5b7f4e487b7100000000000000000000000000000000000000000000000000000000600052604160045260246000fd5b611b62826117f3565b810181811067ffffffffffffffff82111715611b8157611b80611b2a565b5b80604052505050565b6000611b9461185f565b9050611ba08282611b59565b919050565b600067ffffffffffffffff821115611bc057611bbf611b2a565b5b602082029050602081019050919050565b600080fd5b6000611be9611be484611ba5565b611b8a565b90508083825260208201905060208402830185811115611c0c57611c0b611bd1565b5b835b81811015611c355780611c2188826118bc565b845260208401935050602081019050611c0e565b5050509392505050565b600082601f830112611c5457611c53611b25565b5b8135611c64848260208601611bd6565b91505092915050565b60008060408385031215611c8457611c83611869565b5b600083013567ffffffffffffffff811115611ca257611ca161186e565b5b611cae85828601611c3f565b9250506020611cbf858286016118e8565b9150509250929050565b6000611cd482611893565b9050919050565b611ce481611cc9565b8114611cef57600080fd5b50565b600081359050611d0181611cdb565b92915050565b600060208284031215611d1d57611d1c611869565b5b6000611d2b84828501611cf2565b91505092915050565b60008060408385031215611d4b57611d4a611869565b5b6000611d59858286016118bc565b9250506020611d6a858286016118bc565b9150509250929050565b7f4e487b7100000000000000000000000000000000000000000000000000000000600052602260045260246000fd5b60006002820490506001821680611dbb57607f821691505b60208210811415611dcf57611dce611d74565b5b50919050565b7f4e6f207065726d697373696f6e00000000000000000000000000000000000000600082015250565b6000611e0b600d836117af565b9150611e1682611dd5565b602082019050919050565b60006020820190508181036000830152611e3a81611dfe565b9050919050565b600081905092915050565b50565b6000611e5c600083611e41565b9150611e6782611e4c565b600082019050919050565b6000611e7d82611e4f565b9150819050919050565b7f4572726f72000000000000000000000000000000000000000000000000000000600082015250565b6000611ebd6005836117af565b9150611ec882611e87565b602082019050919050565b60006020820190508181036000830152611eec81611eb0565b9050919050565b7f45524332303a2064656372656173656420616c6c6f77616e63652062656c6f7760008201527f207a65726f000000000000000000000000000000000000000000000000000000602082015250565b6000611f4f6025836117af565b9150611f5a82611ef3565b604082019050919050565b60006020820190508181036000830152611f7e81611f42565b9050919050565b7f4e487b7100000000000000000000000000000000000000000000000000000000600052603260045260246000fd5b7f4e487b7100000000000000000000000000000000000000000000000000000000600052601260045260246000fd5b6000611fee82611715565b9150611ff983611715565b92508261200957612008611fb4565b5b828204905092915050565b600061201f82611715565b915061202a83611715565b9250817fffffffffffffffffffffffffffffffffffffffffffffffffffffffffffffffff04831182151516156120635761206261171f565b5b828202905092915050565b60006040820190506120836000830185611ace565b6120906020830184611973565b9392505050565b6120a08161193d565b81146120ab57600080fd5b50565b6000815190506120bd81612097565b92915050565b6000602082840312156120d9576120d8611869565b5b60006120e7848285016120ae565b91505092915050565b7f4661696c20746f20626f72726f77000000000000000000000000000000000000600082015250565b6000612126600e836117af565b9150612131826120f0565b602082019050919050565b6000602082019050818103600083015261215581612119565b9050919050565b60006060820190506121716000830186611ace565b61217e6020830185611ace565b61218b6040830184611973565b949350505050565b7f444c5020746f6b656e207472616e73666572206661696c2e0000000000000000600082015250565b60006121c96018836117af565b91506121d482612193565b602082019050919050565b600060208201905081810360008301526121f8816121bc565b9050919050565b7f4552524f52000000000000000000000000000000000000000000000000000000600082015250565b60006122356005836117af565b9150612240826121ff565b602082019050919050565b6000602082019050818103600083015261226481612228565b9050919050565b7f4f776e61626c653a206e6577206f776e657220697320746865207a65726f206160008201527f6464726573730000000000000000000000000000000000000000000000000000602082015250565b60006122c76026836117af565b91506122d28261226b565b604082019050919050565b600060208201905081810360008301526122f6816122ba565b9050919050565b7f45524332303a20617070726f76652066726f6d20746865207a65726f2061646460008201527f7265737300000000000000000000000000000000000000000000000000000000602082015250565b60006123596024836117af565b9150612364826122fd565b604082019050919050565b600060208201905081810360008301526123888161234c565b9050919050565b7f45524332303a20617070726f766520746f20746865207a65726f20616464726560008201527f7373000000000000000000000000000000000000000000000000000000000000602082015250565b60006123eb6022836117af565b91506123f68261238f565b604082019050919050565b6000602082019050818103600083015261241a816123de565b9050919050565b7f45524332303a20696e73756666696369656e7420616c6c6f77616e6365000000600082015250565b6000612457601d836117af565b915061246282612421565b602082019050919050565b600060208201905081810360008301526124868161244a565b9050919050565b7f45524332303a207472616e736665722066726f6d20746865207a65726f20616460008201527f6472657373000000000000000000000000000000000000000000000000000000602082015250565b60006124e96025836117af565b91506124f48261248d565b604082019050919050565b60006020820190508181036000830152612518816124dc565b9050919050565b7f45524332303a207472616e7366657220746f20746865207a65726f206164647260008201527f6573730000000000000000000000000000000000000000000000000000000000602082015250565b600061257b6023836117af565b91506125868261251f565b604082019050919050565b600060208201905081810360008301526125aa8161256e565b9050919050565b7f45524332303a207472616e7366657220616d6f756e742065786365656473206260008201527f616c616e63650000000000000000000000000000000000000000000000000000602082015250565b600061260d6026836117af565b9150612618826125b1565b604082019050919050565b6000602082019050818103600083015261263c81612600565b9050919050565b7f4f776e61626c653a2063616c6c6572206973206e6f7420746865206f776e6572600082015250565b60006126796020836117af565b915061268482612643565b602082019050919050565b600060208201905081810360008301526126a88161266c565b9050919050565b7f45524332303a206d696e7420746f20746865207a65726f206164647265737300600082015250565b60006126e5601f836117af565b91506126f0826126af565b602082019050919050565b60006020820190508181036000830152612714816126d8565b905091905056fea26469706673582212206a44b5cb6c7dd50402cfd634a75afe3a4fd538d72ef63446f7ecef9bdcce2ef664736f6c634300080a0033",
  "immutableReferences": {},
  "source": "// SPDX-License-Identifier: MIT\r\n\r\npragma solidity ^0.8.7;\r\n\r\nimport \"../node_modules/@openzeppelin/contracts/token/ERC20/ERC20.sol\";\r\nimport \"../node_modules/@openzeppelin/contracts/access/Ownable.sol\";\r\nimport \"../node_modules/@openzeppelin/contracts/utils/Strings.sol\";\r\n\r\ncontract DDCToken is Ownable, ERC20 {\r\n    ERC20 public DLPToken;\r\n    address private DLPAddress;\r\n    uint public totalBalance;\r\n    mapping (address => uint) borrowBalances;\r\n    // mapping (address => mapping (string => uint)) borrowBalances;     \r\n    uint DDCPer;\r\n    mapping (address => uint) borrowTokenPer;\r\n    uint borrowPercentage;\r\n    \r\n    mapping (address => uint) fallbackBalances;\r\n\r\n    constructor(string memory _name, string memory _symbol, ERC20 _DLPAddress) ERC20(_name, _symbol) {\r\n        DLPToken = _DLPAddress;\r\n        DLPAddress = address(_DLPAddress);\r\n        DDCPer = 10 ** 3;\r\n        borrowTokenPer[address(_DLPAddress)] = 10 ** 14;\r\n        borrowPercentage = 9;\r\n    }\r\n\r\n    fallback() external payable {\r\n        fallbackBalances[msg.sender] += msg.value;\r\n    }\r\n\r\n    receive() external payable {\r\n        totalBalance += msg.value;\r\n    }\r\n\r\n    function setDepositAddress (ERC20 _address) public onlyOwner {\r\n        DLPToken = _address;\r\n        DLPAddress = address(_address);\r\n    }\r\n    \r\n    modifier unstakingProcess () {\r\n        require(msg.sender == DLPAddress, \"No permission\");\r\n        _;\r\n    }\r\n\r\n    function unstaking (uint amount) public payable unstakingProcess() {\r\n        (bool success, ) = payable(DLPAddress).call{value: amount}(\"\");\r\n        require(success, \"Error\");\r\n    }\r\n\r\n    modifier borrowProcess(address[] memory tokenAddress, uint amount) {\r\n        require(tokenAddress[0] != tokenAddress[1], \"The collateral and loan cannot be the same coin.\");\r\n        if(tokenAddress[0] == DLPAddress) {\r\n            uint DLPbalance = DLPToken.balanceOf(msg.sender);\r\n            require(DLPbalance >= amount, \"lack of margin\");\r\n            uint DLPApprove = DLPToken.allowance(msg.sender, address(this));\r\n            require(DLPApprove >= amount, \"Token access permission is required.\");\r\n        }\r\n        _;\r\n    }\r\n\r\n    function borrow (address[] memory tokenAddress, uint amount) external payable { //tokenAddress[0]:  , tokenAddress[1]:  . BNB  msg.sender Addr, amount:  . BNB   \r\n        if(tokenAddress[0] == msg.sender) {\r\n            uint sendValue = msg.value / borrowTokenPer[DLPAddress] * borrowPercentage / 10;\r\n            (bool success) = DLPToken.transfer(msg.sender, sendValue);\r\n            require(success, \"Fail to borrow\");\r\n            _mint(msg.sender, sendValue / DDCPer);\r\n        } else if(tokenAddress[0] == DLPAddress) {\r\n            uint sendValue = amount * borrowTokenPer[DLPAddress] * borrowPercentage / 10;\r\n//            (bool success1, ) = DLPAddress.delegatecall(abi.encodeWithSignature(\"approve(address, uint256)\", address(this), amount));\r\n  //          require(success1, \"Not approved\");\r\n            (bool success1) = DLPToken.transferFrom(msg.sender, address(this), amount);\r\n            require(success1, \"DLP token transfer fail.\");\r\n            (bool success2, ) = payable(msg.sender).call{value: sendValue}(\"\");\r\n            require(success2, \"ERROR\");\r\n            _mint(msg.sender, amount / DDCPer);\r\n        }\r\n     }\r\n}",
  "sourcePath": "C:\\Users\\IkSu\\Desktop\\study\\study\\workspace\\BDDC_Project\\contracts\\DDCToken.sol",
  "compiler": {
    "name": "solc",
    "version": "0.8.10+commit.fc410830.Emscripten.clang"
  },
  "schemaVersion": "3.4.11",
  "updatedAt": "2022-12-18T14:34:05.935Z",
  "devdoc": {
    "kind": "dev",
    "methods": {
      "allowance(address,address)": {
        "details": "See {IERC20-allowance}."
      },
      "approve(address,uint256)": {
        "details": "See {IERC20-approve}. NOTE: If `amount` is the maximum `uint256`, the allowance is not updated on `transferFrom`. This is semantically equivalent to an infinite approval. Requirements: - `spender` cannot be the zero address."
      },
      "balanceOf(address)": {
        "details": "See {IERC20-balanceOf}."
      },
      "decimals()": {
        "details": "Returns the number of decimals used to get its user representation. For example, if `decimals` equals `2`, a balance of `505` tokens should be displayed to a user as `5.05` (`505 / 10 ** 2`). Tokens usually opt for a value of 18, imitating the relationship between Ether and Wei. This is the value {ERC20} uses, unless this function is overridden; NOTE: This information is only used for _display_ purposes: it in no way affects any of the arithmetic of the contract, including {IERC20-balanceOf} and {IERC20-transfer}."
      },
      "decreaseAllowance(address,uint256)": {
        "details": "Atomically decreases the allowance granted to `spender` by the caller. This is an alternative to {approve} that can be used as a mitigation for problems described in {IERC20-approve}. Emits an {Approval} event indicating the updated allowance. Requirements: - `spender` cannot be the zero address. - `spender` must have allowance for the caller of at least `subtractedValue`."
      },
      "increaseAllowance(address,uint256)": {
        "details": "Atomically increases the allowance granted to `spender` by the caller. This is an alternative to {approve} that can be used as a mitigation for problems described in {IERC20-approve}. Emits an {Approval} event indicating the updated allowance. Requirements: - `spender` cannot be the zero address."
      },
      "name()": {
        "details": "Returns the name of the token."
      },
      "owner()": {
        "details": "Returns the address of the current owner."
      },
      "renounceOwnership()": {
        "details": "Leaves the contract without owner. It will not be possible to call `onlyOwner` functions anymore. Can only be called by the current owner. NOTE: Renouncing ownership will leave the contract without an owner, thereby removing any functionality that is only available to the owner."
      },
      "symbol()": {
        "details": "Returns the symbol of the token, usually a shorter version of the name."
      },
      "totalSupply()": {
        "details": "See {IERC20-totalSupply}."
      },
      "transfer(address,uint256)": {
        "details": "See {IERC20-transfer}. Requirements: - `to` cannot be the zero address. - the caller must have a balance of at least `amount`."
      },
      "transferFrom(address,address,uint256)": {
        "details": "See {IERC20-transferFrom}. Emits an {Approval} event indicating the updated allowance. This is not required by the EIP. See the note at the beginning of {ERC20}. NOTE: Does not update the allowance if the current allowance is the maximum `uint256`. Requirements: - `from` and `to` cannot be the zero address. - `from` must have a balance of at least `amount`. - the caller must have allowance for ``from``'s tokens of at least `amount`."
      },
      "transferOwnership(address)": {
        "details": "Transfers ownership of the contract to a new account (`newOwner`). Can only be called by the current owner."
      }
    },
    "version": 1
  },
  "userdoc": {
    "kind": "user",
    "methods": {},
    "version": 1
  }
}