{
  "contractName": "DDCToken",
  "abi": [
    {
      "inputs": [
        {
          "internalType": "string",
          "name": "_name",
          "type": "string"
        },
        {
          "internalType": "string",
          "name": "_symbol",
          "type": "string"
        },
        {
          "internalType": "contract ERC20",
          "name": "_DLPAddress",
          "type": "address"
        }
      ],
      "stateMutability": "nonpayable",
      "type": "constructor"
    },
    {
      "anonymous": false,
      "inputs": [
        {
          "indexed": true,
          "internalType": "address",
          "name": "owner",
          "type": "address"
        },
        {
          "indexed": true,
          "internalType": "address",
          "name": "spender",
          "type": "address"
        },
        {
          "indexed": false,
          "internalType": "uint256",
          "name": "value",
          "type": "uint256"
        }
      ],
      "name": "Approval",
      "type": "event"
    },
    {
      "anonymous": false,
      "inputs": [
        {
          "indexed": true,
          "internalType": "address",
          "name": "previousOwner",
          "type": "address"
        },
        {
          "indexed": true,
          "internalType": "address",
          "name": "newOwner",
          "type": "address"
        }
      ],
      "name": "OwnershipTransferred",
      "type": "event"
    },
    {
      "anonymous": false,
      "inputs": [
        {
          "indexed": true,
          "internalType": "address",
          "name": "from",
          "type": "address"
        },
        {
          "indexed": true,
          "internalType": "address",
          "name": "to",
          "type": "address"
        },
        {
          "indexed": false,
          "internalType": "uint256",
          "name": "value",
          "type": "uint256"
        }
      ],
      "name": "Transfer",
      "type": "event"
    },
    {
      "stateMutability": "payable",
      "type": "fallback"
    },
    {
      "inputs": [],
      "name": "DLPAddress",
      "outputs": [
        {
          "internalType": "address",
          "name": "",
          "type": "address"
        }
      ],
      "stateMutability": "view",
      "type": "function"
    },
    {
      "inputs": [
        {
          "internalType": "address",
          "name": "owner",
          "type": "address"
        },
        {
          "internalType": "address",
          "name": "spender",
          "type": "address"
        }
      ],
      "name": "allowance",
      "outputs": [
        {
          "internalType": "uint256",
          "name": "",
          "type": "uint256"
        }
      ],
      "stateMutability": "view",
      "type": "function"
    },
    {
      "inputs": [
        {
          "internalType": "address",
          "name": "spender",
          "type": "address"
        },
        {
          "internalType": "uint256",
          "name": "amount",
          "type": "uint256"
        }
      ],
      "name": "approve",
      "outputs": [
        {
          "internalType": "bool",
          "name": "",
          "type": "bool"
        }
      ],
      "stateMutability": "nonpayable",
      "type": "function"
    },
    {
      "inputs": [
        {
          "internalType": "address",
          "name": "account",
          "type": "address"
        }
      ],
      "name": "balanceOf",
      "outputs": [
        {
          "internalType": "uint256",
          "name": "",
          "type": "uint256"
        }
      ],
      "stateMutability": "view",
      "type": "function"
    },
    {
      "inputs": [
        {
          "internalType": "address",
          "name": "",
          "type": "address"
        }
      ],
      "name": "borrowBalances",
      "outputs": [
        {
          "internalType": "uint256",
          "name": "",
          "type": "uint256"
        }
      ],
      "stateMutability": "view",
      "type": "function"
    },
    {
      "inputs": [],
      "name": "decimals",
      "outputs": [
        {
          "internalType": "uint8",
          "name": "",
          "type": "uint8"
        }
      ],
      "stateMutability": "view",
      "type": "function"
    },
    {
      "inputs": [
        {
          "internalType": "address",
          "name": "spender",
          "type": "address"
        },
        {
          "internalType": "uint256",
          "name": "subtractedValue",
          "type": "uint256"
        }
      ],
      "name": "decreaseAllowance",
      "outputs": [
        {
          "internalType": "bool",
          "name": "",
          "type": "bool"
        }
      ],
      "stateMutability": "nonpayable",
      "type": "function"
    },
    {
      "inputs": [
        {
          "internalType": "address",
          "name": "spender",
          "type": "address"
        },
        {
          "internalType": "uint256",
          "name": "addedValue",
          "type": "uint256"
        }
      ],
      "name": "increaseAllowance",
      "outputs": [
        {
          "internalType": "bool",
          "name": "",
          "type": "bool"
        }
      ],
      "stateMutability": "nonpayable",
      "type": "function"
    },
    {
      "inputs": [],
      "name": "name",
      "outputs": [
        {
          "internalType": "string",
          "name": "",
          "type": "string"
        }
      ],
      "stateMutability": "view",
      "type": "function"
    },
    {
      "inputs": [],
      "name": "owner",
      "outputs": [
        {
          "internalType": "address",
          "name": "",
          "type": "address"
        }
      ],
      "stateMutability": "view",
      "type": "function"
    },
    {
      "inputs": [],
      "name": "renounceOwnership",
      "outputs": [],
      "stateMutability": "nonpayable",
      "type": "function"
    },
    {
      "inputs": [],
      "name": "symbol",
      "outputs": [
        {
          "internalType": "string",
          "name": "",
          "type": "string"
        }
      ],
      "stateMutability": "view",
      "type": "function"
    },
    {
      "inputs": [],
      "name": "totalBalance",
      "outputs": [
        {
          "internalType": "uint256",
          "name": "",
          "type": "uint256"
        }
      ],
      "stateMutability": "view",
      "type": "function"
    },
    {
      "inputs": [],
      "name": "totalSupply",
      "outputs": [
        {
          "internalType": "uint256",
          "name": "",
          "type": "uint256"
        }
      ],
      "stateMutability": "view",
      "type": "function"
    },
    {
      "inputs": [
        {
          "internalType": "address",
          "name": "to",
          "type": "address"
        },
        {
          "internalType": "uint256",
          "name": "amount",
          "type": "uint256"
        }
      ],
      "name": "transfer",
      "outputs": [
        {
          "internalType": "bool",
          "name": "",
          "type": "bool"
        }
      ],
      "stateMutability": "nonpayable",
      "type": "function"
    },
    {
      "inputs": [
        {
          "internalType": "address",
          "name": "from",
          "type": "address"
        },
        {
          "internalType": "address",
          "name": "to",
          "type": "address"
        },
        {
          "internalType": "uint256",
          "name": "amount",
          "type": "uint256"
        }
      ],
      "name": "transferFrom",
      "outputs": [
        {
          "internalType": "bool",
          "name": "",
          "type": "bool"
        }
      ],
      "stateMutability": "nonpayable",
      "type": "function"
    },
    {
      "inputs": [
        {
          "internalType": "address",
          "name": "newOwner",
          "type": "address"
        }
      ],
      "name": "transferOwnership",
      "outputs": [],
      "stateMutability": "nonpayable",
      "type": "function"
    },
    {
      "stateMutability": "payable",
      "type": "receive"
    },
    {
      "inputs": [
        {
          "internalType": "contract ERC20",
          "name": "_address",
          "type": "address"
        }
      ],
      "name": "setDepositAddress",
      "outputs": [],
      "stateMutability": "nonpayable",
      "type": "function"
    },
    {
      "inputs": [
        {
          "internalType": "address",
          "name": "user",
          "type": "address"
        },
        {
          "internalType": "uint256",
          "name": "amount",
          "type": "uint256"
        }
      ],
      "name": "withdraw",
      "outputs": [],
      "stateMutability": "nonpayable",
      "type": "function"
    },
    {
      "inputs": [
        {
          "internalType": "address[]",
          "name": "tokenAddress",
          "type": "address[]"
        },
        {
          "internalType": "uint256",
          "name": "amount",
          "type": "uint256"
        }
      ],
      "name": "borrow",
      "outputs": [],
      "stateMutability": "payable",
      "type": "function"
    },
    {
      "inputs": [],
      "name": "emergencyCall",
      "outputs": [],
      "stateMutability": "nonpayable",
      "type": "function"
    }
  ],
  "bytecode": "0x6080604052670de0b6b3a7640000600d553480156200001d57600080fd5b5060405162002d5f38038062002d5f833981810160405281019062000043919062000511565b828262000065620000596200017f60201b60201c565b6200018760201b60201c565b81600490805190602001906200007d9291906200024b565b508060059080519060200190620000969291906200024b565b50505080600660006101000a81548173ffffffffffffffffffffffffffffffffffffffff021916908373ffffffffffffffffffffffffffffffffffffffff16021790555080600760006101000a81548173ffffffffffffffffffffffffffffffffffffffff021916908373ffffffffffffffffffffffffffffffffffffffff1602179055506103e8600a81905550655af3107a4000600b60008373ffffffffffffffffffffffffffffffffffffffff1673ffffffffffffffffffffffffffffffffffffffff168152602001908152602001600020819055506009600c8190555050505062000610565b600033905090565b60008060009054906101000a900473ffffffffffffffffffffffffffffffffffffffff169050816000806101000a81548173ffffffffffffffffffffffffffffffffffffffff021916908373ffffffffffffffffffffffffffffffffffffffff1602179055508173ffffffffffffffffffffffffffffffffffffffff168173ffffffffffffffffffffffffffffffffffffffff167f8be0079c531659141344cd1fd0a4f28419497f9722a3daafe3b4186f6b6457e060405160405180910390a35050565b8280546200025990620005da565b90600052602060002090601f0160209004810192826200027d5760008555620002c9565b82601f106200029857805160ff1916838001178555620002c9565b82800160010185558215620002c9579182015b82811115620002c8578251825591602001919060010190620002ab565b5b509050620002d89190620002dc565b5090565b5b80821115620002f7576000816000905550600101620002dd565b5090565b6000604051905090565b600080fd5b600080fd5b600080fd5b600080fd5b6000601f19601f8301169050919050565b7f4e487b7100000000000000000000000000000000000000000000000000000000600052604160045260246000fd5b620003648262000319565b810181811067ffffffffffffffff821117156200038657620003856200032a565b5b80604052505050565b60006200039b620002fb565b9050620003a9828262000359565b919050565b600067ffffffffffffffff821115620003cc57620003cb6200032a565b5b620003d78262000319565b9050602081019050919050565b60005b8381101562000404578082015181840152602081019050620003e7565b8381111562000414576000848401525b50505050565b6000620004316200042b84620003ae565b6200038f565b90508281526020810184848401111562000450576200044f62000314565b5b6200045d848285620003e4565b509392505050565b600082601f8301126200047d576200047c6200030f565b5b81516200048f8482602086016200041a565b91505092915050565b600073ffffffffffffffffffffffffffffffffffffffff82169050919050565b6000620004c58262000498565b9050919050565b6000620004d982620004b8565b9050919050565b620004eb81620004cc565b8114620004f757600080fd5b50565b6000815190506200050b81620004e0565b92915050565b6000806000606084860312156200052d576200052c62000305565b5b600084015167ffffffffffffffff8111156200054e576200054d6200030a565b5b6200055c8682870162000465565b935050602084015167ffffffffffffffff81111562000580576200057f6200030a565b5b6200058e8682870162000465565b9250506040620005a186828701620004fa565b9150509250925092565b7f4e487b7100000000000000000000000000000000000000000000000000000000600052602260045260246000fd5b60006002820490506001821680620005f357607f821691505b602082108114156200060a5762000609620005ab565b5b50919050565b61273f80620006206000396000f3fe60806040526004361061012e5760003560e01c80638da5cb5b116100ab578063a9cb75131161006f578063a9cb751314610481578063ab18af271461049d578063ad7a672f146104c6578063dd62ed3e146104f1578063f2fde38b1461052e578063f3fef3a3146105575761014e565b80638da5cb5b1461037457806394e1373c1461039f57806395d89b41146103dc578063a457c2d714610407578063a9059cbb146104445761014e565b8063313ce567116100f2578063313ce5671461028d57806339509351146102b85780636110eae9146102f557806370a0823114610320578063715018a61461035d5761014e565b806306fdde03146101a6578063095ea7b3146101d157806318160ddd1461020e57806323b872dd14610239578063299ed37a146102765761014e565b3661014e573460086000828254610145919061180c565b92505081905550005b34600e60003373ffffffffffffffffffffffffffffffffffffffff1673ffffffffffffffffffffffffffffffffffffffff168152602001908152602001600020600082825461019d919061180c565b92505081905550005b3480156101b257600080fd5b506101bb610580565b6040516101c891906118fb565b60405180910390f35b3480156101dd57600080fd5b506101f860048036038101906101f391906119bb565b610612565b6040516102059190611a16565b60405180910390f35b34801561021a57600080fd5b50610223610635565b6040516102309190611a40565b60405180910390f35b34801561024557600080fd5b50610260600480360381019061025b9190611a5b565b61063f565b60405161026d9190611a16565b60405180910390f35b34801561028257600080fd5b5061028b61066e565b005b34801561029957600080fd5b506102a261072c565b6040516102af9190611aca565b60405180910390f35b3480156102c457600080fd5b506102df60048036038101906102da91906119bb565b610735565b6040516102ec9190611a16565b60405180910390f35b34801561030157600080fd5b5061030a61076c565b6040516103179190611af4565b60405180910390f35b34801561032c57600080fd5b5061034760048036038101906103429190611b0f565b610792565b6040516103549190611a40565b60405180910390f35b34801561036957600080fd5b506103726107db565b005b34801561038057600080fd5b506103896107ef565b6040516103969190611af4565b60405180910390f35b3480156103ab57600080fd5b506103c660048036038101906103c19190611b0f565b610818565b6040516103d39190611a40565b60405180910390f35b3480156103e857600080fd5b506103f1610830565b6040516103fe91906118fb565b60405180910390f35b34801561041357600080fd5b5061042e600480360381019061042991906119bb565b6108c2565b60405161043b9190611a16565b60405180910390f35b34801561045057600080fd5b5061046b600480360381019061046691906119bb565b610939565b6040516104789190611a16565b60405180910390f35b61049b60048036038101906104969190611c84565b61095c565b005b3480156104a957600080fd5b506104c460048036038101906104bf9190611d1e565b610dfe565b005b3480156104d257600080fd5b506104db610e8b565b6040516104e89190611a40565b60405180910390f35b3480156104fd57600080fd5b5061051860048036038101906105139190611d4b565b610e91565b6040516105259190611a40565b60405180910390f35b34801561053a57600080fd5b5061055560048036038101906105509190611b0f565b610f18565b005b34801561056357600080fd5b5061057e600480360381019061057991906119bb565b610f9c565b005b60606004805461058f90611dba565b80601f01602080910402602001604051908101604052809291908181526020018280546105bb90611dba565b80156106085780601f106105dd57610100808354040283529160200191610608565b820191906000526020600020905b8154815290600101906020018083116105eb57829003601f168201915b5050505050905090565b60008061061d611055565b905061062a81858561105d565b600191505092915050565b6000600354905090565b60008061064a611055565b9050610657858285611228565b6106628585856112b4565b60019150509392505050565b61067661152f565b60006106806107ef565b73ffffffffffffffffffffffffffffffffffffffff16476040516106a390611e1d565b60006040518083038185875af1925050503d80600081146106e0576040519150601f19603f3d011682016040523d82523d6000602084013e6106e5565b606091505b5050905080610729576040517f08c379a000000000000000000000000000000000000000000000000000000000815260040161072090611e55565b60405180910390fd5b50565b60006012905090565b600080610740611055565b90506107618185856107528589610e91565b61075c919061180c565b61105d565b600191505092915050565b600760009054906101000a900473ffffffffffffffffffffffffffffffffffffffff1681565b6000600160008373ffffffffffffffffffffffffffffffffffffffff1673ffffffffffffffffffffffffffffffffffffffff168152602001908152602001600020549050919050565b6107e361152f565b6107ed60006115ad565b565b60008060009054906101000a900473ffffffffffffffffffffffffffffffffffffffff16905090565b60096020528060005260406000206000915090505481565b60606005805461083f90611dba565b80601f016020809104026020016040519081016040528092919081815260200182805461086b90611dba565b80156108b85780601f1061088d576101008083540402835291602001916108b8565b820191906000526020600020905b81548152906001019060200180831161089b57829003601f168201915b5050505050905090565b6000806108cd611055565b905060006108db8286610e91565b905083811015610920576040517f08c379a000000000000000000000000000000000000000000000000000000000815260040161091790611ee7565b60405180910390fd5b61092d828686840361105d565b60019250505092915050565b600080610944611055565b90506109518185856112b4565b600191505092915050565b3373ffffffffffffffffffffffffffffffffffffffff168260008151811061098757610986611f07565b5b602002602001015173ffffffffffffffffffffffffffffffffffffffff161415610b44576000600a600c54600b6000600760009054906101000a900473ffffffffffffffffffffffffffffffffffffffff1673ffffffffffffffffffffffffffffffffffffffff1673ffffffffffffffffffffffffffffffffffffffff1681526020019081526020016000205434610a1f9190611f65565b610a299190611f96565b610a339190611f65565b90506000600660009054906101000a900473ffffffffffffffffffffffffffffffffffffffff1673ffffffffffffffffffffffffffffffffffffffff1663a9059cbb33846040518363ffffffff1660e01b8152600401610a94929190611ff0565b6020604051808303816000875af1158015610ab3573d6000803e3d6000fd5b505050506040513d601f19601f82011682018060405250810190610ad79190612045565b905080610b19576040517f08c379a0000000000000000000000000000000000000000000000000000000008152600401610b10906120be565b60405180910390fd5b610b3d33600d54600a5485610b2e9190611f65565b610b389190611f96565b611671565b5050610dfa565b600760009054906101000a900473ffffffffffffffffffffffffffffffffffffffff1673ffffffffffffffffffffffffffffffffffffffff1682600081518110610b9157610b90611f07565b5b602002602001015173ffffffffffffffffffffffffffffffffffffffff161415610df9576000600a600c54600b6000600760009054906101000a900473ffffffffffffffffffffffffffffffffffffffff1673ffffffffffffffffffffffffffffffffffffffff1673ffffffffffffffffffffffffffffffffffffffff1681526020019081526020016000205484610c299190611f96565b610c339190611f96565b610c3d9190611f65565b90506000600660009054906101000a900473ffffffffffffffffffffffffffffffffffffffff1673ffffffffffffffffffffffffffffffffffffffff166323b872dd3330866040518463ffffffff1660e01b8152600401610ca0939291906120de565b6020604051808303816000875af1158015610cbf573d6000803e3d6000fd5b505050506040513d601f19601f82011682018060405250810190610ce39190612045565b905080610d25576040517f08c379a0000000000000000000000000000000000000000000000000000000008152600401610d1c90612161565b60405180910390fd5b60003373ffffffffffffffffffffffffffffffffffffffff1683604051610d4b90611e1d565b60006040518083038185875af1925050503d8060008114610d88576040519150601f19603f3d011682016040523d82523d6000602084013e610d8d565b606091505b5050905080610dd1576040517f08c379a0000000000000000000000000000000000000000000000000000000008152600401610dc8906121cd565b60405180910390fd5b610df533600d54600a5487610de69190611f65565b610df09190611f96565b611671565b5050505b5b5050565b610e0661152f565b80600660006101000a81548173ffffffffffffffffffffffffffffffffffffffff021916908373ffffffffffffffffffffffffffffffffffffffff16021790555080600760006101000a81548173ffffffffffffffffffffffffffffffffffffffff021916908373ffffffffffffffffffffffffffffffffffffffff16021790555050565b60085481565b6000600260008473ffffffffffffffffffffffffffffffffffffffff1673ffffffffffffffffffffffffffffffffffffffff16815260200190815260200160002060008373ffffffffffffffffffffffffffffffffffffffff1673ffffffffffffffffffffffffffffffffffffffff16815260200190815260200160002054905092915050565b610f2061152f565b600073ffffffffffffffffffffffffffffffffffffffff168173ffffffffffffffffffffffffffffffffffffffff161415610f90576040517f08c379a0000000000000000000000000000000000000000000000000000000008152600401610f879061225f565b60405180910390fd5b610f99816115ad565b50565b610fa461152f565b60008273ffffffffffffffffffffffffffffffffffffffff1682604051610fca90611e1d565b60006040518083038185875af1925050503d8060008114611007576040519150601f19603f3d011682016040523d82523d6000602084013e61100c565b606091505b5050905080611050576040517f08c379a0000000000000000000000000000000000000000000000000000000008152600401611047906122cb565b60405180910390fd5b505050565b600033905090565b600073ffffffffffffffffffffffffffffffffffffffff168373ffffffffffffffffffffffffffffffffffffffff1614156110cd576040517f08c379a00000000000000000000000000000000000000000000000000000000081526004016110c49061235d565b60405180910390fd5b600073ffffffffffffffffffffffffffffffffffffffff168273ffffffffffffffffffffffffffffffffffffffff16141561113d576040517f08c379a0000000000000000000000000000000000000000000000000000000008152600401611134906123ef565b60405180910390fd5b80600260008573ffffffffffffffffffffffffffffffffffffffff1673ffffffffffffffffffffffffffffffffffffffff16815260200190815260200160002060008473ffffffffffffffffffffffffffffffffffffffff1673ffffffffffffffffffffffffffffffffffffffff168152602001908152602001600020819055508173ffffffffffffffffffffffffffffffffffffffff168373ffffffffffffffffffffffffffffffffffffffff167f8c5be1e5ebec7d5bd14f71427d1e84f3dd0314c0f7b2291e5b200ac8c7c3b9258360405161121b9190611a40565b60405180910390a3505050565b60006112348484610e91565b90507fffffffffffffffffffffffffffffffffffffffffffffffffffffffffffffffff81146112ae57818110156112a0576040517f08c379a00000000000000000000000000000000000000000000000000000000081526004016112979061245b565b60405180910390fd5b6112ad848484840361105d565b5b50505050565b600073ffffffffffffffffffffffffffffffffffffffff168373ffffffffffffffffffffffffffffffffffffffff161415611324576040517f08c379a000000000000000000000000000000000000000000000000000000000815260040161131b906124ed565b60405180910390fd5b600073ffffffffffffffffffffffffffffffffffffffff168273ffffffffffffffffffffffffffffffffffffffff161415611394576040517f08c379a000000000000000000000000000000000000000000000000000000000815260040161138b9061257f565b60405180910390fd5b61139f8383836117c9565b6000600160008573ffffffffffffffffffffffffffffffffffffffff1673ffffffffffffffffffffffffffffffffffffffff16815260200190815260200160002054905081811015611426576040517f08c379a000000000000000000000000000000000000000000000000000000000815260040161141d90612611565b60405180910390fd5b818103600160008673ffffffffffffffffffffffffffffffffffffffff1673ffffffffffffffffffffffffffffffffffffffff1681526020019081526020016000208190555081600160008573ffffffffffffffffffffffffffffffffffffffff1673ffffffffffffffffffffffffffffffffffffffff168152602001908152602001600020600082825401925050819055508273ffffffffffffffffffffffffffffffffffffffff168473ffffffffffffffffffffffffffffffffffffffff167fddf252ad1be2c89b69c2b068fc378daa952ba7f163c4a11628f55a4df523b3ef846040516115169190611a40565b60405180910390a36115298484846117ce565b50505050565b611537611055565b73ffffffffffffffffffffffffffffffffffffffff166115556107ef565b73ffffffffffffffffffffffffffffffffffffffff16146115ab576040517f08c379a00000000000000000000000000000000000000000000000000000000081526004016115a29061267d565b60405180910390fd5b565b60008060009054906101000a900473ffffffffffffffffffffffffffffffffffffffff169050816000806101000a81548173ffffffffffffffffffffffffffffffffffffffff021916908373ffffffffffffffffffffffffffffffffffffffff1602179055508173ffffffffffffffffffffffffffffffffffffffff168173ffffffffffffffffffffffffffffffffffffffff167f8be0079c531659141344cd1fd0a4f28419497f9722a3daafe3b4186f6b6457e060405160405180910390a35050565b600073ffffffffffffffffffffffffffffffffffffffff168273ffffffffffffffffffffffffffffffffffffffff1614156116e1576040517f08c379a00000000000000000000000000000000000000000000000000000000081526004016116d8906126e9565b60405180910390fd5b6116ed600083836117c9565b80600360008282546116ff919061180c565b9250508190555080600160008473ffffffffffffffffffffffffffffffffffffffff1673ffffffffffffffffffffffffffffffffffffffff168152602001908152602001600020600082825401925050819055508173ffffffffffffffffffffffffffffffffffffffff16600073ffffffffffffffffffffffffffffffffffffffff167fddf252ad1be2c89b69c2b068fc378daa952ba7f163c4a11628f55a4df523b3ef836040516117b19190611a40565b60405180910390a36117c5600083836117ce565b5050565b505050565b505050565b6000819050919050565b7f4e487b7100000000000000000000000000000000000000000000000000000000600052601160045260246000fd5b6000611817826117d3565b9150611822836117d3565b9250827fffffffffffffffffffffffffffffffffffffffffffffffffffffffffffffffff03821115611857576118566117dd565b5b828201905092915050565b600081519050919050565b600082825260208201905092915050565b60005b8381101561189c578082015181840152602081019050611881565b838111156118ab576000848401525b50505050565b6000601f19601f8301169050919050565b60006118cd82611862565b6118d7818561186d565b93506118e781856020860161187e565b6118f0816118b1565b840191505092915050565b6000602082019050818103600083015261191581846118c2565b905092915050565b6000604051905090565b600080fd5b600080fd5b600073ffffffffffffffffffffffffffffffffffffffff82169050919050565b600061195c82611931565b9050919050565b61196c81611951565b811461197757600080fd5b50565b60008135905061198981611963565b92915050565b611998816117d3565b81146119a357600080fd5b50565b6000813590506119b58161198f565b92915050565b600080604083850312156119d2576119d1611927565b5b60006119e08582860161197a565b92505060206119f1858286016119a6565b9150509250929050565b60008115159050919050565b611a10816119fb565b82525050565b6000602082019050611a2b6000830184611a07565b92915050565b611a3a816117d3565b82525050565b6000602082019050611a556000830184611a31565b92915050565b600080600060608486031215611a7457611a73611927565b5b6000611a828682870161197a565b9350506020611a938682870161197a565b9250506040611aa4868287016119a6565b9150509250925092565b600060ff82169050919050565b611ac481611aae565b82525050565b6000602082019050611adf6000830184611abb565b92915050565b611aee81611951565b82525050565b6000602082019050611b096000830184611ae5565b92915050565b600060208284031215611b2557611b24611927565b5b6000611b338482850161197a565b91505092915050565b600080fd5b7f4e487b7100000000000000000000000000000000000000000000000000000000600052604160045260246000fd5b611b79826118b1565b810181811067ffffffffffffffff82111715611b9857611b97611b41565b5b80604052505050565b6000611bab61191d565b9050611bb78282611b70565b919050565b600067ffffffffffffffff821115611bd757611bd6611b41565b5b602082029050602081019050919050565b600080fd5b6000611c00611bfb84611bbc565b611ba1565b90508083825260208201905060208402830185811115611c2357611c22611be8565b5b835b81811015611c4c5780611c38888261197a565b845260208401935050602081019050611c25565b5050509392505050565b600082601f830112611c6b57611c6a611b3c565b5b8135611c7b848260208601611bed565b91505092915050565b60008060408385031215611c9b57611c9a611927565b5b600083013567ffffffffffffffff811115611cb957611cb861192c565b5b611cc585828601611c56565b9250506020611cd6858286016119a6565b9150509250929050565b6000611ceb82611951565b9050919050565b611cfb81611ce0565b8114611d0657600080fd5b50565b600081359050611d1881611cf2565b92915050565b600060208284031215611d3457611d33611927565b5b6000611d4284828501611d09565b91505092915050565b60008060408385031215611d6257611d61611927565b5b6000611d708582860161197a565b9250506020611d818582860161197a565b9150509250929050565b7f4e487b7100000000000000000000000000000000000000000000000000000000600052602260045260246000fd5b60006002820490506001821680611dd257607f821691505b60208210811415611de657611de5611d8b565b5b50919050565b600081905092915050565b50565b6000611e07600083611dec565b9150611e1282611df7565b600082019050919050565b6000611e2882611dfa565b9150819050919050565b6000611e3f60008361186d565b9150611e4a82611df7565b600082019050919050565b60006020820190508181036000830152611e6e81611e32565b9050919050565b7f45524332303a2064656372656173656420616c6c6f77616e63652062656c6f7760008201527f207a65726f000000000000000000000000000000000000000000000000000000602082015250565b6000611ed160258361186d565b9150611edc82611e75565b604082019050919050565b60006020820190508181036000830152611f0081611ec4565b9050919050565b7f4e487b7100000000000000000000000000000000000000000000000000000000600052603260045260246000fd5b7f4e487b7100000000000000000000000000000000000000000000000000000000600052601260045260246000fd5b6000611f70826117d3565b9150611f7b836117d3565b925082611f8b57611f8a611f36565b5b828204905092915050565b6000611fa1826117d3565b9150611fac836117d3565b9250817fffffffffffffffffffffffffffffffffffffffffffffffffffffffffffffffff0483118215151615611fe557611fe46117dd565b5b828202905092915050565b60006040820190506120056000830185611ae5565b6120126020830184611a31565b9392505050565b612022816119fb565b811461202d57600080fd5b50565b60008151905061203f81612019565b92915050565b60006020828403121561205b5761205a611927565b5b600061206984828501612030565b91505092915050565b7f4661696c20746f20626f72726f77000000000000000000000000000000000000600082015250565b60006120a8600e8361186d565b91506120b382612072565b602082019050919050565b600060208201905081810360008301526120d78161209b565b9050919050565b60006060820190506120f36000830186611ae5565b6121006020830185611ae5565b61210d6040830184611a31565b949350505050565b7f444c5020746f6b656e207472616e73666572206661696c2e0000000000000000600082015250565b600061214b60188361186d565b915061215682612115565b602082019050919050565b6000602082019050818103600083015261217a8161213e565b9050919050565b7f4552524f52000000000000000000000000000000000000000000000000000000600082015250565b60006121b760058361186d565b91506121c282612181565b602082019050919050565b600060208201905081810360008301526121e6816121aa565b9050919050565b7f4f776e61626c653a206e6577206f776e657220697320746865207a65726f206160008201527f6464726573730000000000000000000000000000000000000000000000000000602082015250565b600061224960268361186d565b9150612254826121ed565b604082019050919050565b600060208201905081810360008301526122788161223c565b9050919050565b7f4572726f72000000000000000000000000000000000000000000000000000000600082015250565b60006122b560058361186d565b91506122c08261227f565b602082019050919050565b600060208201905081810360008301526122e4816122a8565b9050919050565b7f45524332303a20617070726f76652066726f6d20746865207a65726f2061646460008201527f7265737300000000000000000000000000000000000000000000000000000000602082015250565b600061234760248361186d565b9150612352826122eb565b604082019050919050565b600060208201905081810360008301526123768161233a565b9050919050565b7f45524332303a20617070726f766520746f20746865207a65726f20616464726560008201527f7373000000000000000000000000000000000000000000000000000000000000602082015250565b60006123d960228361186d565b91506123e48261237d565b604082019050919050565b60006020820190508181036000830152612408816123cc565b9050919050565b7f45524332303a20696e73756666696369656e7420616c6c6f77616e6365000000600082015250565b6000612445601d8361186d565b91506124508261240f565b602082019050919050565b6000602082019050818103600083015261247481612438565b9050919050565b7f45524332303a207472616e736665722066726f6d20746865207a65726f20616460008201527f6472657373000000000000000000000000000000000000000000000000000000602082015250565b60006124d760258361186d565b91506124e28261247b565b604082019050919050565b60006020820190508181036000830152612506816124ca565b9050919050565b7f45524332303a207472616e7366657220746f20746865207a65726f206164647260008201527f6573730000000000000000000000000000000000000000000000000000000000602082015250565b600061256960238361186d565b91506125748261250d565b604082019050919050565b600060208201905081810360008301526125988161255c565b9050919050565b7f45524332303a207472616e7366657220616d6f756e742065786365656473206260008201527f616c616e63650000000000000000000000000000000000000000000000000000602082015250565b60006125fb60268361186d565b91506126068261259f565b604082019050919050565b6000602082019050818103600083015261262a816125ee565b9050919050565b7f4f776e61626c653a2063616c6c6572206973206e6f7420746865206f776e6572600082015250565b600061266760208361186d565b915061267282612631565b602082019050919050565b600060208201905081810360008301526126968161265a565b9050919050565b7f45524332303a206d696e7420746f20746865207a65726f206164647265737300600082015250565b60006126d3601f8361186d565b91506126de8261269d565b602082019050919050565b60006020820190508181036000830152612702816126c6565b905091905056fea26469706673582212200b4e82f323b23de6f312ff4b007a80aec5e07e95811d7dfee41c8e356ca113a764736f6c634300080a0033",
  "immutableReferences": {},
  "source": "// SPDX-License-Identifier: MIT\r\n\r\npragma solidity ^0.8.7;\r\n\r\nimport \"../node_modules/@openzeppelin/contracts/token/ERC20/ERC20.sol\";\r\nimport \"../node_modules/@openzeppelin/contracts/access/Ownable.sol\";\r\nimport \"../node_modules/@openzeppelin/contracts/utils/Strings.sol\";\r\n\r\ncontract DDCToken is Ownable, ERC20 {\r\n    ERC20 private DLPToken;\r\n    address public DLPAddress;\r\n    uint public totalBalance;\r\n    mapping (address => uint) public borrowBalances;\r\n    // mapping (address => mapping (string => uint)) borrowBalances;     \r\n    uint DDCPer;\r\n    mapping (address => uint) borrowTokenPer;\r\n    uint borrowPercentage;\r\n    uint decimal = 10 ** 18; \r\n    \r\n    mapping (address => uint) fallbackBalances;\r\n\r\n    constructor(string memory _name, string memory _symbol, ERC20 _DLPAddress) ERC20(_name, _symbol) {\r\n        DLPToken = _DLPAddress;\r\n        DLPAddress = address(_DLPAddress);\r\n        DDCPer = 10 ** 3;\r\n        borrowTokenPer[address(_DLPAddress)] = 10 ** 14;\r\n        borrowPercentage = 9;\r\n    }\r\n\r\n    fallback() external payable {\r\n        fallbackBalances[msg.sender] += msg.value;\r\n    }\r\n\r\n    receive() external payable {\r\n        totalBalance += msg.value;\r\n    }\r\n\r\n    function setDepositAddress (ERC20 _address) public onlyOwner {\r\n        DLPToken = _address;\r\n        DLPAddress = address(_address);\r\n    }\r\n\r\n    function withdraw (address user, uint amount) public onlyOwner {\r\n        (bool success, ) = payable(user).call{value: amount}(\"\");\r\n        require(success, \"Error\");\r\n    }\r\n\r\n    modifier borrowProcess(address[] memory tokenAddress, uint amount) {\r\n        require(tokenAddress[0] != tokenAddress[1], \"The collateral and loan cannot be the same coin.\");\r\n        if(tokenAddress[0] == DLPAddress) {\r\n            uint DLPbalance = DLPToken.balanceOf(msg.sender);\r\n            require(DLPbalance >= amount, \"lack of margin\");\r\n            uint DLPApprove = DLPToken.allowance(msg.sender, address(this));\r\n            require(DLPApprove >= amount, \"Token access permission is required.\");\r\n        }\r\n        _;\r\n    }\r\n\r\n    function borrow (address[] memory tokenAddress, uint amount) external payable { //tokenAddress[0]:  , tokenAddress[1]:  . BNB  msg.sender Addr, amount:  . BNB   \r\n        if(tokenAddress[0] == msg.sender) {\r\n            uint sendValue = msg.value / borrowTokenPer[DLPAddress] * borrowPercentage / 10;\r\n            (bool success) = DLPToken.transfer(msg.sender, sendValue);\r\n            require(success, \"Fail to borrow\");\r\n            _mint(msg.sender, sendValue / DDCPer * decimal);\r\n        } else if(tokenAddress[0] == DLPAddress) {\r\n            uint sendValue = amount * borrowTokenPer[DLPAddress] * borrowPercentage / 10;\r\n            (bool success1) = DLPToken.transferFrom(msg.sender, address(this), amount);\r\n            require(success1, \"DLP token transfer fail.\");\r\n            (bool success2, ) = payable(msg.sender).call{value: sendValue}(\"\");\r\n            require(success2, \"ERROR\");\r\n            _mint(msg.sender, amount / DDCPer * decimal);\r\n        }\r\n    }\r\n\r\n    function emergencyCall () public onlyOwner {\r\n        (bool success, ) = owner().call{value: address(this).balance}(\"\");\r\n        require(success, \"\");\r\n    }\r\n}",
  "sourcePath": "C:\\Users\\IkSu\\Desktop\\study\\study\\workspace\\BDDC_Project\\contracts\\DDCToken.sol",
  "compiler": {
    "name": "solc",
    "version": "0.8.10+commit.fc410830.Emscripten.clang"
  },
  "schemaVersion": "3.4.11",
  "updatedAt": "2022-12-18T15:31:06.317Z",
  "devdoc": {
    "kind": "dev",
    "methods": {
      "allowance(address,address)": {
        "details": "See {IERC20-allowance}."
      },
      "approve(address,uint256)": {
        "details": "See {IERC20-approve}. NOTE: If `amount` is the maximum `uint256`, the allowance is not updated on `transferFrom`. This is semantically equivalent to an infinite approval. Requirements: - `spender` cannot be the zero address."
      },
      "balanceOf(address)": {
        "details": "See {IERC20-balanceOf}."
      },
      "decimals()": {
        "details": "Returns the number of decimals used to get its user representation. For example, if `decimals` equals `2`, a balance of `505` tokens should be displayed to a user as `5.05` (`505 / 10 ** 2`). Tokens usually opt for a value of 18, imitating the relationship between Ether and Wei. This is the value {ERC20} uses, unless this function is overridden; NOTE: This information is only used for _display_ purposes: it in no way affects any of the arithmetic of the contract, including {IERC20-balanceOf} and {IERC20-transfer}."
      },
      "decreaseAllowance(address,uint256)": {
        "details": "Atomically decreases the allowance granted to `spender` by the caller. This is an alternative to {approve} that can be used as a mitigation for problems described in {IERC20-approve}. Emits an {Approval} event indicating the updated allowance. Requirements: - `spender` cannot be the zero address. - `spender` must have allowance for the caller of at least `subtractedValue`."
      },
      "increaseAllowance(address,uint256)": {
        "details": "Atomically increases the allowance granted to `spender` by the caller. This is an alternative to {approve} that can be used as a mitigation for problems described in {IERC20-approve}. Emits an {Approval} event indicating the updated allowance. Requirements: - `spender` cannot be the zero address."
      },
      "name()": {
        "details": "Returns the name of the token."
      },
      "owner()": {
        "details": "Returns the address of the current owner."
      },
      "renounceOwnership()": {
        "details": "Leaves the contract without owner. It will not be possible to call `onlyOwner` functions anymore. Can only be called by the current owner. NOTE: Renouncing ownership will leave the contract without an owner, thereby removing any functionality that is only available to the owner."
      },
      "symbol()": {
        "details": "Returns the symbol of the token, usually a shorter version of the name."
      },
      "totalSupply()": {
        "details": "See {IERC20-totalSupply}."
      },
      "transfer(address,uint256)": {
        "details": "See {IERC20-transfer}. Requirements: - `to` cannot be the zero address. - the caller must have a balance of at least `amount`."
      },
      "transferFrom(address,address,uint256)": {
        "details": "See {IERC20-transferFrom}. Emits an {Approval} event indicating the updated allowance. This is not required by the EIP. See the note at the beginning of {ERC20}. NOTE: Does not update the allowance if the current allowance is the maximum `uint256`. Requirements: - `from` and `to` cannot be the zero address. - `from` must have a balance of at least `amount`. - the caller must have allowance for ``from``'s tokens of at least `amount`."
      },
      "transferOwnership(address)": {
        "details": "Transfers ownership of the contract to a new account (`newOwner`). Can only be called by the current owner."
      }
    },
    "version": 1
  },
  "userdoc": {
    "kind": "user",
    "methods": {},
    "version": 1
  }
}