{
  "contractName": "DLPToken",
  "abi": [
    {
      "inputs": [
        {
          "internalType": "string",
          "name": "_name",
          "type": "string"
        },
        {
          "internalType": "string",
          "name": "_symbol",
          "type": "string"
        },
        {
          "internalType": "address payable",
          "name": "_DDCAddress",
          "type": "address"
        }
      ],
      "stateMutability": "nonpayable",
      "type": "constructor"
    },
    {
      "anonymous": false,
      "inputs": [
        {
          "indexed": true,
          "internalType": "address",
          "name": "owner",
          "type": "address"
        },
        {
          "indexed": true,
          "internalType": "address",
          "name": "spender",
          "type": "address"
        },
        {
          "indexed": false,
          "internalType": "uint256",
          "name": "value",
          "type": "uint256"
        }
      ],
      "name": "Approval",
      "type": "event"
    },
    {
      "anonymous": false,
      "inputs": [
        {
          "indexed": true,
          "internalType": "address",
          "name": "previousOwner",
          "type": "address"
        },
        {
          "indexed": true,
          "internalType": "address",
          "name": "newOwner",
          "type": "address"
        }
      ],
      "name": "OwnershipTransferred",
      "type": "event"
    },
    {
      "anonymous": false,
      "inputs": [
        {
          "indexed": true,
          "internalType": "address",
          "name": "from",
          "type": "address"
        },
        {
          "indexed": true,
          "internalType": "address",
          "name": "to",
          "type": "address"
        },
        {
          "indexed": false,
          "internalType": "uint256",
          "name": "value",
          "type": "uint256"
        }
      ],
      "name": "Transfer",
      "type": "event"
    },
    {
      "stateMutability": "payable",
      "type": "fallback"
    },
    {
      "inputs": [],
      "name": "DDCAddress",
      "outputs": [
        {
          "internalType": "address payable",
          "name": "",
          "type": "address"
        }
      ],
      "stateMutability": "view",
      "type": "function"
    },
    {
      "inputs": [
        {
          "internalType": "string",
          "name": "",
          "type": "string"
        }
      ],
      "name": "DLPRatio",
      "outputs": [
        {
          "internalType": "uint128",
          "name": "",
          "type": "uint128"
        }
      ],
      "stateMutability": "view",
      "type": "function"
    },
    {
      "inputs": [
        {
          "internalType": "address",
          "name": "owner",
          "type": "address"
        },
        {
          "internalType": "address",
          "name": "spender",
          "type": "address"
        }
      ],
      "name": "allowance",
      "outputs": [
        {
          "internalType": "uint256",
          "name": "",
          "type": "uint256"
        }
      ],
      "stateMutability": "view",
      "type": "function"
    },
    {
      "inputs": [
        {
          "internalType": "address",
          "name": "spender",
          "type": "address"
        },
        {
          "internalType": "uint256",
          "name": "amount",
          "type": "uint256"
        }
      ],
      "name": "approve",
      "outputs": [
        {
          "internalType": "bool",
          "name": "",
          "type": "bool"
        }
      ],
      "stateMutability": "nonpayable",
      "type": "function"
    },
    {
      "inputs": [
        {
          "internalType": "address",
          "name": "account",
          "type": "address"
        }
      ],
      "name": "balanceOf",
      "outputs": [
        {
          "internalType": "uint256",
          "name": "",
          "type": "uint256"
        }
      ],
      "stateMutability": "view",
      "type": "function"
    },
    {
      "inputs": [],
      "name": "decimals",
      "outputs": [
        {
          "internalType": "uint8",
          "name": "",
          "type": "uint8"
        }
      ],
      "stateMutability": "view",
      "type": "function"
    },
    {
      "inputs": [
        {
          "internalType": "address",
          "name": "spender",
          "type": "address"
        },
        {
          "internalType": "uint256",
          "name": "subtractedValue",
          "type": "uint256"
        }
      ],
      "name": "decreaseAllowance",
      "outputs": [
        {
          "internalType": "bool",
          "name": "",
          "type": "bool"
        }
      ],
      "stateMutability": "nonpayable",
      "type": "function"
    },
    {
      "inputs": [
        {
          "internalType": "address",
          "name": "spender",
          "type": "address"
        },
        {
          "internalType": "uint256",
          "name": "addedValue",
          "type": "uint256"
        }
      ],
      "name": "increaseAllowance",
      "outputs": [
        {
          "internalType": "bool",
          "name": "",
          "type": "bool"
        }
      ],
      "stateMutability": "nonpayable",
      "type": "function"
    },
    {
      "inputs": [],
      "name": "name",
      "outputs": [
        {
          "internalType": "string",
          "name": "",
          "type": "string"
        }
      ],
      "stateMutability": "view",
      "type": "function"
    },
    {
      "inputs": [],
      "name": "owner",
      "outputs": [
        {
          "internalType": "address",
          "name": "",
          "type": "address"
        }
      ],
      "stateMutability": "view",
      "type": "function"
    },
    {
      "inputs": [],
      "name": "renounceOwnership",
      "outputs": [],
      "stateMutability": "nonpayable",
      "type": "function"
    },
    {
      "inputs": [],
      "name": "symbol",
      "outputs": [
        {
          "internalType": "string",
          "name": "",
          "type": "string"
        }
      ],
      "stateMutability": "view",
      "type": "function"
    },
    {
      "inputs": [],
      "name": "totalStaking",
      "outputs": [
        {
          "internalType": "uint256",
          "name": "",
          "type": "uint256"
        }
      ],
      "stateMutability": "view",
      "type": "function"
    },
    {
      "inputs": [],
      "name": "totalSupply",
      "outputs": [
        {
          "internalType": "uint256",
          "name": "",
          "type": "uint256"
        }
      ],
      "stateMutability": "view",
      "type": "function"
    },
    {
      "inputs": [
        {
          "internalType": "address",
          "name": "to",
          "type": "address"
        },
        {
          "internalType": "uint256",
          "name": "amount",
          "type": "uint256"
        }
      ],
      "name": "transfer",
      "outputs": [
        {
          "internalType": "bool",
          "name": "",
          "type": "bool"
        }
      ],
      "stateMutability": "nonpayable",
      "type": "function"
    },
    {
      "inputs": [
        {
          "internalType": "address",
          "name": "from",
          "type": "address"
        },
        {
          "internalType": "address",
          "name": "to",
          "type": "address"
        },
        {
          "internalType": "uint256",
          "name": "amount",
          "type": "uint256"
        }
      ],
      "name": "transferFrom",
      "outputs": [
        {
          "internalType": "bool",
          "name": "",
          "type": "bool"
        }
      ],
      "stateMutability": "nonpayable",
      "type": "function"
    },
    {
      "inputs": [
        {
          "internalType": "address",
          "name": "newOwner",
          "type": "address"
        }
      ],
      "name": "transferOwnership",
      "outputs": [],
      "stateMutability": "nonpayable",
      "type": "function"
    },
    {
      "stateMutability": "payable",
      "type": "receive"
    },
    {
      "inputs": [
        {
          "internalType": "address payable",
          "name": "_address",
          "type": "address"
        }
      ],
      "name": "setStakingAddress",
      "outputs": [],
      "stateMutability": "nonpayable",
      "type": "function"
    },
    {
      "inputs": [
        {
          "internalType": "string",
          "name": "CoinSymbol",
          "type": "string"
        },
        {
          "internalType": "uint128",
          "name": "Ratio",
          "type": "uint128"
        }
      ],
      "name": "changeDLPRatio",
      "outputs": [],
      "stateMutability": "nonpayable",
      "type": "function"
    },
    {
      "inputs": [
        {
          "internalType": "string",
          "name": "CoinSymbol",
          "type": "string"
        }
      ],
      "name": "getDLPRatio",
      "outputs": [
        {
          "internalType": "uint128",
          "name": "",
          "type": "uint128"
        }
      ],
      "stateMutability": "view",
      "type": "function"
    },
    {
      "inputs": [],
      "name": "buyDLP",
      "outputs": [],
      "stateMutability": "payable",
      "type": "function"
    },
    {
      "inputs": [
        {
          "internalType": "uint256",
          "name": "DLPamount",
          "type": "uint256"
        }
      ],
      "name": "sellDLP",
      "outputs": [],
      "stateMutability": "nonpayable",
      "type": "function"
    },
    {
      "inputs": [
        {
          "internalType": "uint256",
          "name": "DLPamount",
          "type": "uint256"
        }
      ],
      "name": "stake",
      "outputs": [],
      "stateMutability": "nonpayable",
      "type": "function"
    },
    {
      "inputs": [
        {
          "internalType": "uint256",
          "name": "DLPamount",
          "type": "uint256"
        }
      ],
      "name": "unstake",
      "outputs": [],
      "stateMutability": "nonpayable",
      "type": "function"
    },
    {
      "inputs": [],
      "name": "myBalance",
      "outputs": [
        {
          "internalType": "uint256",
          "name": "amount",
          "type": "uint256"
        }
      ],
      "stateMutability": "view",
      "type": "function"
    },
    {
      "inputs": [],
      "name": "getStakingBalance",
      "outputs": [
        {
          "internalType": "uint256",
          "name": "amount",
          "type": "uint256"
        }
      ],
      "stateMutability": "view",
      "type": "function"
    },
    {
      "inputs": [
        {
          "internalType": "address",
          "name": "account",
          "type": "address"
        }
      ],
      "name": "getStakingBalance",
      "outputs": [
        {
          "internalType": "uint256",
          "name": "amount",
          "type": "uint256"
        }
      ],
      "stateMutability": "view",
      "type": "function"
    },
    {
      "inputs": [],
      "name": "emergencyCall",
      "outputs": [],
      "stateMutability": "nonpayable",
      "type": "function"
    }
  ],
  "bytecode": "0x6080604052670de0b6b3a7640000600b553480156200001d57600080fd5b50604051620034b5380380620034b58339818101604052810190620000439190620004bc565b828262000065620000596200013e60201b60201c565b6200014660201b60201c565b81600490805190602001906200007d9291906200020a565b508060059080519060200190620000969291906200020a565b50505080600660006101000a81548173ffffffffffffffffffffffffffffffffffffffff021916908373ffffffffffffffffffffffffffffffffffffffff160217905550655af3107a40006009604051620000f190620005b1565b908152602001604051809103902060006101000a8154816fffffffffffffffffffffffffffffffff02191690836fffffffffffffffffffffffffffffffff1602179055505050506200062d565b600033905090565b60008060009054906101000a900473ffffffffffffffffffffffffffffffffffffffff169050816000806101000a81548173ffffffffffffffffffffffffffffffffffffffff021916908373ffffffffffffffffffffffffffffffffffffffff1602179055508173ffffffffffffffffffffffffffffffffffffffff168173ffffffffffffffffffffffffffffffffffffffff167f8be0079c531659141344cd1fd0a4f28419497f9722a3daafe3b4186f6b6457e060405160405180910390a35050565b8280546200021890620005f7565b90600052602060002090601f0160209004810192826200023c576000855562000288565b82601f106200025757805160ff191683800117855562000288565b8280016001018555821562000288579182015b82811115620002875782518255916020019190600101906200026a565b5b5090506200029791906200029b565b5090565b5b80821115620002b65760008160009055506001016200029c565b5090565b6000604051905090565b600080fd5b600080fd5b600080fd5b600080fd5b6000601f19601f8301169050919050565b7f4e487b7100000000000000000000000000000000000000000000000000000000600052604160045260246000fd5b6200032382620002d8565b810181811067ffffffffffffffff82111715620003455762000344620002e9565b5b80604052505050565b60006200035a620002ba565b905062000368828262000318565b919050565b600067ffffffffffffffff8211156200038b576200038a620002e9565b5b6200039682620002d8565b9050602081019050919050565b60005b83811015620003c3578082015181840152602081019050620003a6565b83811115620003d3576000848401525b50505050565b6000620003f0620003ea846200036d565b6200034e565b9050828152602081018484840111156200040f576200040e620002d3565b5b6200041c848285620003a3565b509392505050565b600082601f8301126200043c576200043b620002ce565b5b81516200044e848260208601620003d9565b91505092915050565b600073ffffffffffffffffffffffffffffffffffffffff82169050919050565b6000620004848262000457565b9050919050565b620004968162000477565b8114620004a257600080fd5b50565b600081519050620004b6816200048b565b92915050565b600080600060608486031215620004d857620004d7620002c4565b5b600084015167ffffffffffffffff811115620004f957620004f8620002c9565b5b620005078682870162000424565b935050602084015167ffffffffffffffff8111156200052b576200052a620002c9565b5b620005398682870162000424565b92505060406200054c86828701620004a5565b9150509250925092565b600081905092915050565b7f424e420000000000000000000000000000000000000000000000000000000000600082015250565b60006200059960038362000556565b9150620005a68262000561565b600382019050919050565b6000620005be826200058a565b9150819050919050565b7f4e487b7100000000000000000000000000000000000000000000000000000000600052602260045260246000fd5b600060028204905060018216806200061057607f821691505b60208210811415620006275762000626620005c8565b5b50919050565b612e78806200063d6000396000f3fe6080604052600436106101bb5760003560e01c806370a08231116100ec578063a694fc3a1161008a578063c9116b6911610064578063c9116b69146106c9578063dd62ed3e146106f4578063f2fde38b14610731578063f4e0d9ac1461075a57610218565b8063a694fc3a14610626578063a9059cbb1461064f578063b04ef9c21461068c57610218565b80638da5cb5b116100c65780638da5cb5b1461056a57806395d89b4114610595578063a457c2d7146105c0578063a4dfbf28146105fd57610218565b806370a08231146104eb578063715018a61461052857806378fe2be61461053f57610218565b80632e17de78116101595780633950935111610133578063395093511461043c578063473c5b9d14610479578063570a6c18146104b657806362711a5d146104c057610218565b80632e17de78146103ab578063313ce567146103d457806333e397da146103ff57610218565b8063165defa411610195578063165defa41461030157806318160ddd1461032c57806323b872dd14610357578063299ed37a1461039457610218565b806306fdde0314610270578063095ea7b31461029b5780630966019f146102d857610218565b366102185734600c60003373ffffffffffffffffffffffffffffffffffffffff1673ffffffffffffffffffffffffffffffffffffffff168152602001908152602001600020600082825461020f9190611cb6565b92505081905550005b34600c60003373ffffffffffffffffffffffffffffffffffffffff1673ffffffffffffffffffffffffffffffffffffffff16815260200190815260200160002060008282546102679190611cb6565b92505081905550005b34801561027c57600080fd5b50610285610783565b6040516102929190611da5565b60405180910390f35b3480156102a757600080fd5b506102c260048036038101906102bd9190611e65565b610815565b6040516102cf9190611ec0565b60405180910390f35b3480156102e457600080fd5b506102ff60048036038101906102fa9190611edb565b610838565b005b34801561030d57600080fd5b506103166109a1565b6040516103239190611f17565b60405180910390f35b34801561033857600080fd5b506103416109a7565b60405161034e9190611f17565b60405180910390f35b34801561036357600080fd5b5061037e60048036038101906103799190611f32565b6109b1565b60405161038b9190611ec0565b60405180910390f35b3480156103a057600080fd5b506103a96109e0565b005b3480156103b757600080fd5b506103d260048036038101906103cd9190611edb565b610a9e565b005b3480156103e057600080fd5b506103e9610b94565b6040516103f69190611fa1565b60405180910390f35b34801561040b57600080fd5b50610426600480360381019061042191906120f1565b610b9d565b6040516104339190612165565b60405180910390f35b34801561044857600080fd5b50610463600480360381019061045e9190611e65565b610be1565b6040516104709190611ec0565b60405180910390f35b34801561048557600080fd5b506104a0600480360381019061049b91906120f1565b610c18565b6040516104ad9190612165565b60405180910390f35b6104be610c5d565b005b3480156104cc57600080fd5b506104d5610de9565b6040516104e29190611f17565b60405180910390f35b3480156104f757600080fd5b50610512600480360381019061050d9190612180565b610e30565b60405161051f9190611f17565b60405180910390f35b34801561053457600080fd5b5061053d610e79565b005b34801561054b57600080fd5b50610554610e8d565b60405161056191906121ce565b60405180910390f35b34801561057657600080fd5b5061057f610eb3565b60405161058c91906121f8565b60405180910390f35b3480156105a157600080fd5b506105aa610edc565b6040516105b79190611da5565b60405180910390f35b3480156105cc57600080fd5b506105e760048036038101906105e29190611e65565b610f6e565b6040516105f49190611ec0565b60405180910390f35b34801561060957600080fd5b50610624600480360381019061061f919061223f565b610fe5565b005b34801561063257600080fd5b5061064d60048036038101906106489190611edb565b611046565b005b34801561065b57600080fd5b5061067660048036038101906106719190611e65565b611140565b6040516106839190611ec0565b60405180910390f35b34801561069857600080fd5b506106b360048036038101906106ae9190612180565b611163565b6040516106c09190611f17565b60405180910390f35b3480156106d557600080fd5b506106de6111ac565b6040516106eb9190611f17565b60405180910390f35b34801561070057600080fd5b5061071b6004803603810190610716919061229b565b6111bc565b6040516107289190611f17565b60405180910390f35b34801561073d57600080fd5b5061075860048036038101906107539190612180565b611243565b005b34801561076657600080fd5b50610781600480360381019061077c9190612307565b6112c7565b005b60606004805461079290612363565b80601f01602080910402602001604051908101604052809291908181526020018280546107be90612363565b801561080b5780601f106107e05761010080835404028352916020019161080b565b820191906000526020600020905b8154815290600101906020018083116107ee57829003601f168201915b5050505050905090565b60008061082061132f565b905061082d818585611337565b600191505092915050565b808061084333610e30565b1015610884576040517f08c379a000000000000000000000000000000000000000000000000000000000815260040161087b906123e1565b60405180910390fd5b61088e3383611502565b60003373ffffffffffffffffffffffffffffffffffffffff16600b5460096040516108b890612458565b908152602001604051809103902060009054906101000a90046fffffffffffffffffffffffffffffffff166fffffffffffffffffffffffffffffffff1685610900919061246d565b61090a91906124f6565b60405161091690612558565b60006040518083038185875af1925050503d8060008114610953576040519150601f19603f3d011682016040523d82523d6000602084013e610958565b606091505b505090508061099c576040517f08c379a0000000000000000000000000000000000000000000000000000000008152600401610993906125b9565b60405180910390fd5b505050565b600a5481565b6000600354905090565b6000806109bc61132f565b90506109c98582856116d2565b6109d485858561175e565b60019150509392505050565b6109e86119d9565b60006109f2610eb3565b73ffffffffffffffffffffffffffffffffffffffff1647604051610a1590612558565b60006040518083038185875af1925050503d8060008114610a52576040519150601f19603f3d011682016040523d82523d6000602084013e610a57565b606091505b5050905080610a9b576040517f08c379a0000000000000000000000000000000000000000000000000000000008152600401610a92906125fc565b60405180910390fd5b50565b8080600860003373ffffffffffffffffffffffffffffffffffffffff1673ffffffffffffffffffffffffffffffffffffffff168152602001908152602001600020541015610b21576040517f08c379a0000000000000000000000000000000000000000000000000000000008152600401610b1890612668565b60405180910390fd5b81600860003373ffffffffffffffffffffffffffffffffffffffff1673ffffffffffffffffffffffffffffffffffffffff1681526020019081526020016000206000828254610b709190612688565b9250508190555081600a6000828254610b899190612688565b925050819055505050565b60006012905090565b6000600982604051610baf91906126ed565b908152602001604051809103902060009054906101000a90046fffffffffffffffffffffffffffffffff169050919050565b600080610bec61132f565b9050610c0d818585610bfe85896111bc565b610c089190611cb6565b611337565b600191505092915050565b6009818051602081018201805184825260208301602085012081835280955050505050506000915054906101000a90046fffffffffffffffffffffffffffffffff1681565b655af3107a4000341015610ca6576040517f08c379a0000000000000000000000000000000000000000000000000000000008152600401610c9d90612750565b60405180910390fd5b6000600660009054906101000a900473ffffffffffffffffffffffffffffffffffffffff1673ffffffffffffffffffffffffffffffffffffffff1634604051610cee90612558565b60006040518083038185875af1925050503d8060008114610d2b576040519150601f19603f3d011682016040523d82523d6000602084013e610d30565b606091505b5050905080610d74576040517f08c379a0000000000000000000000000000000000000000000000000000000008152600401610d6b906125fc565b60405180910390fd5b6000600b546009604051610d8790612458565b908152602001604051809103902060009054906101000a90046fffffffffffffffffffffffffffffffff166fffffffffffffffffffffffffffffffff1634610dcf91906124f6565b610dd9919061246d565b9050610de53382611a57565b5050565b6000600860003373ffffffffffffffffffffffffffffffffffffffff1673ffffffffffffffffffffffffffffffffffffffff16815260200190815260200160002054905090565b6000600160008373ffffffffffffffffffffffffffffffffffffffff1673ffffffffffffffffffffffffffffffffffffffff168152602001908152602001600020549050919050565b610e816119d9565b610e8b6000611baf565b565b600660009054906101000a900473ffffffffffffffffffffffffffffffffffffffff1681565b60008060009054906101000a900473ffffffffffffffffffffffffffffffffffffffff16905090565b606060058054610eeb90612363565b80601f0160208091040260200160405190810160405280929190818152602001828054610f1790612363565b8015610f645780601f10610f3957610100808354040283529160200191610f64565b820191906000526020600020905b815481529060010190602001808311610f4757829003601f168201915b5050505050905090565b600080610f7961132f565b90506000610f8782866111bc565b905083811015610fcc576040517f08c379a0000000000000000000000000000000000000000000000000000000008152600401610fc3906127e2565b60405180910390fd5b610fd98286868403611337565b60019250505092915050565b610fed6119d9565b80600983604051610ffe91906126ed565b908152602001604051809103902060006101000a8154816fffffffffffffffffffffffffffffffff02191690836fffffffffffffffffffffffffffffffff1602179055505050565b808061105133610e30565b1015611092576040517f08c379a00000000000000000000000000000000000000000000000000000000081526004016110899061284e565b60405180910390fd5b60006110c0600660009054906101000a900473ffffffffffffffffffffffffffffffffffffffff1684611140565b9050806110cc57600080fd5b82600860003373ffffffffffffffffffffffffffffffffffffffff1673ffffffffffffffffffffffffffffffffffffffff168152602001908152602001600020600082825461111b9190611cb6565b9250508190555082600a60008282546111349190611cb6565b92505081905550505050565b60008061114b61132f565b905061115881858561175e565b600191505092915050565b6000600860008373ffffffffffffffffffffffffffffffffffffffff1673ffffffffffffffffffffffffffffffffffffffff168152602001908152602001600020549050919050565b60006111b733610e30565b905090565b6000600260008473ffffffffffffffffffffffffffffffffffffffff1673ffffffffffffffffffffffffffffffffffffffff16815260200190815260200160002060008373ffffffffffffffffffffffffffffffffffffffff1673ffffffffffffffffffffffffffffffffffffffff16815260200190815260200160002054905092915050565b61124b6119d9565b600073ffffffffffffffffffffffffffffffffffffffff168173ffffffffffffffffffffffffffffffffffffffff1614156112bb576040517f08c379a00000000000000000000000000000000000000000000000000000000081526004016112b2906128e0565b60405180910390fd5b6112c481611baf565b50565b6112cf6119d9565b80600660006101000a81548173ffffffffffffffffffffffffffffffffffffffff021916908373ffffffffffffffffffffffffffffffffffffffff16021790555061132c81600b546402540be400611327919061246d565b611a57565b50565b600033905090565b600073ffffffffffffffffffffffffffffffffffffffff168373ffffffffffffffffffffffffffffffffffffffff1614156113a7576040517f08c379a000000000000000000000000000000000000000000000000000000000815260040161139e90612972565b60405180910390fd5b600073ffffffffffffffffffffffffffffffffffffffff168273ffffffffffffffffffffffffffffffffffffffff161415611417576040517f08c379a000000000000000000000000000000000000000000000000000000000815260040161140e90612a04565b60405180910390fd5b80600260008573ffffffffffffffffffffffffffffffffffffffff1673ffffffffffffffffffffffffffffffffffffffff16815260200190815260200160002060008473ffffffffffffffffffffffffffffffffffffffff1673ffffffffffffffffffffffffffffffffffffffff168152602001908152602001600020819055508173ffffffffffffffffffffffffffffffffffffffff168373ffffffffffffffffffffffffffffffffffffffff167f8c5be1e5ebec7d5bd14f71427d1e84f3dd0314c0f7b2291e5b200ac8c7c3b925836040516114f59190611f17565b60405180910390a3505050565b600073ffffffffffffffffffffffffffffffffffffffff168273ffffffffffffffffffffffffffffffffffffffff161415611572576040517f08c379a000000000000000000000000000000000000000000000000000000000815260040161156990612a96565b60405180910390fd5b61157e82600083611c73565b6000600160008473ffffffffffffffffffffffffffffffffffffffff1673ffffffffffffffffffffffffffffffffffffffff16815260200190815260200160002054905081811015611605576040517f08c379a00000000000000000000000000000000000000000000000000000000081526004016115fc90612b28565b60405180910390fd5b818103600160008573ffffffffffffffffffffffffffffffffffffffff1673ffffffffffffffffffffffffffffffffffffffff1681526020019081526020016000208190555081600360008282540392505081905550600073ffffffffffffffffffffffffffffffffffffffff168373ffffffffffffffffffffffffffffffffffffffff167fddf252ad1be2c89b69c2b068fc378daa952ba7f163c4a11628f55a4df523b3ef846040516116b99190611f17565b60405180910390a36116cd83600084611c78565b505050565b60006116de84846111bc565b90507fffffffffffffffffffffffffffffffffffffffffffffffffffffffffffffffff8114611758578181101561174a576040517f08c379a000000000000000000000000000000000000000000000000000000000815260040161174190612b94565b60405180910390fd5b6117578484848403611337565b5b50505050565b600073ffffffffffffffffffffffffffffffffffffffff168373ffffffffffffffffffffffffffffffffffffffff1614156117ce576040517f08c379a00000000000000000000000000000000000000000000000000000000081526004016117c590612c26565b60405180910390fd5b600073ffffffffffffffffffffffffffffffffffffffff168273ffffffffffffffffffffffffffffffffffffffff16141561183e576040517f08c379a000000000000000000000000000000000000000000000000000000000815260040161183590612cb8565b60405180910390fd5b611849838383611c73565b6000600160008573ffffffffffffffffffffffffffffffffffffffff1673ffffffffffffffffffffffffffffffffffffffff168152602001908152602001600020549050818110156118d0576040517f08c379a00000000000000000000000000000000000000000000000000000000081526004016118c790612d4a565b60405180910390fd5b818103600160008673ffffffffffffffffffffffffffffffffffffffff1673ffffffffffffffffffffffffffffffffffffffff1681526020019081526020016000208190555081600160008573ffffffffffffffffffffffffffffffffffffffff1673ffffffffffffffffffffffffffffffffffffffff168152602001908152602001600020600082825401925050819055508273ffffffffffffffffffffffffffffffffffffffff168473ffffffffffffffffffffffffffffffffffffffff167fddf252ad1be2c89b69c2b068fc378daa952ba7f163c4a11628f55a4df523b3ef846040516119c09190611f17565b60405180910390a36119d3848484611c78565b50505050565b6119e161132f565b73ffffffffffffffffffffffffffffffffffffffff166119ff610eb3565b73ffffffffffffffffffffffffffffffffffffffff1614611a55576040517f08c379a0000000000000000000000000000000000000000000000000000000008152600401611a4c90612db6565b60405180910390fd5b565b600073ffffffffffffffffffffffffffffffffffffffff168273ffffffffffffffffffffffffffffffffffffffff161415611ac7576040517f08c379a0000000000000000000000000000000000000000000000000000000008152600401611abe90612e22565b60405180910390fd5b611ad360008383611c73565b8060036000828254611ae59190611cb6565b9250508190555080600160008473ffffffffffffffffffffffffffffffffffffffff1673ffffffffffffffffffffffffffffffffffffffff168152602001908152602001600020600082825401925050819055508173ffffffffffffffffffffffffffffffffffffffff16600073ffffffffffffffffffffffffffffffffffffffff167fddf252ad1be2c89b69c2b068fc378daa952ba7f163c4a11628f55a4df523b3ef83604051611b979190611f17565b60405180910390a3611bab60008383611c78565b5050565b60008060009054906101000a900473ffffffffffffffffffffffffffffffffffffffff169050816000806101000a81548173ffffffffffffffffffffffffffffffffffffffff021916908373ffffffffffffffffffffffffffffffffffffffff1602179055508173ffffffffffffffffffffffffffffffffffffffff168173ffffffffffffffffffffffffffffffffffffffff167f8be0079c531659141344cd1fd0a4f28419497f9722a3daafe3b4186f6b6457e060405160405180910390a35050565b505050565b505050565b6000819050919050565b7f4e487b7100000000000000000000000000000000000000000000000000000000600052601160045260246000fd5b6000611cc182611c7d565b9150611ccc83611c7d565b9250827fffffffffffffffffffffffffffffffffffffffffffffffffffffffffffffffff03821115611d0157611d00611c87565b5b828201905092915050565b600081519050919050565b600082825260208201905092915050565b60005b83811015611d46578082015181840152602081019050611d2b565b83811115611d55576000848401525b50505050565b6000601f19601f8301169050919050565b6000611d7782611d0c565b611d818185611d17565b9350611d91818560208601611d28565b611d9a81611d5b565b840191505092915050565b60006020820190508181036000830152611dbf8184611d6c565b905092915050565b6000604051905090565b600080fd5b600080fd5b600073ffffffffffffffffffffffffffffffffffffffff82169050919050565b6000611e0682611ddb565b9050919050565b611e1681611dfb565b8114611e2157600080fd5b50565b600081359050611e3381611e0d565b92915050565b611e4281611c7d565b8114611e4d57600080fd5b50565b600081359050611e5f81611e39565b92915050565b60008060408385031215611e7c57611e7b611dd1565b5b6000611e8a85828601611e24565b9250506020611e9b85828601611e50565b9150509250929050565b60008115159050919050565b611eba81611ea5565b82525050565b6000602082019050611ed56000830184611eb1565b92915050565b600060208284031215611ef157611ef0611dd1565b5b6000611eff84828501611e50565b91505092915050565b611f1181611c7d565b82525050565b6000602082019050611f2c6000830184611f08565b92915050565b600080600060608486031215611f4b57611f4a611dd1565b5b6000611f5986828701611e24565b9350506020611f6a86828701611e24565b9250506040611f7b86828701611e50565b9150509250925092565b600060ff82169050919050565b611f9b81611f85565b82525050565b6000602082019050611fb66000830184611f92565b92915050565b600080fd5b600080fd5b7f4e487b7100000000000000000000000000000000000000000000000000000000600052604160045260246000fd5b611ffe82611d5b565b810181811067ffffffffffffffff8211171561201d5761201c611fc6565b5b80604052505050565b6000612030611dc7565b905061203c8282611ff5565b919050565b600067ffffffffffffffff82111561205c5761205b611fc6565b5b61206582611d5b565b9050602081019050919050565b82818337600083830152505050565b600061209461208f84612041565b612026565b9050828152602081018484840111156120b0576120af611fc1565b5b6120bb848285612072565b509392505050565b600082601f8301126120d8576120d7611fbc565b5b81356120e8848260208601612081565b91505092915050565b60006020828403121561210757612106611dd1565b5b600082013567ffffffffffffffff81111561212557612124611dd6565b5b612131848285016120c3565b91505092915050565b60006fffffffffffffffffffffffffffffffff82169050919050565b61215f8161213a565b82525050565b600060208201905061217a6000830184612156565b92915050565b60006020828403121561219657612195611dd1565b5b60006121a484828501611e24565b91505092915050565b60006121b882611ddb565b9050919050565b6121c8816121ad565b82525050565b60006020820190506121e360008301846121bf565b92915050565b6121f281611dfb565b82525050565b600060208201905061220d60008301846121e9565b92915050565b61221c8161213a565b811461222757600080fd5b50565b60008135905061223981612213565b92915050565b6000806040838503121561225657612255611dd1565b5b600083013567ffffffffffffffff81111561227457612273611dd6565b5b612280858286016120c3565b92505060206122918582860161222a565b9150509250929050565b600080604083850312156122b2576122b1611dd1565b5b60006122c085828601611e24565b92505060206122d185828601611e24565b9150509250929050565b6122e4816121ad565b81146122ef57600080fd5b50565b600081359050612301816122db565b92915050565b60006020828403121561231d5761231c611dd1565b5b600061232b848285016122f2565b91505092915050565b7f4e487b7100000000000000000000000000000000000000000000000000000000600052602260045260246000fd5b6000600282049050600182168061237b57607f821691505b6020821081141561238f5761238e612334565b5b50919050565b7f4e6f2062616c616e636500000000000000000000000000000000000000000000600082015250565b60006123cb600a83611d17565b91506123d682612395565b602082019050919050565b600060208201905081810360008301526123fa816123be565b9050919050565b600081905092915050565b7f424e420000000000000000000000000000000000000000000000000000000000600082015250565b6000612442600383612401565b915061244d8261240c565b600382019050919050565b600061246382612435565b9150819050919050565b600061247882611c7d565b915061248383611c7d565b9250817fffffffffffffffffffffffffffffffffffffffffffffffffffffffffffffffff04831182151516156124bc576124bb611c87565b5b828202905092915050565b7f4e487b7100000000000000000000000000000000000000000000000000000000600052601260045260246000fd5b600061250182611c7d565b915061250c83611c7d565b92508261251c5761251b6124c7565b5b828204905092915050565b600081905092915050565b50565b6000612542600083612527565b915061254d82612532565b600082019050919050565b600061256382612535565b9150819050919050565b7f4572726f72000000000000000000000000000000000000000000000000000000600082015250565b60006125a3600583611d17565b91506125ae8261256d565b602082019050919050565b600060208201905081810360008301526125d281612596565b9050919050565b60006125e6600083611d17565b91506125f182612532565b600082019050919050565b60006020820190508181036000830152612615816125d9565b9050919050565b7f612073686f7274616765206f66207374616b696e672062616c616e6365000000600082015250565b6000612652601d83611d17565b915061265d8261261c565b602082019050919050565b6000602082019050818103600083015261268181612645565b9050919050565b600061269382611c7d565b915061269e83611c7d565b9250828210156126b1576126b0611c87565b5b828203905092915050565b60006126c782611d0c565b6126d18185612401565b93506126e1818560208601611d28565b80840191505092915050565b60006126f982846126bc565b915081905092915050565b7f4d696e696d756d20616d6f756e7420697320302e3030303120424e4200000000600082015250565b600061273a601c83611d17565b915061274582612704565b602082019050919050565b600060208201905081810360008301526127698161272d565b9050919050565b7f45524332303a2064656372656173656420616c6c6f77616e63652062656c6f7760008201527f207a65726f000000000000000000000000000000000000000000000000000000602082015250565b60006127cc602583611d17565b91506127d782612770565b604082019050919050565b600060208201905081810360008301526127fb816127bf565b9050919050565b7f4e6f2062616c616e63652e000000000000000000000000000000000000000000600082015250565b6000612838600b83611d17565b915061284382612802565b602082019050919050565b600060208201905081810360008301526128678161282b565b9050919050565b7f4f776e61626c653a206e6577206f776e657220697320746865207a65726f206160008201527f6464726573730000000000000000000000000000000000000000000000000000602082015250565b60006128ca602683611d17565b91506128d58261286e565b604082019050919050565b600060208201905081810360008301526128f9816128bd565b9050919050565b7f45524332303a20617070726f76652066726f6d20746865207a65726f2061646460008201527f7265737300000000000000000000000000000000000000000000000000000000602082015250565b600061295c602483611d17565b915061296782612900565b604082019050919050565b6000602082019050818103600083015261298b8161294f565b9050919050565b7f45524332303a20617070726f766520746f20746865207a65726f20616464726560008201527f7373000000000000000000000000000000000000000000000000000000000000602082015250565b60006129ee602283611d17565b91506129f982612992565b604082019050919050565b60006020820190508181036000830152612a1d816129e1565b9050919050565b7f45524332303a206275726e2066726f6d20746865207a65726f2061646472657360008201527f7300000000000000000000000000000000000000000000000000000000000000602082015250565b6000612a80602183611d17565b9150612a8b82612a24565b604082019050919050565b60006020820190508181036000830152612aaf81612a73565b9050919050565b7f45524332303a206275726e20616d6f756e7420657863656564732062616c616e60008201527f6365000000000000000000000000000000000000000000000000000000000000602082015250565b6000612b12602283611d17565b9150612b1d82612ab6565b604082019050919050565b60006020820190508181036000830152612b4181612b05565b9050919050565b7f45524332303a20696e73756666696369656e7420616c6c6f77616e6365000000600082015250565b6000612b7e601d83611d17565b9150612b8982612b48565b602082019050919050565b60006020820190508181036000830152612bad81612b71565b9050919050565b7f45524332303a207472616e736665722066726f6d20746865207a65726f20616460008201527f6472657373000000000000000000000000000000000000000000000000000000602082015250565b6000612c10602583611d17565b9150612c1b82612bb4565b604082019050919050565b60006020820190508181036000830152612c3f81612c03565b9050919050565b7f45524332303a207472616e7366657220746f20746865207a65726f206164647260008201527f6573730000000000000000000000000000000000000000000000000000000000602082015250565b6000612ca2602383611d17565b9150612cad82612c46565b604082019050919050565b60006020820190508181036000830152612cd181612c95565b9050919050565b7f45524332303a207472616e7366657220616d6f756e742065786365656473206260008201527f616c616e63650000000000000000000000000000000000000000000000000000602082015250565b6000612d34602683611d17565b9150612d3f82612cd8565b604082019050919050565b60006020820190508181036000830152612d6381612d27565b9050919050565b7f4f776e61626c653a2063616c6c6572206973206e6f7420746865206f776e6572600082015250565b6000612da0602083611d17565b9150612dab82612d6a565b602082019050919050565b60006020820190508181036000830152612dcf81612d93565b9050919050565b7f45524332303a206d696e7420746f20746865207a65726f206164647265737300600082015250565b6000612e0c601f83611d17565b9150612e1782612dd6565b602082019050919050565b60006020820190508181036000830152612e3b81612dff565b905091905056fea26469706673582212207e4cb501b54a02bf947e16db666bc04709f28021c2c96c2d7f8c0787d43a5b1664736f6c634300080a0033",
  "immutableReferences": {},
  "source": "// SPDX-License-Identifier: MIT\r\n\r\npragma solidity ^0.8.7;\r\n\r\nimport \"../node_modules/@openzeppelin/contracts/token/ERC20/ERC20.sol\";\r\nimport \"../node_modules/@openzeppelin/contracts/access/Ownable.sol\";\r\nimport \"../node_modules/@openzeppelin/contracts/utils/Strings.sol\";\r\n\r\ncontract DLPToken is Ownable, ERC20 {\r\n    address payable public DDCAddress;\r\n    ERC20 private DDCToken;\r\n    mapping (address => uint) stakingBalances;\r\n    // mapping (address => mapping (string => uint)) stakingBalance;      \r\n    mapping (string => uint128) public DLPRatio;\r\n    uint public totalStaking;\r\n    uint decimal = 10 ** 18; \r\n\r\n    mapping (address => uint) fallbackBalances;\r\n\r\n    constructor(string memory _name, string memory _symbol, address payable _DDCAddress) ERC20(_name, _symbol) {\r\n        DDCAddress = payable(_DDCAddress);\r\n        DLPRatio[\"BNB\"] = 10 ** 14; // 1 BNB (10^18) = 10^4 DLP \r\n    }\r\n\r\n    fallback() external payable {\r\n        fallbackBalances[msg.sender] += msg.value;\r\n    }\r\n\r\n    receive() external payable {\r\n        fallbackBalances[msg.sender] += msg.value;\r\n    }\r\n\r\n    function setStakingAddress (address payable _address) public onlyOwner {\r\n        DDCAddress = payable(_address);\r\n        _mint(_address, 10 ** 10 * decimal);\r\n    }    \r\n\r\n    function changeDLPRatio(string memory CoinSymbol, uint128 Ratio) public onlyOwner { //   \r\n        DLPRatio[CoinSymbol] = Ratio;\r\n    }\r\n\r\n    function getDLPRatio(string memory CoinSymbol) public view returns(uint128) {\r\n        return DLPRatio[CoinSymbol];\r\n    }\r\n\r\n    modifier buyDLPProcess () {\r\n        require(msg.value >= 0.0001 ether, \"Minimum amount is 0.0001 BNB\");\r\n        _;\r\n    }\r\n\r\n    function buyDLP() external payable buyDLPProcess() {\r\n        (bool success, ) = payable(DDCAddress).call{value: msg.value}(\"\");\r\n        require(success, \"\");\r\n        uint DLPamount = msg.value / DLPRatio[\"BNB\"] * decimal;\r\n        _mint(msg.sender, DLPamount);\r\n    }\r\n\r\n    modifier sellDLPProcess (uint DLPamount) {\r\n        require(balanceOf(msg.sender) >= DLPamount, \"No balance\");\r\n        _;\r\n    }\r\n\r\n    function sellDLP(uint DLPamount) external sellDLPProcess(DLPamount) {\r\n        _burn(msg.sender, DLPamount);\r\n        (bool success2, ) = msg.sender.call{value: DLPamount * DLPRatio[\"BNB\"] / decimal}(\"\");\r\n        require(success2, \"Error\");\r\n    }\r\n\r\n    modifier stakeProcess (uint DLPamount) {\r\n        require(balanceOf(msg.sender) >= DLPamount  , \"No balance.\");\r\n        _;\r\n    }\r\n\r\n    function stake(uint DLPamount) public stakeProcess(DLPamount){\r\n        (bool success) = transfer(DDCAddress, DLPamount);\r\n        require(success);\r\n        stakingBalances[msg.sender] += DLPamount;\r\n        totalStaking += DLPamount;\r\n    }\r\n\r\n    modifier unstakeProcess (uint DLPamount) {\r\n        require(stakingBalances[msg.sender] >= DLPamount, \"a shortage of staking balance\");\r\n        _;\r\n    }\r\n\r\n    function unstake(uint DLPamount) public unstakeProcess(DLPamount){\r\n        stakingBalances[msg.sender] -= DLPamount;\r\n        totalStaking -= DLPamount;\r\n    }\r\n\r\n    function myBalance() public view returns(uint amount) { // DLP \r\n        amount = balanceOf(msg.sender);\r\n    }\r\n\r\n    function getStakingBalance() public view returns(uint amount) { // staking \r\n        amount = stakingBalances[msg.sender];\r\n    }\r\n\r\n    function getStakingBalance(address account) public view returns(uint amount) { //  \r\n        amount = stakingBalances[account];\r\n    }\r\n    \r\n    function emergencyCall () public onlyOwner {\r\n        (bool success, ) = owner().call{value: address(this).balance}(\"\");\r\n        require(success, \"\");\r\n    }\r\n}",
  "sourcePath": "C:\\Users\\IkSu\\Desktop\\study\\study\\workspace\\BDDC_Project\\contracts\\DLPToken.sol",
  "compiler": {
    "name": "solc",
    "version": "0.8.10+commit.fc410830.Emscripten.clang"
  },
  "schemaVersion": "3.4.11",
  "updatedAt": "2022-12-18T15:41:06.423Z",
  "devdoc": {
    "kind": "dev",
    "methods": {
      "allowance(address,address)": {
        "details": "See {IERC20-allowance}."
      },
      "approve(address,uint256)": {
        "details": "See {IERC20-approve}. NOTE: If `amount` is the maximum `uint256`, the allowance is not updated on `transferFrom`. This is semantically equivalent to an infinite approval. Requirements: - `spender` cannot be the zero address."
      },
      "balanceOf(address)": {
        "details": "See {IERC20-balanceOf}."
      },
      "decimals()": {
        "details": "Returns the number of decimals used to get its user representation. For example, if `decimals` equals `2`, a balance of `505` tokens should be displayed to a user as `5.05` (`505 / 10 ** 2`). Tokens usually opt for a value of 18, imitating the relationship between Ether and Wei. This is the value {ERC20} uses, unless this function is overridden; NOTE: This information is only used for _display_ purposes: it in no way affects any of the arithmetic of the contract, including {IERC20-balanceOf} and {IERC20-transfer}."
      },
      "decreaseAllowance(address,uint256)": {
        "details": "Atomically decreases the allowance granted to `spender` by the caller. This is an alternative to {approve} that can be used as a mitigation for problems described in {IERC20-approve}. Emits an {Approval} event indicating the updated allowance. Requirements: - `spender` cannot be the zero address. - `spender` must have allowance for the caller of at least `subtractedValue`."
      },
      "increaseAllowance(address,uint256)": {
        "details": "Atomically increases the allowance granted to `spender` by the caller. This is an alternative to {approve} that can be used as a mitigation for problems described in {IERC20-approve}. Emits an {Approval} event indicating the updated allowance. Requirements: - `spender` cannot be the zero address."
      },
      "name()": {
        "details": "Returns the name of the token."
      },
      "owner()": {
        "details": "Returns the address of the current owner."
      },
      "renounceOwnership()": {
        "details": "Leaves the contract without owner. It will not be possible to call `onlyOwner` functions anymore. Can only be called by the current owner. NOTE: Renouncing ownership will leave the contract without an owner, thereby removing any functionality that is only available to the owner."
      },
      "symbol()": {
        "details": "Returns the symbol of the token, usually a shorter version of the name."
      },
      "totalSupply()": {
        "details": "See {IERC20-totalSupply}."
      },
      "transfer(address,uint256)": {
        "details": "See {IERC20-transfer}. Requirements: - `to` cannot be the zero address. - the caller must have a balance of at least `amount`."
      },
      "transferFrom(address,address,uint256)": {
        "details": "See {IERC20-transferFrom}. Emits an {Approval} event indicating the updated allowance. This is not required by the EIP. See the note at the beginning of {ERC20}. NOTE: Does not update the allowance if the current allowance is the maximum `uint256`. Requirements: - `from` and `to` cannot be the zero address. - `from` must have a balance of at least `amount`. - the caller must have allowance for ``from``'s tokens of at least `amount`."
      },
      "transferOwnership(address)": {
        "details": "Transfers ownership of the contract to a new account (`newOwner`). Can only be called by the current owner."
      }
    },
    "version": 1
  },
  "userdoc": {
    "kind": "user",
    "methods": {},
    "version": 1
  }
}