{
  "contractName": "DLPToken",
  "abi": [
    {
      "inputs": [
        {
          "internalType": "string",
          "name": "_name",
          "type": "string"
        },
        {
          "internalType": "string",
          "name": "_symbol",
          "type": "string"
        },
        {
          "internalType": "address payable",
          "name": "_DDCAddress",
          "type": "address"
        }
      ],
      "stateMutability": "nonpayable",
      "type": "constructor"
    },
    {
      "anonymous": false,
      "inputs": [
        {
          "indexed": true,
          "internalType": "address",
          "name": "owner",
          "type": "address"
        },
        {
          "indexed": true,
          "internalType": "address",
          "name": "spender",
          "type": "address"
        },
        {
          "indexed": false,
          "internalType": "uint256",
          "name": "value",
          "type": "uint256"
        }
      ],
      "name": "Approval",
      "type": "event"
    },
    {
      "anonymous": false,
      "inputs": [
        {
          "indexed": true,
          "internalType": "address",
          "name": "previousOwner",
          "type": "address"
        },
        {
          "indexed": true,
          "internalType": "address",
          "name": "newOwner",
          "type": "address"
        }
      ],
      "name": "OwnershipTransferred",
      "type": "event"
    },
    {
      "anonymous": false,
      "inputs": [
        {
          "indexed": true,
          "internalType": "address",
          "name": "from",
          "type": "address"
        },
        {
          "indexed": true,
          "internalType": "address",
          "name": "to",
          "type": "address"
        },
        {
          "indexed": false,
          "internalType": "uint256",
          "name": "value",
          "type": "uint256"
        }
      ],
      "name": "Transfer",
      "type": "event"
    },
    {
      "stateMutability": "payable",
      "type": "fallback"
    },
    {
      "inputs": [],
      "name": "DDCAddress",
      "outputs": [
        {
          "internalType": "address payable",
          "name": "",
          "type": "address"
        }
      ],
      "stateMutability": "view",
      "type": "function"
    },
    {
      "inputs": [
        {
          "internalType": "string",
          "name": "",
          "type": "string"
        }
      ],
      "name": "DLPRatio",
      "outputs": [
        {
          "internalType": "uint128",
          "name": "",
          "type": "uint128"
        }
      ],
      "stateMutability": "view",
      "type": "function"
    },
    {
      "inputs": [
        {
          "internalType": "address",
          "name": "owner",
          "type": "address"
        },
        {
          "internalType": "address",
          "name": "spender",
          "type": "address"
        }
      ],
      "name": "allowance",
      "outputs": [
        {
          "internalType": "uint256",
          "name": "",
          "type": "uint256"
        }
      ],
      "stateMutability": "view",
      "type": "function"
    },
    {
      "inputs": [
        {
          "internalType": "address",
          "name": "spender",
          "type": "address"
        },
        {
          "internalType": "uint256",
          "name": "amount",
          "type": "uint256"
        }
      ],
      "name": "approve",
      "outputs": [
        {
          "internalType": "bool",
          "name": "",
          "type": "bool"
        }
      ],
      "stateMutability": "nonpayable",
      "type": "function"
    },
    {
      "inputs": [],
      "name": "decimals",
      "outputs": [
        {
          "internalType": "uint8",
          "name": "",
          "type": "uint8"
        }
      ],
      "stateMutability": "view",
      "type": "function"
    },
    {
      "inputs": [
        {
          "internalType": "address",
          "name": "spender",
          "type": "address"
        },
        {
          "internalType": "uint256",
          "name": "subtractedValue",
          "type": "uint256"
        }
      ],
      "name": "decreaseAllowance",
      "outputs": [
        {
          "internalType": "bool",
          "name": "",
          "type": "bool"
        }
      ],
      "stateMutability": "nonpayable",
      "type": "function"
    },
    {
      "inputs": [
        {
          "internalType": "address",
          "name": "spender",
          "type": "address"
        },
        {
          "internalType": "uint256",
          "name": "addedValue",
          "type": "uint256"
        }
      ],
      "name": "increaseAllowance",
      "outputs": [
        {
          "internalType": "bool",
          "name": "",
          "type": "bool"
        }
      ],
      "stateMutability": "nonpayable",
      "type": "function"
    },
    {
      "inputs": [],
      "name": "name",
      "outputs": [
        {
          "internalType": "string",
          "name": "",
          "type": "string"
        }
      ],
      "stateMutability": "view",
      "type": "function"
    },
    {
      "inputs": [],
      "name": "owner",
      "outputs": [
        {
          "internalType": "address",
          "name": "",
          "type": "address"
        }
      ],
      "stateMutability": "view",
      "type": "function"
    },
    {
      "inputs": [],
      "name": "renounceOwnership",
      "outputs": [],
      "stateMutability": "nonpayable",
      "type": "function"
    },
    {
      "inputs": [],
      "name": "symbol",
      "outputs": [
        {
          "internalType": "string",
          "name": "",
          "type": "string"
        }
      ],
      "stateMutability": "view",
      "type": "function"
    },
    {
      "inputs": [],
      "name": "totalStaking",
      "outputs": [
        {
          "internalType": "uint256",
          "name": "",
          "type": "uint256"
        }
      ],
      "stateMutability": "view",
      "type": "function"
    },
    {
      "inputs": [],
      "name": "totalSupply",
      "outputs": [
        {
          "internalType": "uint256",
          "name": "",
          "type": "uint256"
        }
      ],
      "stateMutability": "view",
      "type": "function"
    },
    {
      "inputs": [
        {
          "internalType": "address",
          "name": "to",
          "type": "address"
        },
        {
          "internalType": "uint256",
          "name": "amount",
          "type": "uint256"
        }
      ],
      "name": "transfer",
      "outputs": [
        {
          "internalType": "bool",
          "name": "",
          "type": "bool"
        }
      ],
      "stateMutability": "nonpayable",
      "type": "function"
    },
    {
      "inputs": [
        {
          "internalType": "address",
          "name": "from",
          "type": "address"
        },
        {
          "internalType": "address",
          "name": "to",
          "type": "address"
        },
        {
          "internalType": "uint256",
          "name": "amount",
          "type": "uint256"
        }
      ],
      "name": "transferFrom",
      "outputs": [
        {
          "internalType": "bool",
          "name": "",
          "type": "bool"
        }
      ],
      "stateMutability": "nonpayable",
      "type": "function"
    },
    {
      "inputs": [
        {
          "internalType": "address",
          "name": "newOwner",
          "type": "address"
        }
      ],
      "name": "transferOwnership",
      "outputs": [],
      "stateMutability": "nonpayable",
      "type": "function"
    },
    {
      "stateMutability": "payable",
      "type": "receive"
    },
    {
      "inputs": [
        {
          "internalType": "address payable",
          "name": "_address",
          "type": "address"
        }
      ],
      "name": "setStakingAddress",
      "outputs": [],
      "stateMutability": "nonpayable",
      "type": "function"
    },
    {
      "inputs": [
        {
          "internalType": "string",
          "name": "CoinSymbol",
          "type": "string"
        },
        {
          "internalType": "uint128",
          "name": "Ratio",
          "type": "uint128"
        }
      ],
      "name": "changeDLPRatio",
      "outputs": [],
      "stateMutability": "nonpayable",
      "type": "function"
    },
    {
      "inputs": [
        {
          "internalType": "string",
          "name": "CoinSymbol",
          "type": "string"
        }
      ],
      "name": "getDLPRatio",
      "outputs": [
        {
          "internalType": "uint128",
          "name": "",
          "type": "uint128"
        }
      ],
      "stateMutability": "view",
      "type": "function"
    },
    {
      "inputs": [],
      "name": "buyDLP",
      "outputs": [],
      "stateMutability": "payable",
      "type": "function"
    },
    {
      "inputs": [
        {
          "internalType": "uint256",
          "name": "DLPamount",
          "type": "uint256"
        }
      ],
      "name": "sellDLP",
      "outputs": [],
      "stateMutability": "nonpayable",
      "type": "function"
    },
    {
      "inputs": [
        {
          "internalType": "uint256",
          "name": "DLPamount",
          "type": "uint256"
        }
      ],
      "name": "stake",
      "outputs": [],
      "stateMutability": "nonpayable",
      "type": "function"
    },
    {
      "inputs": [
        {
          "internalType": "uint256",
          "name": "DLPamount",
          "type": "uint256"
        }
      ],
      "name": "unstake",
      "outputs": [],
      "stateMutability": "payable",
      "type": "function"
    },
    {
      "inputs": [
        {
          "internalType": "address",
          "name": "account",
          "type": "address"
        }
      ],
      "name": "balanceOf",
      "outputs": [
        {
          "internalType": "uint256",
          "name": "",
          "type": "uint256"
        }
      ],
      "stateMutability": "view",
      "type": "function"
    },
    {
      "inputs": [],
      "name": "balanceOf",
      "outputs": [
        {
          "internalType": "uint256",
          "name": "amount",
          "type": "uint256"
        }
      ],
      "stateMutability": "view",
      "type": "function"
    },
    {
      "inputs": [],
      "name": "getStakingBalance",
      "outputs": [
        {
          "internalType": "uint256",
          "name": "amount",
          "type": "uint256"
        }
      ],
      "stateMutability": "view",
      "type": "function"
    },
    {
      "inputs": [
        {
          "internalType": "address",
          "name": "account",
          "type": "address"
        }
      ],
      "name": "getStakingBalance",
      "outputs": [
        {
          "internalType": "uint256",
          "name": "amount",
          "type": "uint256"
        }
      ],
      "stateMutability": "view",
      "type": "function"
    }
  ],
  "bytecode": "0x60806040523480156200001157600080fd5b5060405162003385380380620033858339818101604052810190620000379190620004b0565b8282620000596200004d6200013260201b60201c565b6200013a60201b60201c565b816004908051906020019062000071929190620001fe565b5080600590805190602001906200008a929190620001fe565b50505080600660006101000a81548173ffffffffffffffffffffffffffffffffffffffff021916908373ffffffffffffffffffffffffffffffffffffffff160217905550655af3107a40006009604051620000e590620005a5565b908152602001604051809103902060006101000a8154816fffffffffffffffffffffffffffffffff02191690836fffffffffffffffffffffffffffffffff16021790555050505062000621565b600033905090565b60008060009054906101000a900473ffffffffffffffffffffffffffffffffffffffff169050816000806101000a81548173ffffffffffffffffffffffffffffffffffffffff021916908373ffffffffffffffffffffffffffffffffffffffff1602179055508173ffffffffffffffffffffffffffffffffffffffff168173ffffffffffffffffffffffffffffffffffffffff167f8be0079c531659141344cd1fd0a4f28419497f9722a3daafe3b4186f6b6457e060405160405180910390a35050565b8280546200020c90620005eb565b90600052602060002090601f0160209004810192826200023057600085556200027c565b82601f106200024b57805160ff19168380011785556200027c565b828001600101855582156200027c579182015b828111156200027b5782518255916020019190600101906200025e565b5b5090506200028b91906200028f565b5090565b5b80821115620002aa57600081600090555060010162000290565b5090565b6000604051905090565b600080fd5b600080fd5b600080fd5b600080fd5b6000601f19601f8301169050919050565b7f4e487b7100000000000000000000000000000000000000000000000000000000600052604160045260246000fd5b6200031782620002cc565b810181811067ffffffffffffffff82111715620003395762000338620002dd565b5b80604052505050565b60006200034e620002ae565b90506200035c82826200030c565b919050565b600067ffffffffffffffff8211156200037f576200037e620002dd565b5b6200038a82620002cc565b9050602081019050919050565b60005b83811015620003b75780820151818401526020810190506200039a565b83811115620003c7576000848401525b50505050565b6000620003e4620003de8462000361565b62000342565b905082815260208101848484011115620004035762000402620002c7565b5b6200041084828562000397565b509392505050565b600082601f83011262000430576200042f620002c2565b5b815162000442848260208601620003cd565b91505092915050565b600073ffffffffffffffffffffffffffffffffffffffff82169050919050565b600062000478826200044b565b9050919050565b6200048a816200046b565b81146200049657600080fd5b50565b600081519050620004aa816200047f565b92915050565b600080600060608486031215620004cc57620004cb620002b8565b5b600084015167ffffffffffffffff811115620004ed57620004ec620002bd565b5b620004fb8682870162000418565b935050602084015167ffffffffffffffff8111156200051f576200051e620002bd565b5b6200052d8682870162000418565b9250506040620005408682870162000499565b9150509250925092565b600081905092915050565b7f424e420000000000000000000000000000000000000000000000000000000000600082015250565b60006200058d6003836200054a565b91506200059a8262000555565b600382019050919050565b6000620005b2826200057e565b9150819050919050565b7f4e487b7100000000000000000000000000000000000000000000000000000000600052602260045260246000fd5b600060028204905060018216806200060457607f821691505b602082108114156200061b576200061a620005bc565b5b50919050565b612d5480620006316000396000f3fe6080604052600436106101a05760003560e01c806370a08231116100ec578063a4dfbf281161008a578063b04ef9c211610064578063b04ef9c214610678578063dd62ed3e146106b5578063f2fde38b146106f2578063f4e0d9ac1461071b576101fd565b8063a4dfbf28146105e9578063a694fc3a14610612578063a9059cbb1461063b576101fd565b806378fe2be6116100c657806378fe2be61461052b5780638da5cb5b1461055657806395d89b4114610581578063a457c2d7146105ac576101fd565b806370a08231146104ac578063715018a6146104e9578063722713f714610500576101fd565b80632e17de7811610159578063395093511161013357806339509351146103fd578063473c5b9d1461043a578063570a6c181461047757806362711a5d14610481576101fd565b80632e17de7814610379578063313ce5671461039557806333e397da146103c0576101fd565b806306fdde0314610255578063095ea7b3146102805780630966019f146102bd578063165defa4146102e657806318160ddd1461031157806323b872dd1461033c576101fd565b366101fd5734600b60003373ffffffffffffffffffffffffffffffffffffffff1673ffffffffffffffffffffffffffffffffffffffff16815260200190815260200160002060008282546101f49190611b92565b92505081905550005b34600b60003373ffffffffffffffffffffffffffffffffffffffff1673ffffffffffffffffffffffffffffffffffffffff168152602001908152602001600020600082825461024c9190611b92565b92505081905550005b34801561026157600080fd5b5061026a610744565b6040516102779190611c81565b60405180910390f35b34801561028c57600080fd5b506102a760048036038101906102a29190611d41565b6107d6565b6040516102b49190611d9c565b60405180910390f35b3480156102c957600080fd5b506102e460048036038101906102df9190611db7565b6107f9565b005b3480156102f257600080fd5b506102fb610955565b6040516103089190611df3565b60405180910390f35b34801561031d57600080fd5b5061032661095b565b6040516103339190611df3565b60405180910390f35b34801561034857600080fd5b50610363600480360381019061035e9190611e0e565b610965565b6040516103709190611d9c565b60405180910390f35b610393600480360381019061038e9190611db7565b610994565b005b3480156103a157600080fd5b506103aa610a8a565b6040516103b79190611e7d565b60405180910390f35b3480156103cc57600080fd5b506103e760048036038101906103e29190611fcd565b610a93565b6040516103f49190612041565b60405180910390f35b34801561040957600080fd5b50610424600480360381019061041f9190611d41565b610ad7565b6040516104319190611d9c565b60405180910390f35b34801561044657600080fd5b50610461600480360381019061045c9190611fcd565b610b0e565b60405161046e9190612041565b60405180910390f35b61047f610b53565b005b34801561048d57600080fd5b50610496610cd2565b6040516104a39190611df3565b60405180910390f35b3480156104b857600080fd5b506104d360048036038101906104ce919061205c565b610d19565b6040516104e09190611df3565b60405180910390f35b3480156104f557600080fd5b506104fe610d62565b005b34801561050c57600080fd5b50610515610d76565b6040516105229190611df3565b60405180910390f35b34801561053757600080fd5b50610540610d86565b60405161054d91906120aa565b60405180910390f35b34801561056257600080fd5b5061056b610dac565b60405161057891906120d4565b60405180910390f35b34801561058d57600080fd5b50610596610dd5565b6040516105a39190611c81565b60405180910390f35b3480156105b857600080fd5b506105d360048036038101906105ce9190611d41565b610e67565b6040516105e09190611d9c565b60405180910390f35b3480156105f557600080fd5b50610610600480360381019061060b919061211b565b610ede565b005b34801561061e57600080fd5b5061063960048036038101906106349190611db7565b610f3f565b005b34801561064757600080fd5b50610662600480360381019061065d9190611d41565b611039565b60405161066f9190611d9c565b60405180910390f35b34801561068457600080fd5b5061069f600480360381019061069a919061205c565b61105c565b6040516106ac9190611df3565b60405180910390f35b3480156106c157600080fd5b506106dc60048036038101906106d79190612177565b6110a5565b6040516106e99190611df3565b60405180910390f35b3480156106fe57600080fd5b506107196004803603810190610714919061205c565b61112c565b005b34801561072757600080fd5b50610742600480360381019061073d91906121e3565b6111b0565b005b6060600480546107539061223f565b80601f016020809104026020016040519081016040528092919081815260200182805461077f9061223f565b80156107cc5780601f106107a1576101008083540402835291602001916107cc565b820191906000526020600020905b8154815290600101906020018083116107af57829003601f168201915b5050505050905090565b6000806107e161120b565b90506107ee818585611213565b600191505092915050565b808061080433610d19565b1015610845576040517f08c379a000000000000000000000000000000000000000000000000000000000815260040161083c906122bd565b60405180910390fd5b61084f33836113de565b60003373ffffffffffffffffffffffffffffffffffffffff16600960405161087690612334565b908152602001604051809103902060009054906101000a90046fffffffffffffffffffffffffffffffff166fffffffffffffffffffffffffffffffff16846108be9190612349565b6040516108ca906123d4565b60006040518083038185875af1925050503d8060008114610907576040519150601f19603f3d011682016040523d82523d6000602084013e61090c565b606091505b5050905080610950576040517f08c379a000000000000000000000000000000000000000000000000000000000815260040161094790612435565b60405180910390fd5b505050565b600a5481565b6000600354905090565b60008061097061120b565b905061097d8582856115ae565b61098885858561163a565b60019150509392505050565b8080600860003373ffffffffffffffffffffffffffffffffffffffff1673ffffffffffffffffffffffffffffffffffffffff168152602001908152602001600020541015610a17576040517f08c379a0000000000000000000000000000000000000000000000000000000008152600401610a0e906124a1565b60405180910390fd5b81600860003373ffffffffffffffffffffffffffffffffffffffff1673ffffffffffffffffffffffffffffffffffffffff1681526020019081526020016000206000828254610a6691906124c1565b9250508190555081600a6000828254610a7f91906124c1565b925050819055505050565b60006012905090565b6000600982604051610aa59190612526565b908152602001604051809103902060009054906101000a90046fffffffffffffffffffffffffffffffff169050919050565b600080610ae261120b565b9050610b03818585610af485896110a5565b610afe9190611b92565b611213565b600191505092915050565b6009818051602081018201805184825260208301602085012081835280955050505050506000915054906101000a90046fffffffffffffffffffffffffffffffff1681565b655af3107a4000341015610b9c576040517f08c379a0000000000000000000000000000000000000000000000000000000008152600401610b9390612589565b60405180910390fd5b6000600660009054906101000a900473ffffffffffffffffffffffffffffffffffffffff1673ffffffffffffffffffffffffffffffffffffffff1634604051610be4906123d4565b60006040518083038185875af1925050503d8060008114610c21576040519150601f19603f3d011682016040523d82523d6000602084013e610c26565b606091505b5050905080610c6a576040517f08c379a0000000000000000000000000000000000000000000000000000000008152600401610c61906125cc565b60405180910390fd5b60006009604051610c7a90612334565b908152602001604051809103902060009054906101000a90046fffffffffffffffffffffffffffffffff166fffffffffffffffffffffffffffffffff1634610cc2919061261b565b9050610cce33826118b5565b5050565b6000600860003373ffffffffffffffffffffffffffffffffffffffff1673ffffffffffffffffffffffffffffffffffffffff16815260200190815260200160002054905090565b6000600160008373ffffffffffffffffffffffffffffffffffffffff1673ffffffffffffffffffffffffffffffffffffffff168152602001908152602001600020549050919050565b610d6a611a0d565b610d746000611a8b565b565b6000610d8133610d19565b905090565b600660009054906101000a900473ffffffffffffffffffffffffffffffffffffffff1681565b60008060009054906101000a900473ffffffffffffffffffffffffffffffffffffffff16905090565b606060058054610de49061223f565b80601f0160208091040260200160405190810160405280929190818152602001828054610e109061223f565b8015610e5d5780601f10610e3257610100808354040283529160200191610e5d565b820191906000526020600020905b815481529060010190602001808311610e4057829003601f168201915b5050505050905090565b600080610e7261120b565b90506000610e8082866110a5565b905083811015610ec5576040517f08c379a0000000000000000000000000000000000000000000000000000000008152600401610ebc906126be565b60405180910390fd5b610ed28286868403611213565b60019250505092915050565b610ee6611a0d565b80600983604051610ef79190612526565b908152602001604051809103902060006101000a8154816fffffffffffffffffffffffffffffffff02191690836fffffffffffffffffffffffffffffffff1602179055505050565b8080610f4a33610d19565b1015610f8b576040517f08c379a0000000000000000000000000000000000000000000000000000000008152600401610f829061272a565b60405180910390fd5b6000610fb9600660009054906101000a900473ffffffffffffffffffffffffffffffffffffffff1684611039565b905080610fc557600080fd5b82600860003373ffffffffffffffffffffffffffffffffffffffff1673ffffffffffffffffffffffffffffffffffffffff16815260200190815260200160002060008282546110149190611b92565b9250508190555082600a600082825461102d9190611b92565b92505081905550505050565b60008061104461120b565b905061105181858561163a565b600191505092915050565b6000600860008373ffffffffffffffffffffffffffffffffffffffff1673ffffffffffffffffffffffffffffffffffffffff168152602001908152602001600020549050919050565b6000600260008473ffffffffffffffffffffffffffffffffffffffff1673ffffffffffffffffffffffffffffffffffffffff16815260200190815260200160002060008373ffffffffffffffffffffffffffffffffffffffff1673ffffffffffffffffffffffffffffffffffffffff16815260200190815260200160002054905092915050565b611134611a0d565b600073ffffffffffffffffffffffffffffffffffffffff168173ffffffffffffffffffffffffffffffffffffffff1614156111a4576040517f08c379a000000000000000000000000000000000000000000000000000000000815260040161119b906127bc565b60405180910390fd5b6111ad81611a8b565b50565b6111b8611a0d565b80600660006101000a81548173ffffffffffffffffffffffffffffffffffffffff021916908373ffffffffffffffffffffffffffffffffffffffff160217905550611208816402540be4006118b5565b50565b600033905090565b600073ffffffffffffffffffffffffffffffffffffffff168373ffffffffffffffffffffffffffffffffffffffff161415611283576040517f08c379a000000000000000000000000000000000000000000000000000000000815260040161127a9061284e565b60405180910390fd5b600073ffffffffffffffffffffffffffffffffffffffff168273ffffffffffffffffffffffffffffffffffffffff1614156112f3576040517f08c379a00000000000000000000000000000000000000000000000000000000081526004016112ea906128e0565b60405180910390fd5b80600260008573ffffffffffffffffffffffffffffffffffffffff1673ffffffffffffffffffffffffffffffffffffffff16815260200190815260200160002060008473ffffffffffffffffffffffffffffffffffffffff1673ffffffffffffffffffffffffffffffffffffffff168152602001908152602001600020819055508173ffffffffffffffffffffffffffffffffffffffff168373ffffffffffffffffffffffffffffffffffffffff167f8c5be1e5ebec7d5bd14f71427d1e84f3dd0314c0f7b2291e5b200ac8c7c3b925836040516113d19190611df3565b60405180910390a3505050565b600073ffffffffffffffffffffffffffffffffffffffff168273ffffffffffffffffffffffffffffffffffffffff16141561144e576040517f08c379a000000000000000000000000000000000000000000000000000000000815260040161144590612972565b60405180910390fd5b61145a82600083611b4f565b6000600160008473ffffffffffffffffffffffffffffffffffffffff1673ffffffffffffffffffffffffffffffffffffffff168152602001908152602001600020549050818110156114e1576040517f08c379a00000000000000000000000000000000000000000000000000000000081526004016114d890612a04565b60405180910390fd5b818103600160008573ffffffffffffffffffffffffffffffffffffffff1673ffffffffffffffffffffffffffffffffffffffff1681526020019081526020016000208190555081600360008282540392505081905550600073ffffffffffffffffffffffffffffffffffffffff168373ffffffffffffffffffffffffffffffffffffffff167fddf252ad1be2c89b69c2b068fc378daa952ba7f163c4a11628f55a4df523b3ef846040516115959190611df3565b60405180910390a36115a983600084611b54565b505050565b60006115ba84846110a5565b90507fffffffffffffffffffffffffffffffffffffffffffffffffffffffffffffffff81146116345781811015611626576040517f08c379a000000000000000000000000000000000000000000000000000000000815260040161161d90612a70565b60405180910390fd5b6116338484848403611213565b5b50505050565b600073ffffffffffffffffffffffffffffffffffffffff168373ffffffffffffffffffffffffffffffffffffffff1614156116aa576040517f08c379a00000000000000000000000000000000000000000000000000000000081526004016116a190612b02565b60405180910390fd5b600073ffffffffffffffffffffffffffffffffffffffff168273ffffffffffffffffffffffffffffffffffffffff16141561171a576040517f08c379a000000000000000000000000000000000000000000000000000000000815260040161171190612b94565b60405180910390fd5b611725838383611b4f565b6000600160008573ffffffffffffffffffffffffffffffffffffffff1673ffffffffffffffffffffffffffffffffffffffff168152602001908152602001600020549050818110156117ac576040517f08c379a00000000000000000000000000000000000000000000000000000000081526004016117a390612c26565b60405180910390fd5b818103600160008673ffffffffffffffffffffffffffffffffffffffff1673ffffffffffffffffffffffffffffffffffffffff1681526020019081526020016000208190555081600160008573ffffffffffffffffffffffffffffffffffffffff1673ffffffffffffffffffffffffffffffffffffffff168152602001908152602001600020600082825401925050819055508273ffffffffffffffffffffffffffffffffffffffff168473ffffffffffffffffffffffffffffffffffffffff167fddf252ad1be2c89b69c2b068fc378daa952ba7f163c4a11628f55a4df523b3ef8460405161189c9190611df3565b60405180910390a36118af848484611b54565b50505050565b600073ffffffffffffffffffffffffffffffffffffffff168273ffffffffffffffffffffffffffffffffffffffff161415611925576040517f08c379a000000000000000000000000000000000000000000000000000000000815260040161191c90612c92565b60405180910390fd5b61193160008383611b4f565b80600360008282546119439190611b92565b9250508190555080600160008473ffffffffffffffffffffffffffffffffffffffff1673ffffffffffffffffffffffffffffffffffffffff168152602001908152602001600020600082825401925050819055508173ffffffffffffffffffffffffffffffffffffffff16600073ffffffffffffffffffffffffffffffffffffffff167fddf252ad1be2c89b69c2b068fc378daa952ba7f163c4a11628f55a4df523b3ef836040516119f59190611df3565b60405180910390a3611a0960008383611b54565b5050565b611a1561120b565b73ffffffffffffffffffffffffffffffffffffffff16611a33610dac565b73ffffffffffffffffffffffffffffffffffffffff1614611a89576040517f08c379a0000000000000000000000000000000000000000000000000000000008152600401611a8090612cfe565b60405180910390fd5b565b60008060009054906101000a900473ffffffffffffffffffffffffffffffffffffffff169050816000806101000a81548173ffffffffffffffffffffffffffffffffffffffff021916908373ffffffffffffffffffffffffffffffffffffffff1602179055508173ffffffffffffffffffffffffffffffffffffffff168173ffffffffffffffffffffffffffffffffffffffff167f8be0079c531659141344cd1fd0a4f28419497f9722a3daafe3b4186f6b6457e060405160405180910390a35050565b505050565b505050565b6000819050919050565b7f4e487b7100000000000000000000000000000000000000000000000000000000600052601160045260246000fd5b6000611b9d82611b59565b9150611ba883611b59565b9250827fffffffffffffffffffffffffffffffffffffffffffffffffffffffffffffffff03821115611bdd57611bdc611b63565b5b828201905092915050565b600081519050919050565b600082825260208201905092915050565b60005b83811015611c22578082015181840152602081019050611c07565b83811115611c31576000848401525b50505050565b6000601f19601f8301169050919050565b6000611c5382611be8565b611c5d8185611bf3565b9350611c6d818560208601611c04565b611c7681611c37565b840191505092915050565b60006020820190508181036000830152611c9b8184611c48565b905092915050565b6000604051905090565b600080fd5b600080fd5b600073ffffffffffffffffffffffffffffffffffffffff82169050919050565b6000611ce282611cb7565b9050919050565b611cf281611cd7565b8114611cfd57600080fd5b50565b600081359050611d0f81611ce9565b92915050565b611d1e81611b59565b8114611d2957600080fd5b50565b600081359050611d3b81611d15565b92915050565b60008060408385031215611d5857611d57611cad565b5b6000611d6685828601611d00565b9250506020611d7785828601611d2c565b9150509250929050565b60008115159050919050565b611d9681611d81565b82525050565b6000602082019050611db16000830184611d8d565b92915050565b600060208284031215611dcd57611dcc611cad565b5b6000611ddb84828501611d2c565b91505092915050565b611ded81611b59565b82525050565b6000602082019050611e086000830184611de4565b92915050565b600080600060608486031215611e2757611e26611cad565b5b6000611e3586828701611d00565b9350506020611e4686828701611d00565b9250506040611e5786828701611d2c565b9150509250925092565b600060ff82169050919050565b611e7781611e61565b82525050565b6000602082019050611e926000830184611e6e565b92915050565b600080fd5b600080fd5b7f4e487b7100000000000000000000000000000000000000000000000000000000600052604160045260246000fd5b611eda82611c37565b810181811067ffffffffffffffff82111715611ef957611ef8611ea2565b5b80604052505050565b6000611f0c611ca3565b9050611f188282611ed1565b919050565b600067ffffffffffffffff821115611f3857611f37611ea2565b5b611f4182611c37565b9050602081019050919050565b82818337600083830152505050565b6000611f70611f6b84611f1d565b611f02565b905082815260208101848484011115611f8c57611f8b611e9d565b5b611f97848285611f4e565b509392505050565b600082601f830112611fb457611fb3611e98565b5b8135611fc4848260208601611f5d565b91505092915050565b600060208284031215611fe357611fe2611cad565b5b600082013567ffffffffffffffff81111561200157612000611cb2565b5b61200d84828501611f9f565b91505092915050565b60006fffffffffffffffffffffffffffffffff82169050919050565b61203b81612016565b82525050565b60006020820190506120566000830184612032565b92915050565b60006020828403121561207257612071611cad565b5b600061208084828501611d00565b91505092915050565b600061209482611cb7565b9050919050565b6120a481612089565b82525050565b60006020820190506120bf600083018461209b565b92915050565b6120ce81611cd7565b82525050565b60006020820190506120e960008301846120c5565b92915050565b6120f881612016565b811461210357600080fd5b50565b600081359050612115816120ef565b92915050565b6000806040838503121561213257612131611cad565b5b600083013567ffffffffffffffff8111156121505761214f611cb2565b5b61215c85828601611f9f565b925050602061216d85828601612106565b9150509250929050565b6000806040838503121561218e5761218d611cad565b5b600061219c85828601611d00565b92505060206121ad85828601611d00565b9150509250929050565b6121c081612089565b81146121cb57600080fd5b50565b6000813590506121dd816121b7565b92915050565b6000602082840312156121f9576121f8611cad565b5b6000612207848285016121ce565b91505092915050565b7f4e487b7100000000000000000000000000000000000000000000000000000000600052602260045260246000fd5b6000600282049050600182168061225757607f821691505b6020821081141561226b5761226a612210565b5b50919050565b7f4e6f2062616c616e636500000000000000000000000000000000000000000000600082015250565b60006122a7600a83611bf3565b91506122b282612271565b602082019050919050565b600060208201905081810360008301526122d68161229a565b9050919050565b600081905092915050565b7f424e420000000000000000000000000000000000000000000000000000000000600082015250565b600061231e6003836122dd565b9150612329826122e8565b600382019050919050565b600061233f82612311565b9150819050919050565b600061235482611b59565b915061235f83611b59565b9250817fffffffffffffffffffffffffffffffffffffffffffffffffffffffffffffffff048311821515161561239857612397611b63565b5b828202905092915050565b600081905092915050565b50565b60006123be6000836123a3565b91506123c9826123ae565b600082019050919050565b60006123df826123b1565b9150819050919050565b7f4572726f72000000000000000000000000000000000000000000000000000000600082015250565b600061241f600583611bf3565b915061242a826123e9565b602082019050919050565b6000602082019050818103600083015261244e81612412565b9050919050565b7f612073686f7274616765206f66207374616b696e672062616c616e6365000000600082015250565b600061248b601d83611bf3565b915061249682612455565b602082019050919050565b600060208201905081810360008301526124ba8161247e565b9050919050565b60006124cc82611b59565b91506124d783611b59565b9250828210156124ea576124e9611b63565b5b828203905092915050565b600061250082611be8565b61250a81856122dd565b935061251a818560208601611c04565b80840191505092915050565b600061253282846124f5565b915081905092915050565b7f4d696e696d756d20616d6f756e7420697320302e3030303120424e4200000000600082015250565b6000612573601c83611bf3565b915061257e8261253d565b602082019050919050565b600060208201905081810360008301526125a281612566565b9050919050565b60006125b6600083611bf3565b91506125c1826123ae565b600082019050919050565b600060208201905081810360008301526125e5816125a9565b9050919050565b7f4e487b7100000000000000000000000000000000000000000000000000000000600052601260045260246000fd5b600061262682611b59565b915061263183611b59565b925082612641576126406125ec565b5b828204905092915050565b7f45524332303a2064656372656173656420616c6c6f77616e63652062656c6f7760008201527f207a65726f000000000000000000000000000000000000000000000000000000602082015250565b60006126a8602583611bf3565b91506126b38261264c565b604082019050919050565b600060208201905081810360008301526126d78161269b565b9050919050565b7f4e6f2062616c616e63652e000000000000000000000000000000000000000000600082015250565b6000612714600b83611bf3565b915061271f826126de565b602082019050919050565b6000602082019050818103600083015261274381612707565b9050919050565b7f4f776e61626c653a206e6577206f776e657220697320746865207a65726f206160008201527f6464726573730000000000000000000000000000000000000000000000000000602082015250565b60006127a6602683611bf3565b91506127b18261274a565b604082019050919050565b600060208201905081810360008301526127d581612799565b9050919050565b7f45524332303a20617070726f76652066726f6d20746865207a65726f2061646460008201527f7265737300000000000000000000000000000000000000000000000000000000602082015250565b6000612838602483611bf3565b9150612843826127dc565b604082019050919050565b600060208201905081810360008301526128678161282b565b9050919050565b7f45524332303a20617070726f766520746f20746865207a65726f20616464726560008201527f7373000000000000000000000000000000000000000000000000000000000000602082015250565b60006128ca602283611bf3565b91506128d58261286e565b604082019050919050565b600060208201905081810360008301526128f9816128bd565b9050919050565b7f45524332303a206275726e2066726f6d20746865207a65726f2061646472657360008201527f7300000000000000000000000000000000000000000000000000000000000000602082015250565b600061295c602183611bf3565b915061296782612900565b604082019050919050565b6000602082019050818103600083015261298b8161294f565b9050919050565b7f45524332303a206275726e20616d6f756e7420657863656564732062616c616e60008201527f6365000000000000000000000000000000000000000000000000000000000000602082015250565b60006129ee602283611bf3565b91506129f982612992565b604082019050919050565b60006020820190508181036000830152612a1d816129e1565b9050919050565b7f45524332303a20696e73756666696369656e7420616c6c6f77616e6365000000600082015250565b6000612a5a601d83611bf3565b9150612a6582612a24565b602082019050919050565b60006020820190508181036000830152612a8981612a4d565b9050919050565b7f45524332303a207472616e736665722066726f6d20746865207a65726f20616460008201527f6472657373000000000000000000000000000000000000000000000000000000602082015250565b6000612aec602583611bf3565b9150612af782612a90565b604082019050919050565b60006020820190508181036000830152612b1b81612adf565b9050919050565b7f45524332303a207472616e7366657220746f20746865207a65726f206164647260008201527f6573730000000000000000000000000000000000000000000000000000000000602082015250565b6000612b7e602383611bf3565b9150612b8982612b22565b604082019050919050565b60006020820190508181036000830152612bad81612b71565b9050919050565b7f45524332303a207472616e7366657220616d6f756e742065786365656473206260008201527f616c616e63650000000000000000000000000000000000000000000000000000602082015250565b6000612c10602683611bf3565b9150612c1b82612bb4565b604082019050919050565b60006020820190508181036000830152612c3f81612c03565b9050919050565b7f45524332303a206d696e7420746f20746865207a65726f206164647265737300600082015250565b6000612c7c601f83611bf3565b9150612c8782612c46565b602082019050919050565b60006020820190508181036000830152612cab81612c6f565b9050919050565b7f4f776e61626c653a2063616c6c6572206973206e6f7420746865206f776e6572600082015250565b6000612ce8602083611bf3565b9150612cf382612cb2565b602082019050919050565b60006020820190508181036000830152612d1781612cdb565b905091905056fea264697066735822122029b073bfe8936635a995ee562daec8ef66acac46f794ea81ab8693e4cdefec5e64736f6c634300080a0033",
  "immutableReferences": {},
  "source": "// SPDX-License-Identifier: MIT\r\n\r\npragma solidity ^0.8.7;\r\n\r\nimport \"../node_modules/@openzeppelin/contracts/token/ERC20/ERC20.sol\";\r\nimport \"../node_modules/@openzeppelin/contracts/access/Ownable.sol\";\r\nimport \"../node_modules/@openzeppelin/contracts/utils/Strings.sol\";\r\n\r\ncontract DLPToken is Ownable, ERC20 {\r\n    address payable public DDCAddress;\r\n    ERC20 private DDCToken;\r\n    mapping (address => uint) stakingBalances;\r\n    // mapping (address => mapping (string => uint)) stakingBalance;      \r\n    mapping (string => uint128) public DLPRatio;\r\n    uint public totalStaking;\r\n\r\n    mapping (address => uint) fallbackBalances;\r\n\r\n    constructor(string memory _name, string memory _symbol, address payable _DDCAddress) ERC20(_name, _symbol) {\r\n        DDCAddress = payable(_DDCAddress);\r\n        DLPRatio[\"BNB\"] = 10 ** 14; // 1 BNB (10^18) = 10^4 DLP \r\n    }\r\n\r\n    fallback() external payable {\r\n        fallbackBalances[msg.sender] += msg.value;\r\n    }\r\n\r\n    receive() external payable {\r\n        fallbackBalances[msg.sender] += msg.value;\r\n    }\r\n\r\n    function setStakingAddress (address payable _address) public onlyOwner {\r\n        DDCAddress = payable(_address);\r\n        _mint(_address, 10 ** 10);\r\n    }    \r\n\r\n    function changeDLPRatio(string memory CoinSymbol, uint128 Ratio) public onlyOwner { //   \r\n        DLPRatio[CoinSymbol] = Ratio;\r\n    }\r\n\r\n    function getDLPRatio(string memory CoinSymbol) public view returns(uint128) {\r\n        return DLPRatio[CoinSymbol];\r\n    }\r\n\r\n    modifier buyDLPProcess () {\r\n        require(msg.value >= 0.0001 ether, \"Minimum amount is 0.0001 BNB\");\r\n        _;\r\n    }\r\n\r\n    function buyDLP() external payable buyDLPProcess() {\r\n        (bool success, ) = payable(DDCAddress).call{value: msg.value}(\"\");\r\n        require(success, \"\");\r\n        uint DLPamount = msg.value / DLPRatio[\"BNB\"];\r\n        _mint(msg.sender, DLPamount);\r\n    }\r\n\r\n    modifier sellDLPProcess (uint DLPamount) {\r\n        require(balanceOf(msg.sender) >= DLPamount, \"No balance\");\r\n        _;\r\n    }\r\n\r\n    function sellDLP(uint DLPamount) external sellDLPProcess(DLPamount) {\r\n        _burn(msg.sender, DLPamount);\r\n        (bool success2, ) = msg.sender.call{value: DLPamount*DLPRatio[\"BNB\"]}(\"\");\r\n        require(success2, \"Error\");\r\n    }\r\n\r\n    modifier stakeProcess (uint DLPamount) {\r\n        require(balanceOf(msg.sender) >= DLPamount  , \"No balance.\");\r\n        _;\r\n    }\r\n\r\n    function stake(uint DLPamount) public stakeProcess(DLPamount){\r\n        (bool success) = transfer(DDCAddress, DLPamount);\r\n        require(success);\r\n        stakingBalances[msg.sender] += DLPamount;\r\n        totalStaking += DLPamount;\r\n    }\r\n\r\n    modifier unstakeProcess (uint DLPamount) {\r\n        require(stakingBalances[msg.sender] >= DLPamount, \"a shortage of staking balance\");\r\n        _;\r\n    }\r\n\r\n    function unstake(uint DLPamount) public payable unstakeProcess(DLPamount){\r\n        stakingBalances[msg.sender] -= DLPamount;\r\n        totalStaking -= DLPamount;\r\n    }\r\n\r\n    function balanceOf() public view returns(uint amount) { // DLP \r\n        amount = balanceOf(msg.sender);\r\n    }\r\n\r\n    function getStakingBalance() public view returns(uint amount) { // staking \r\n        amount = stakingBalances[msg.sender];\r\n    }\r\n\r\n    function getStakingBalance(address account) public view returns(uint amount) { //  \r\n        amount = stakingBalances[account];\r\n    }\r\n}",
  "sourcePath": "C:\\Users\\IkSu\\Desktop\\study\\study\\workspace\\BDDC_Project\\contracts\\DLPToken.sol",
  "compiler": {
    "name": "solc",
    "version": "0.8.10+commit.fc410830.Emscripten.clang"
  },
  "schemaVersion": "3.4.11",
  "updatedAt": "2022-12-18T14:34:05.943Z",
  "devdoc": {
    "kind": "dev",
    "methods": {
      "allowance(address,address)": {
        "details": "See {IERC20-allowance}."
      },
      "approve(address,uint256)": {
        "details": "See {IERC20-approve}. NOTE: If `amount` is the maximum `uint256`, the allowance is not updated on `transferFrom`. This is semantically equivalent to an infinite approval. Requirements: - `spender` cannot be the zero address."
      },
      "balanceOf(address)": {
        "details": "See {IERC20-balanceOf}."
      },
      "decimals()": {
        "details": "Returns the number of decimals used to get its user representation. For example, if `decimals` equals `2`, a balance of `505` tokens should be displayed to a user as `5.05` (`505 / 10 ** 2`). Tokens usually opt for a value of 18, imitating the relationship between Ether and Wei. This is the value {ERC20} uses, unless this function is overridden; NOTE: This information is only used for _display_ purposes: it in no way affects any of the arithmetic of the contract, including {IERC20-balanceOf} and {IERC20-transfer}."
      },
      "decreaseAllowance(address,uint256)": {
        "details": "Atomically decreases the allowance granted to `spender` by the caller. This is an alternative to {approve} that can be used as a mitigation for problems described in {IERC20-approve}. Emits an {Approval} event indicating the updated allowance. Requirements: - `spender` cannot be the zero address. - `spender` must have allowance for the caller of at least `subtractedValue`."
      },
      "increaseAllowance(address,uint256)": {
        "details": "Atomically increases the allowance granted to `spender` by the caller. This is an alternative to {approve} that can be used as a mitigation for problems described in {IERC20-approve}. Emits an {Approval} event indicating the updated allowance. Requirements: - `spender` cannot be the zero address."
      },
      "name()": {
        "details": "Returns the name of the token."
      },
      "owner()": {
        "details": "Returns the address of the current owner."
      },
      "renounceOwnership()": {
        "details": "Leaves the contract without owner. It will not be possible to call `onlyOwner` functions anymore. Can only be called by the current owner. NOTE: Renouncing ownership will leave the contract without an owner, thereby removing any functionality that is only available to the owner."
      },
      "symbol()": {
        "details": "Returns the symbol of the token, usually a shorter version of the name."
      },
      "totalSupply()": {
        "details": "See {IERC20-totalSupply}."
      },
      "transfer(address,uint256)": {
        "details": "See {IERC20-transfer}. Requirements: - `to` cannot be the zero address. - the caller must have a balance of at least `amount`."
      },
      "transferFrom(address,address,uint256)": {
        "details": "See {IERC20-transferFrom}. Emits an {Approval} event indicating the updated allowance. This is not required by the EIP. See the note at the beginning of {ERC20}. NOTE: Does not update the allowance if the current allowance is the maximum `uint256`. Requirements: - `from` and `to` cannot be the zero address. - `from` must have a balance of at least `amount`. - the caller must have allowance for ``from``'s tokens of at least `amount`."
      },
      "transferOwnership(address)": {
        "details": "Transfers ownership of the contract to a new account (`newOwner`). Can only be called by the current owner."
      }
    },
    "version": 1
  },
  "userdoc": {
    "kind": "user",
    "methods": {},
    "version": 1
  }
}