{
  "contractName": "Payments",
  "abi": [
    {
      "inputs": [
        {
          "internalType": "address[]",
          "name": "_payees",
          "type": "address[]"
        },
        {
          "internalType": "uint256[]",
          "name": "_shares",
          "type": "uint256[]"
        }
      ],
      "stateMutability": "payable",
      "type": "constructor"
    },
    {
      "anonymous": false,
      "inputs": [
        {
          "indexed": true,
          "internalType": "contract IERC20",
          "name": "token",
          "type": "address"
        },
        {
          "indexed": false,
          "internalType": "address",
          "name": "to",
          "type": "address"
        },
        {
          "indexed": false,
          "internalType": "uint256",
          "name": "amount",
          "type": "uint256"
        }
      ],
      "name": "ERC20PaymentReleased",
      "type": "event"
    },
    {
      "anonymous": false,
      "inputs": [
        {
          "indexed": true,
          "internalType": "address",
          "name": "previousOwner",
          "type": "address"
        },
        {
          "indexed": true,
          "internalType": "address",
          "name": "newOwner",
          "type": "address"
        }
      ],
      "name": "OwnershipTransferred",
      "type": "event"
    },
    {
      "anonymous": false,
      "inputs": [
        {
          "indexed": false,
          "internalType": "address",
          "name": "account",
          "type": "address"
        },
        {
          "indexed": false,
          "internalType": "uint256",
          "name": "shares",
          "type": "uint256"
        }
      ],
      "name": "PayeeAdded",
      "type": "event"
    },
    {
      "anonymous": false,
      "inputs": [
        {
          "indexed": false,
          "internalType": "address",
          "name": "from",
          "type": "address"
        },
        {
          "indexed": false,
          "internalType": "uint256",
          "name": "amount",
          "type": "uint256"
        }
      ],
      "name": "PaymentReceived",
      "type": "event"
    },
    {
      "anonymous": false,
      "inputs": [
        {
          "indexed": false,
          "internalType": "address",
          "name": "to",
          "type": "address"
        },
        {
          "indexed": false,
          "internalType": "uint256",
          "name": "amount",
          "type": "uint256"
        }
      ],
      "name": "PaymentReleased",
      "type": "event"
    },
    {
      "inputs": [],
      "name": "owner",
      "outputs": [
        {
          "internalType": "address",
          "name": "",
          "type": "address"
        }
      ],
      "stateMutability": "view",
      "type": "function"
    },
    {
      "inputs": [
        {
          "internalType": "uint256",
          "name": "index",
          "type": "uint256"
        }
      ],
      "name": "payee",
      "outputs": [
        {
          "internalType": "address",
          "name": "",
          "type": "address"
        }
      ],
      "stateMutability": "view",
      "type": "function"
    },
    {
      "inputs": [
        {
          "internalType": "address",
          "name": "account",
          "type": "address"
        }
      ],
      "name": "releasable",
      "outputs": [
        {
          "internalType": "uint256",
          "name": "",
          "type": "uint256"
        }
      ],
      "stateMutability": "view",
      "type": "function"
    },
    {
      "inputs": [
        {
          "internalType": "contract IERC20",
          "name": "token",
          "type": "address"
        },
        {
          "internalType": "address",
          "name": "account",
          "type": "address"
        }
      ],
      "name": "releasable",
      "outputs": [
        {
          "internalType": "uint256",
          "name": "",
          "type": "uint256"
        }
      ],
      "stateMutability": "view",
      "type": "function"
    },
    {
      "inputs": [
        {
          "internalType": "contract IERC20",
          "name": "token",
          "type": "address"
        },
        {
          "internalType": "address",
          "name": "account",
          "type": "address"
        }
      ],
      "name": "released",
      "outputs": [
        {
          "internalType": "uint256",
          "name": "",
          "type": "uint256"
        }
      ],
      "stateMutability": "view",
      "type": "function"
    },
    {
      "inputs": [
        {
          "internalType": "address",
          "name": "account",
          "type": "address"
        }
      ],
      "name": "released",
      "outputs": [
        {
          "internalType": "uint256",
          "name": "",
          "type": "uint256"
        }
      ],
      "stateMutability": "view",
      "type": "function"
    },
    {
      "inputs": [],
      "name": "renounceOwnership",
      "outputs": [],
      "stateMutability": "nonpayable",
      "type": "function"
    },
    {
      "inputs": [
        {
          "internalType": "address",
          "name": "account",
          "type": "address"
        }
      ],
      "name": "shares",
      "outputs": [
        {
          "internalType": "uint256",
          "name": "",
          "type": "uint256"
        }
      ],
      "stateMutability": "view",
      "type": "function"
    },
    {
      "inputs": [
        {
          "internalType": "contract IERC20",
          "name": "token",
          "type": "address"
        }
      ],
      "name": "totalReleased",
      "outputs": [
        {
          "internalType": "uint256",
          "name": "",
          "type": "uint256"
        }
      ],
      "stateMutability": "view",
      "type": "function"
    },
    {
      "inputs": [],
      "name": "totalReleased",
      "outputs": [
        {
          "internalType": "uint256",
          "name": "",
          "type": "uint256"
        }
      ],
      "stateMutability": "view",
      "type": "function"
    },
    {
      "inputs": [],
      "name": "totalShares",
      "outputs": [
        {
          "internalType": "uint256",
          "name": "",
          "type": "uint256"
        }
      ],
      "stateMutability": "view",
      "type": "function"
    },
    {
      "inputs": [
        {
          "internalType": "address",
          "name": "newOwner",
          "type": "address"
        }
      ],
      "name": "transferOwnership",
      "outputs": [],
      "stateMutability": "nonpayable",
      "type": "function"
    },
    {
      "stateMutability": "payable",
      "type": "receive"
    },
    {
      "inputs": [
        {
          "internalType": "address payable",
          "name": "account",
          "type": "address"
        }
      ],
      "name": "release",
      "outputs": [],
      "stateMutability": "nonpayable",
      "type": "function"
    },
    {
      "inputs": [
        {
          "internalType": "contract IERC20",
          "name": "token",
          "type": "address"
        },
        {
          "internalType": "address",
          "name": "account",
          "type": "address"
        }
      ],
      "name": "release",
      "outputs": [],
      "stateMutability": "nonpayable",
      "type": "function"
    }
  ],
  "bytecode": "0x608060405260405162001ad038038062001ad083398181016040528101906200002991906200075a565b8181805182511462000072576040517f08c379a0000000000000000000000000000000000000000000000000000000008152600401620000699062000866565b60405180910390fd5b6000825111620000b9576040517f08c379a0000000000000000000000000000000000000000000000000000000008152600401620000b090620008d8565b60405180910390fd5b60005b8251811015620001285762000112838281518110620000e057620000df620008fa565b5b6020026020010151838381518110620000fe57620000fd620008fa565b5b60200260200101516200015360201b60201c565b80806200011f9062000958565b915050620000bc565b5050506200014b6200013f6200038d60201b60201c565b6200039560201b60201c565b505062000bf4565b600073ffffffffffffffffffffffffffffffffffffffff168273ffffffffffffffffffffffffffffffffffffffff161415620001c6576040517f08c379a0000000000000000000000000000000000000000000000000000000008152600401620001bd9062000a1c565b60405180910390fd5b600081116200020c576040517f08c379a0000000000000000000000000000000000000000000000000000000008152600401620002039062000a8e565b60405180910390fd5b6000600260008473ffffffffffffffffffffffffffffffffffffffff1673ffffffffffffffffffffffffffffffffffffffff168152602001908152602001600020541462000291576040517f08c379a0000000000000000000000000000000000000000000000000000000008152600401620002889062000b26565b60405180910390fd5b6004829080600181540180825580915050600190039060005260206000200160009091909190916101000a81548173ffffffffffffffffffffffffffffffffffffffff021916908373ffffffffffffffffffffffffffffffffffffffff16021790555080600260008473ffffffffffffffffffffffffffffffffffffffff1673ffffffffffffffffffffffffffffffffffffffff168152602001908152602001600020819055508060005462000348919062000b48565b6000819055507f40c340f65e17194d14ddddb073d3c9f888e3cb52b5aae0c6c7706b4fbc905fac82826040516200038192919062000bc7565b60405180910390a15050565b600033905090565b6000600760009054906101000a900473ffffffffffffffffffffffffffffffffffffffff16905081600760006101000a81548173ffffffffffffffffffffffffffffffffffffffff021916908373ffffffffffffffffffffffffffffffffffffffff1602179055508173ffffffffffffffffffffffffffffffffffffffff168173ffffffffffffffffffffffffffffffffffffffff167f8be0079c531659141344cd1fd0a4f28419497f9722a3daafe3b4186f6b6457e060405160405180910390a35050565b6000604051905090565b600080fd5b600080fd5b600080fd5b6000601f19601f8301169050919050565b7f4e487b7100000000000000000000000000000000000000000000000000000000600052604160045260246000fd5b620004bf8262000474565b810181811067ffffffffffffffff82111715620004e157620004e062000485565b5b80604052505050565b6000620004f66200045b565b9050620005048282620004b4565b919050565b600067ffffffffffffffff82111562000527576200052662000485565b5b602082029050602081019050919050565b600080fd5b600073ffffffffffffffffffffffffffffffffffffffff82169050919050565b60006200056a826200053d565b9050919050565b6200057c816200055d565b81146200058857600080fd5b50565b6000815190506200059c8162000571565b92915050565b6000620005b9620005b38462000509565b620004ea565b90508083825260208201905060208402830185811115620005df57620005de62000538565b5b835b818110156200060c5780620005f788826200058b565b845260208401935050602081019050620005e1565b5050509392505050565b600082601f8301126200062e576200062d6200046f565b5b815162000640848260208601620005a2565b91505092915050565b600067ffffffffffffffff82111562000667576200066662000485565b5b602082029050602081019050919050565b6000819050919050565b6200068d8162000678565b81146200069957600080fd5b50565b600081519050620006ad8162000682565b92915050565b6000620006ca620006c48462000649565b620004ea565b90508083825260208201905060208402830185811115620006f057620006ef62000538565b5b835b818110156200071d57806200070888826200069c565b845260208401935050602081019050620006f2565b5050509392505050565b600082601f8301126200073f576200073e6200046f565b5b815162000751848260208601620006b3565b91505092915050565b6000806040838503121562000774576200077362000465565b5b600083015167ffffffffffffffff8111156200079557620007946200046a565b5b620007a38582860162000616565b925050602083015167ffffffffffffffff811115620007c757620007c66200046a565b5b620007d58582860162000727565b9150509250929050565b600082825260208201905092915050565b7f5061796d656e7453706c69747465723a2070617965657320616e64207368617260008201527f6573206c656e677468206d69736d617463680000000000000000000000000000602082015250565b60006200084e603283620007df565b91506200085b82620007f0565b604082019050919050565b6000602082019050818103600083015262000881816200083f565b9050919050565b7f5061796d656e7453706c69747465723a206e6f20706179656573000000000000600082015250565b6000620008c0601a83620007df565b9150620008cd8262000888565b602082019050919050565b60006020820190508181036000830152620008f381620008b1565b9050919050565b7f4e487b7100000000000000000000000000000000000000000000000000000000600052603260045260246000fd5b7f4e487b7100000000000000000000000000000000000000000000000000000000600052601160045260246000fd5b6000620009658262000678565b91507fffffffffffffffffffffffffffffffffffffffffffffffffffffffffffffffff8214156200099b576200099a62000929565b5b600182019050919050565b7f5061796d656e7453706c69747465723a206163636f756e74206973207468652060008201527f7a65726f20616464726573730000000000000000000000000000000000000000602082015250565b600062000a04602c83620007df565b915062000a1182620009a6565b604082019050919050565b6000602082019050818103600083015262000a3781620009f5565b9050919050565b7f5061796d656e7453706c69747465723a20736861726573206172652030000000600082015250565b600062000a76601d83620007df565b915062000a838262000a3e565b602082019050919050565b6000602082019050818103600083015262000aa98162000a67565b9050919050565b7f5061796d656e7453706c69747465723a206163636f756e7420616c726561647960008201527f2068617320736861726573000000000000000000000000000000000000000000602082015250565b600062000b0e602b83620007df565b915062000b1b8262000ab0565b604082019050919050565b6000602082019050818103600083015262000b418162000aff565b9050919050565b600062000b558262000678565b915062000b628362000678565b9250827fffffffffffffffffffffffffffffffffffffffffffffffffffffffffffffffff0382111562000b9a5762000b9962000929565b5b828201905092915050565b62000bb0816200055d565b82525050565b62000bc18162000678565b82525050565b600060408201905062000bde600083018562000ba5565b62000bed602083018462000bb6565b9392505050565b610ecc8062000c046000396000f3fe6080604052600436106100e15760003560e01c80639852595c1161007f578063ce7c2ac211610059578063ce7c2ac21461031d578063d79779b21461035a578063e33b7de314610397578063f2fde38b146103c257610128565b80639852595c14610266578063a3f8eace146102a3578063c45ac050146102e057610128565b806348b75044116100bb57806348b75044146101be578063715018a6146101e75780638b83209b146101fe5780638da5cb5b1461023b57610128565b8063191655871461012d5780633a98ef3914610156578063406072a91461018157610128565b36610128577f6ef95f06320e7a25a04a175ca677b7052bdd97131872c2192525a629f51be77061010f6103eb565b3460405161011e929190610977565b60405180910390a1005b600080fd5b34801561013957600080fd5b50610154600480360381019061014f91906109e3565b6103f3565b005b34801561016257600080fd5b5061016b6103fe565b6040516101789190610a10565b60405180910390f35b34801561018d57600080fd5b506101a860048036038101906101a39190610a95565b610407565b6040516101b59190610a10565b60405180910390f35b3480156101ca57600080fd5b506101e560048036038101906101e09190610a95565b61048e565b005b3480156101f357600080fd5b506101fc61049a565b005b34801561020a57600080fd5b5061022560048036038101906102209190610b01565b6104ae565b6040516102329190610b2e565b60405180910390f35b34801561024757600080fd5b506102506104f6565b60405161025d9190610b2e565b60405180910390f35b34801561027257600080fd5b5061028d60048036038101906102889190610b49565b610520565b60405161029a9190610a10565b60405180910390f35b3480156102af57600080fd5b506102ca60048036038101906102c59190610b49565b610569565b6040516102d79190610a10565b60405180910390f35b3480156102ec57600080fd5b5061030760048036038101906103029190610a95565b61059c565b6040516103149190610a10565b60405180910390f35b34801561032957600080fd5b50610344600480360381019061033f9190610b49565b61064b565b6040516103519190610a10565b60405180910390f35b34801561036657600080fd5b50610381600480360381019061037c9190610b76565b610694565b60405161038e9190610a10565b60405180910390f35b3480156103a357600080fd5b506103ac6106dd565b6040516103b99190610a10565b60405180910390f35b3480156103ce57600080fd5b506103e960048036038101906103e49190610b49565b6106e7565b005b600033905090565b6103fb61076b565b50565b60008054905090565b6000600660008473ffffffffffffffffffffffffffffffffffffffff1673ffffffffffffffffffffffffffffffffffffffff16815260200190815260200160002060008373ffffffffffffffffffffffffffffffffffffffff1673ffffffffffffffffffffffffffffffffffffffff16815260200190815260200160002054905092915050565b61049661076b565b5050565b6104a261076b565b6104ac60006107e9565b565b6000600482815481106104c4576104c3610ba3565b5b9060005260206000200160009054906101000a900473ffffffffffffffffffffffffffffffffffffffff169050919050565b6000600760009054906101000a900473ffffffffffffffffffffffffffffffffffffffff16905090565b6000600360008373ffffffffffffffffffffffffffffffffffffffff1673ffffffffffffffffffffffffffffffffffffffff168152602001908152602001600020549050919050565b6000806105746106dd565b4761057f9190610c01565b9050610594838261058f86610520565b6108af565b915050919050565b6000806105a884610694565b8473ffffffffffffffffffffffffffffffffffffffff166370a08231306040518263ffffffff1660e01b81526004016105e19190610b2e565b602060405180830381865afa1580156105fe573d6000803e3d6000fd5b505050506040513d601f19601f820116820180604052508101906106229190610c6c565b61062c9190610c01565b9050610642838261063d8787610407565b6108af565b91505092915050565b6000600260008373ffffffffffffffffffffffffffffffffffffffff1673ffffffffffffffffffffffffffffffffffffffff168152602001908152602001600020549050919050565b6000600560008373ffffffffffffffffffffffffffffffffffffffff1673ffffffffffffffffffffffffffffffffffffffff168152602001908152602001600020549050919050565b6000600154905090565b6106ef61076b565b600073ffffffffffffffffffffffffffffffffffffffff168173ffffffffffffffffffffffffffffffffffffffff16141561075f576040517f08c379a000000000000000000000000000000000000000000000000000000000815260040161075690610d1c565b60405180910390fd5b610768816107e9565b50565b6107736103eb565b73ffffffffffffffffffffffffffffffffffffffff166107916104f6565b73ffffffffffffffffffffffffffffffffffffffff16146107e7576040517f08c379a00000000000000000000000000000000000000000000000000000000081526004016107de90610d88565b60405180910390fd5b565b6000600760009054906101000a900473ffffffffffffffffffffffffffffffffffffffff16905081600760006101000a81548173ffffffffffffffffffffffffffffffffffffffff021916908373ffffffffffffffffffffffffffffffffffffffff1602179055508173ffffffffffffffffffffffffffffffffffffffff168173ffffffffffffffffffffffffffffffffffffffff167f8be0079c531659141344cd1fd0a4f28419497f9722a3daafe3b4186f6b6457e060405160405180910390a35050565b600081600054600260008773ffffffffffffffffffffffffffffffffffffffff1673ffffffffffffffffffffffffffffffffffffffff16815260200190815260200160002054856109009190610da8565b61090a9190610e31565b6109149190610e62565b90509392505050565b600073ffffffffffffffffffffffffffffffffffffffff82169050919050565b60006109488261091d565b9050919050565b6109588161093d565b82525050565b6000819050919050565b6109718161095e565b82525050565b600060408201905061098c600083018561094f565b6109996020830184610968565b9392505050565b600080fd5b60006109b08261091d565b9050919050565b6109c0816109a5565b81146109cb57600080fd5b50565b6000813590506109dd816109b7565b92915050565b6000602082840312156109f9576109f86109a0565b5b6000610a07848285016109ce565b91505092915050565b6000602082019050610a256000830184610968565b92915050565b6000610a368261093d565b9050919050565b610a4681610a2b565b8114610a5157600080fd5b50565b600081359050610a6381610a3d565b92915050565b610a728161093d565b8114610a7d57600080fd5b50565b600081359050610a8f81610a69565b92915050565b60008060408385031215610aac57610aab6109a0565b5b6000610aba85828601610a54565b9250506020610acb85828601610a80565b9150509250929050565b610ade8161095e565b8114610ae957600080fd5b50565b600081359050610afb81610ad5565b92915050565b600060208284031215610b1757610b166109a0565b5b6000610b2584828501610aec565b91505092915050565b6000602082019050610b43600083018461094f565b92915050565b600060208284031215610b5f57610b5e6109a0565b5b6000610b6d84828501610a80565b91505092915050565b600060208284031215610b8c57610b8b6109a0565b5b6000610b9a84828501610a54565b91505092915050565b7f4e487b7100000000000000000000000000000000000000000000000000000000600052603260045260246000fd5b7f4e487b7100000000000000000000000000000000000000000000000000000000600052601160045260246000fd5b6000610c0c8261095e565b9150610c178361095e565b9250827fffffffffffffffffffffffffffffffffffffffffffffffffffffffffffffffff03821115610c4c57610c4b610bd2565b5b828201905092915050565b600081519050610c6681610ad5565b92915050565b600060208284031215610c8257610c816109a0565b5b6000610c9084828501610c57565b91505092915050565b600082825260208201905092915050565b7f4f776e61626c653a206e6577206f776e657220697320746865207a65726f206160008201527f6464726573730000000000000000000000000000000000000000000000000000602082015250565b6000610d06602683610c99565b9150610d1182610caa565b604082019050919050565b60006020820190508181036000830152610d3581610cf9565b9050919050565b7f4f776e61626c653a2063616c6c6572206973206e6f7420746865206f776e6572600082015250565b6000610d72602083610c99565b9150610d7d82610d3c565b602082019050919050565b60006020820190508181036000830152610da181610d65565b9050919050565b6000610db38261095e565b9150610dbe8361095e565b9250817fffffffffffffffffffffffffffffffffffffffffffffffffffffffffffffffff0483118215151615610df757610df6610bd2565b5b828202905092915050565b7f4e487b7100000000000000000000000000000000000000000000000000000000600052601260045260246000fd5b6000610e3c8261095e565b9150610e478361095e565b925082610e5757610e56610e02565b5b828204905092915050565b6000610e6d8261095e565b9150610e788361095e565b925082821015610e8b57610e8a610bd2565b5b82820390509291505056fea264697066735822122081637c3afa920015480b0d15fcb78d4af7f9a73e70fd4f657decc42f4ab4dcd064736f6c634300080a0033",
  "immutableReferences": {},
  "source": "// SPDX-License-Identifier: MIT\r\n\r\npragma solidity ^0.8.7;\r\n\r\nimport \"../node_modules/@openzeppelin/contracts/finance/PaymentSplitter.sol\";\r\nimport \"../node_modules/@openzeppelin/contracts/access/Ownable.sol\";\r\n\r\ncontract Payments is Context, PaymentSplitter, Ownable {\r\n    address private withdrawAddress;\r\n\r\n    constructor(address[] memory _payees, uint256[] memory _shares) PaymentSplitter(_payees, _shares) payable {}\r\n\r\n    function release(address payable account) public override onlyOwner {}\r\n\r\n    function release(IERC20 token, address account) public override onlyOwner {}\r\n}",
  "sourcePath": "C:\\Users\\IkSu\\Desktop\\study\\study\\workspace\\BDDC_Project\\contracts\\PAYMENTS.sol",
  "compiler": {
    "name": "solc",
    "version": "0.8.10+commit.fc410830.Emscripten.clang"
  },
  "schemaVersion": "3.4.11",
  "updatedAt": "2022-12-18T15:15:38.631Z",
  "devdoc": {
    "kind": "dev",
    "methods": {
      "owner()": {
        "details": "Returns the address of the current owner."
      },
      "payee(uint256)": {
        "details": "Getter for the address of the payee number `index`."
      },
      "releasable(address)": {
        "details": "Getter for the amount of payee's releasable Ether."
      },
      "releasable(address,address)": {
        "details": "Getter for the amount of payee's releasable `token` tokens. `token` should be the address of an IERC20 contract."
      },
      "release(address)": {
        "details": "Triggers a transfer to `account` of the amount of Ether they are owed, according to their percentage of the total shares and their previous withdrawals."
      },
      "release(address,address)": {
        "details": "Triggers a transfer to `account` of the amount of `token` tokens they are owed, according to their percentage of the total shares and their previous withdrawals. `token` must be the address of an IERC20 contract."
      },
      "released(address)": {
        "details": "Getter for the amount of Ether already released to a payee."
      },
      "released(address,address)": {
        "details": "Getter for the amount of `token` tokens already released to a payee. `token` should be the address of an IERC20 contract."
      },
      "renounceOwnership()": {
        "details": "Leaves the contract without owner. It will not be possible to call `onlyOwner` functions anymore. Can only be called by the current owner. NOTE: Renouncing ownership will leave the contract without an owner, thereby removing any functionality that is only available to the owner."
      },
      "shares(address)": {
        "details": "Getter for the amount of shares held by an account."
      },
      "totalReleased()": {
        "details": "Getter for the total amount of Ether already released."
      },
      "totalReleased(address)": {
        "details": "Getter for the total amount of `token` already released. `token` should be the address of an IERC20 contract."
      },
      "totalShares()": {
        "details": "Getter for the total shares held by payees."
      },
      "transferOwnership(address)": {
        "details": "Transfers ownership of the contract to a new account (`newOwner`). Can only be called by the current owner."
      }
    },
    "version": 1
  },
  "userdoc": {
    "kind": "user",
    "methods": {},
    "version": 1
  }
}